{"contracts/CampaignManager.sol":{"CampaignManager":{"abi":[{"inputs":[{"internalType":"address","name":"_backendAdmin","type":"address"}],"stateMutability":"nonpayable","type":"constructor"},{"inputs":[],"name":"CampaignDoesNotExist","type":"error"},{"inputs":[{"internalType":"address","name":"participant","type":"address"},{"internalType":"uint256","name":"amount","type":"uint256"}],"name":"FailedToSendRewards","type":"error"},{"inputs":[],"name":"NoRewardToClaim","type":"error"},{"inputs":[],"name":"NotEnoughRewardsLeft","type":"error"},{"inputs":[],"name":"OnlyBackendAdmin","type":"error"},{"inputs":[],"name":"ZeroAmount","type":"error"},{"anonymous":false,"inputs":[{"indexed":true,"internalType":"uint256","name":"campaignId","type":"uint256"},{"indexed":true,"internalType":"address","name":"owner","type":"address"},{"indexed":false,"internalType":"string","name":"name","type":"string"},{"indexed":false,"internalType":"string","name":"description","type":"string"},{"indexed":false,"internalType":"string","name":"tweetString","type":"string"},{"indexed":false,"internalType":"uint256","name":"tokensPerLike","type":"uint256"},{"indexed":false,"internalType":"uint256","name":"tokensPerRetweet","type":"uint256"},{"indexed":false,"internalType":"uint256","name":"rewardsLeft","type":"uint256"}],"name":"CampaignCreated","type":"event"},{"anonymous":false,"inputs":[{"indexed":true,"internalType":"uint256","name":"campaignId","type":"uint256"},{"indexed":true,"internalType":"address","name":"wallet","type":"address"},{"indexed":false,"internalType":"uint256","name":"tokensRewarded","type":"uint256"},{"indexed":false,"internalType":"uint256","name":"likesRewarded","type":"uint256"},{"indexed":false,"internalType":"uint256","name":"retweetsRewarded","type":"uint256"}],"name":"CampaignRewarded","type":"event"},{"anonymous":false,"inputs":[{"indexed":true,"internalType":"address","name":"previousOwner","type":"address"},{"indexed":true,"internalType":"address","name":"newOwner","type":"address"}],"name":"OwnershipTransferred","type":"event"},{"inputs":[],"name":"backendAdmin","outputs":[{"internalType":"address","name":"","type":"address"}],"stateMutability":"view","type":"function"},{"inputs":[],"name":"campaignCount","outputs":[{"internalType":"uint256","name":"","type":"uint256"}],"stateMutability":"view","type":"function"},{"inputs":[{"internalType":"uint256","name":"","type":"uint256"}],"name":"campaigns","outputs":[{"internalType":"address","name":"owner","type":"address"},{"internalType":"string","name":"name","type":"string"},{"internalType":"string","name":"description","type":"string"},{"internalType":"string","name":"tweetString","type":"string"},{"components":[{"internalType":"uint256","name":"tokensPerLike","type":"uint256"},{"internalType":"uint256","name":"tokensPerRetweet","type":"uint256"}],"internalType":"struct CampaignManager.TweetRewardStats","name":"tweetRewardStats","type":"tuple"},{"internalType":"uint256","name":"rewardsLeft","type":"uint256"},{"internalType":"uint256","name":"totalRewardsGiven","type":"uint256"},{"components":[{"internalType":"enum CampaignManager.RewardType","name":"rewardType","type":"uint8"},{"internalType":"address","name":"tokenAddress","type":"address"}],"internalType":"struct CampaignManager.RewardToken","name":"rewardToken","type":"tuple"}],"stateMutability":"view","type":"function"},{"inputs":[{"internalType":"uint256","name":"_campaignId","type":"uint256"},{"internalType":"uint256","name":"_tweetId","type":"uint256"},{"components":[{"internalType":"uint256","name":"likes","type":"uint256"},{"internalType":"uint256","name":"retweets","type":"uint256"}],"internalType":"struct CampaignManager.TweetInfo","name":"_currentTweetInfo","type":"tuple"}],"name":"claimRewardNative","outputs":[],"stateMutability":"nonpayable","type":"function"},{"inputs":[{"internalType":"string","name":"_name","type":"string"},{"internalType":"string","name":"_description","type":"string"},{"internalType":"string","name":"_tweetString","type":"string"},{"internalType":"uint256","name":"_tokensPerLike","type":"uint256"},{"internalType":"uint256","name":"_tokensPerRetweet","type":"uint256"}],"name":"createCampaignNative","outputs":[],"stateMutability":"payable","type":"function"},{"inputs":[],"name":"owner","outputs":[{"internalType":"address","name":"","type":"address"}],"stateMutability":"view","type":"function"},{"inputs":[],"name":"renounceOwnership","outputs":[],"stateMutability":"nonpayable","type":"function"},{"inputs":[{"internalType":"address","name":"newOwner","type":"address"}],"name":"transferOwnership","outputs":[],"stateMutability":"nonpayable","type":"function"}],"evm":{"bytecode":{"linkReferences":{},"object":"60806040523480156200001157600080fd5b5060405162001c7138038062001c718339818101604052810190620000379190620001dc565b620000576200004b620000a660201b60201c565b620000ae60201b60201c565b6001808190555080600460006101000a81548173ffffffffffffffffffffffffffffffffffffffff021916908373ffffffffffffffffffffffffffffffffffffffff160217905550506200020e565b600033905090565b60008060009054906101000a900473ffffffffffffffffffffffffffffffffffffffff169050816000806101000a81548173ffffffffffffffffffffffffffffffffffffffff021916908373ffffffffffffffffffffffffffffffffffffffff1602179055508173ffffffffffffffffffffffffffffffffffffffff168173ffffffffffffffffffffffffffffffffffffffff167f8be0079c531659141344cd1fd0a4f28419497f9722a3daafe3b4186f6b6457e060405160405180910390a35050565b600080fd5b600073ffffffffffffffffffffffffffffffffffffffff82169050919050565b6000620001a48262000177565b9050919050565b620001b68162000197565b8114620001c257600080fd5b50565b600081519050620001d681620001ab565b92915050565b600060208284031215620001f557620001f462000172565b5b60006200020584828501620001c5565b91505092915050565b611a53806200021e6000396000f3fe60806040526004361061007b5760003560e01c80637274e30d1161004e5780637274e30d146101205780638da5cb5b1461014b578063d070e40c14610176578063f2fde38b146101a15761007b565b806311c1caaf14610080578063141961bc1461009c57806335161220146100e0578063715018a614610109575b600080fd5b61009a60048036038101906100959190610f0f565b6101ca565b005b3480156100a857600080fd5b506100c360048036038101906100be9190610fde565b610400565b6040516100d79897969594939291906111cd565b60405180910390f35b3480156100ec57600080fd5b50610107600480360381019061010291906112b6565b6106b9565b005b34801561011557600080fd5b5061011e610a1b565b005b34801561012c57600080fd5b50610135610a2f565b6040516101429190611309565b60405180910390f35b34801561015757600080fd5b50610160610a35565b60405161016d9190611324565b60405180910390f35b34801561018257600080fd5b5061018b610a5e565b6040516101989190611324565b60405180910390f35b3480156101ad57600080fd5b506101c860048036038101906101c3919061136b565b610a84565b005b6101d2610b07565b346000810361020d576040517f1f2a200500000000000000000000000000000000000000000000000000000000815260040160405180910390fd5b60003490503360026000600354815260200190815260200160002060000160006101000a81548173ffffffffffffffffffffffffffffffffffffffff021916908373ffffffffffffffffffffffffffffffffffffffff16021790555086600260006003548152602001908152602001600020600101908161028e91906115a4565b508560026000600354815260200190815260200160002060020190816102b491906115a4565b508460026000600354815260200190815260200160002060030190816102da91906115a4565b50836002600060035481526020019081526020016000206004016000018190555082600260006003548152602001908152602001600020600401600101819055508060026000600354815260200190815260200160002060060181905550600060026000600354815260200190815260200160002060080160000160006101000a81548160ff0219169083600181111561037757610376611118565b5b02179055506003600081548092919061038f906116a5565b91905055503373ffffffffffffffffffffffffffffffffffffffff166003547f769b387080c6632151ef5a2693f50e6d482856489f7cf2b167318ea21dcf9fd28989898989886040516103e7969594939291906116ed565b60405180910390a350506103f9610b56565b5050505050565b60026020528060005260406000206000915090508060000160009054906101000a900473ffffffffffffffffffffffffffffffffffffffff1690806001018054610449906113c7565b80601f0160208091040260200160405190810160405280929190818152602001828054610475906113c7565b80156104c25780601f10610497576101008083540402835291602001916104c2565b820191906000526020600020905b8154815290600101906020018083116104a557829003601f168201915b5050505050908060020180546104d7906113c7565b80601f0160208091040260200160405190810160405280929190818152602001828054610503906113c7565b80156105505780601f1061052557610100808354040283529160200191610550565b820191906000526020600020905b81548152906001019060200180831161053357829003601f168201915b505050505090806003018054610565906113c7565b80601f0160208091040260200160405190810160405280929190818152602001828054610591906113c7565b80156105de5780601f106105b3576101008083540402835291602001916105de565b820191906000526020600020905b8154815290600101906020018083116105c157829003601f168201915b505050505090806004016040518060400160405290816000820154815260200160018201548152505090806006015490806007015490806008016040518060400160405290816000820160009054906101000a900460ff16600181111561064857610647611118565b5b600181111561065a57610659611118565b5b81526020016000820160019054906101000a900473ffffffffffffffffffffffffffffffffffffffff1673ffffffffffffffffffffffffffffffffffffffff1673ffffffffffffffffffffffffffffffffffffffff1681525050905088565b6106c1610b07565b600460009054906101000a900473ffffffffffffffffffffffffffffffffffffffff1673ffffffffffffffffffffffffffffffffffffffff163373ffffffffffffffffffffffffffffffffffffffff1614610748576040517f58239da100000000000000000000000000000000000000000000000000000000815260040160405180910390fd5b826003548110610784576040517f9b35ed3b00000000000000000000000000000000000000000000000000000000815260040160405180910390fd5b60003390506000600260008781526020019081526020016000209050600080600061080584600a0160008a815260200190815260200160002060405180604001604052908160008201548152602001600182015481525050888660040160405180604001604052908160008201548152602001600182015481525050610b5f565b9250925092508360060154831115610849576040517f056a69e100000000000000000000000000000000000000000000000000000000815260040160405180910390fd5b8284600601600082825461085d9190611763565b92505081905550828460070160008282546108789190611797565b925050819055508684600a0160008a81526020019081526020016000206000820151816000015560208201518160010155905050828460090160008773ffffffffffffffffffffffffffffffffffffffff1673ffffffffffffffffffffffffffffffffffffffff16815260200190815260200160002060008282546108fd9190611797565b9250508190555060008573ffffffffffffffffffffffffffffffffffffffff168460405161092a906117fc565b60006040518083038185875af1925050503d8060008114610967576040519150601f19603f3d011682016040523d82523d6000602084013e61096c565b606091505b50509050806109b45785846040517f864e4ff40000000000000000000000000000000000000000000000000000000081526004016109ab929190611811565b60405180910390fd5b8573ffffffffffffffffffffffffffffffffffffffff168a7f3e09c3a93ee8793bf8d8c266b62be96d22768dc0f120808e1d7ff9c4d66b07268686866040516109ff9392919061183a565b60405180910390a350505050505050610a16610b56565b505050565b610a23610c35565b610a2d6000610cb3565b565b60035481565b60008060009054906101000a900473ffffffffffffffffffffffffffffffffffffffff16905090565b600460009054906101000a900473ffffffffffffffffffffffffffffffffffffffff1681565b610a8c610c35565b600073ffffffffffffffffffffffffffffffffffffffff168173ffffffffffffffffffffffffffffffffffffffff1603610afb576040517f08c379a0000000000000000000000000000000000000000000000000000000008152600401610af2906118e3565b60405180910390fd5b610b0481610cb3565b50565b600260015403610b4c576040517f08c379a0000000000000000000000000000000000000000000000000000000008152600401610b439061194f565b60405180910390fd5b6002600181905550565b60018081905550565b6000806000808660000151905060008760200151905060008760000151905060008860200151905081841015610b9e578382610b9b9190611763565b95505b80831015610bb5578281610bb29190611763565b94505b600086148015610bc55750600085145b15610bfc576040517f5aa9184d00000000000000000000000000000000000000000000000000000000815260040160405180910390fd5b876020015185610c0c919061196f565b886000015187610c1c919061196f565b610c269190611797565b96505050505093509350939050565b610c3d610d77565b73ffffffffffffffffffffffffffffffffffffffff16610c5b610a35565b73ffffffffffffffffffffffffffffffffffffffff1614610cb1576040517f08c379a0000000000000000000000000000000000000000000000000000000008152600401610ca8906119fd565b60405180910390fd5b565b60008060009054906101000a900473ffffffffffffffffffffffffffffffffffffffff169050816000806101000a81548173ffffffffffffffffffffffffffffffffffffffff021916908373ffffffffffffffffffffffffffffffffffffffff1602179055508173ffffffffffffffffffffffffffffffffffffffff168173ffffffffffffffffffffffffffffffffffffffff167f8be0079c531659141344cd1fd0a4f28419497f9722a3daafe3b4186f6b6457e060405160405180910390a35050565b600033905090565b6000604051905090565b600080fd5b600080fd5b600080fd5b600080fd5b6000601f19601f8301169050919050565b7f4e487b7100000000000000000000000000000000000000000000000000000000600052604160045260246000fd5b610de682610d9d565b810181811067ffffffffffffffff82111715610e0557610e04610dae565b5b80604052505050565b6000610e18610d7f565b9050610e248282610ddd565b919050565b600067ffffffffffffffff821115610e4457610e43610dae565b5b610e4d82610d9d565b9050602081019050919050565b82818337600083830152505050565b6000610e7c610e7784610e29565b610e0e565b905082815260208101848484011115610e9857610e97610d98565b5b610ea3848285610e5a565b509392505050565b600082601f830112610ec057610ebf610d93565b5b8135610ed0848260208601610e69565b91505092915050565b6000819050919050565b610eec81610ed9565b8114610ef757600080fd5b50565b600081359050610f0981610ee3565b92915050565b600080600080600060a08688031215610f2b57610f2a610d89565b5b600086013567ffffffffffffffff811115610f4957610f48610d8e565b5b610f5588828901610eab565b955050602086013567ffffffffffffffff811115610f7657610f75610d8e565b5b610f8288828901610eab565b945050604086013567ffffffffffffffff811115610fa357610fa2610d8e565b5b610faf88828901610eab565b9350506060610fc088828901610efa565b9250506080610fd188828901610efa565b9150509295509295909350565b600060208284031215610ff457610ff3610d89565b5b600061100284828501610efa565b91505092915050565b600073ffffffffffffffffffffffffffffffffffffffff82169050919050565b60006110368261100b565b9050919050565b6110468161102b565b82525050565b600081519050919050565b600082825260208201905092915050565b60005b8381101561108657808201518184015260208101905061106b565b60008484015250505050565b600061109d8261104c565b6110a78185611057565b93506110b7818560208601611068565b6110c081610d9d565b840191505092915050565b6110d481610ed9565b82525050565b6040820160008201516110f060008501826110cb565b50602082015161110360208501826110cb565b50505050565b61111281610ed9565b82525050565b7f4e487b7100000000000000000000000000000000000000000000000000000000600052602160045260246000fd5b6002811061115857611157611118565b5b50565b600081905061116982611147565b919050565b60006111798261115b565b9050919050565b6111898161116e565b82525050565b6111988161102b565b82525050565b6040820160008201516111b46000850182611180565b5060208201516111c7602085018261118f565b50505050565b6000610140820190506111e3600083018b61103d565b81810360208301526111f5818a611092565b905081810360408301526112098189611092565b9050818103606083015261121d8188611092565b905061122c60808301876110da565b61123960c0830186611109565b61124660e0830185611109565b61125461010083018461119e565b9998505050505050505050565b600080fd5b60006040828403121561127c5761127b611261565b5b6112866040610e0e565b9050600061129684828501610efa565b60008301525060206112aa84828501610efa565b60208301525092915050565b6000806000608084860312156112cf576112ce610d89565b5b60006112dd86828701610efa565b93505060206112ee86828701610efa565b92505060406112ff86828701611266565b9150509250925092565b600060208201905061131e6000830184611109565b92915050565b6000602082019050611339600083018461103d565b92915050565b6113488161102b565b811461135357600080fd5b50565b6000813590506113658161133f565b92915050565b60006020828403121561138157611380610d89565b5b600061138f84828501611356565b91505092915050565b7f4e487b7100000000000000000000000000000000000000000000000000000000600052602260045260246000fd5b600060028204905060018216806113df57607f821691505b6020821081036113f2576113f1611398565b5b50919050565b60008190508160005260206000209050919050565b60006020601f8301049050919050565b600082821b905092915050565b60006008830261145a7fffffffffffffffffffffffffffffffffffffffffffffffffffffffffffffffff8261141d565b611464868361141d565b95508019841693508086168417925050509392505050565b6000819050919050565b60006114a161149c61149784610ed9565b61147c565b610ed9565b9050919050565b6000819050919050565b6114bb83611486565b6114cf6114c7826114a8565b84845461142a565b825550505050565b600090565b6114e46114d7565b6114ef8184846114b2565b505050565b5b81811015611513576115086000826114dc565b6001810190506114f5565b5050565b601f82111561155857611529816113f8565b6115328461140d565b81016020851015611541578190505b61155561154d8561140d565b8301826114f4565b50505b505050565b600082821c905092915050565b600061157b6000198460080261155d565b1980831691505092915050565b6000611594838361156a565b9150826002028217905092915050565b6115ad8261104c565b67ffffffffffffffff8111156115c6576115c5610dae565b5b6115d082546113c7565b6115db828285611517565b600060209050601f83116001811461160e57600084156115fc578287015190505b6116068582611588565b86555061166e565b601f19841661161c866113f8565b60005b828110156116445784890151825560018201915060208501945060208101905061161f565b86831015611661578489015161165d601f89168261156a565b8355505b6001600288020188555050505b505050505050565b7f4e487b7100000000000000000000000000000000000000000000000000000000600052601160045260246000fd5b60006116b082610ed9565b91507fffffffffffffffffffffffffffffffffffffffffffffffffffffffffffffffff82036116e2576116e1611676565b5b600182019050919050565b600060c08201905081810360008301526117078189611092565b9050818103602083015261171b8188611092565b9050818103604083015261172f8187611092565b905061173e6060830186611109565b61174b6080830185611109565b61175860a0830184611109565b979650505050505050565b600061176e82610ed9565b915061177983610ed9565b925082820390508181111561179157611790611676565b5b92915050565b60006117a282610ed9565b91506117ad83610ed9565b92508282019050808211156117c5576117c4611676565b5b92915050565b600081905092915050565b50565b60006117e66000836117cb565b91506117f1826117d6565b600082019050919050565b6000611807826117d9565b9150819050919050565b6000604082019050611826600083018561103d565b6118336020830184611109565b9392505050565b600060608201905061184f6000830186611109565b61185c6020830185611109565b6118696040830184611109565b949350505050565b7f4f776e61626c653a206e6577206f776e657220697320746865207a65726f206160008201527f6464726573730000000000000000000000000000000000000000000000000000602082015250565b60006118cd602683611057565b91506118d882611871565b604082019050919050565b600060208201905081810360008301526118fc816118c0565b9050919050565b7f5265656e7472616e637947756172643a207265656e7472616e742063616c6c00600082015250565b6000611939601f83611057565b915061194482611903565b602082019050919050565b600060208201905081810360008301526119688161192c565b9050919050565b600061197a82610ed9565b915061198583610ed9565b925082820261199381610ed9565b915082820484148315176119aa576119a9611676565b5b5092915050565b7f4f776e61626c653a2063616c6c6572206973206e6f7420746865206f776e6572600082015250565b60006119e7602083611057565b91506119f2826119b1565b602082019050919050565b60006020820190508181036000830152611a16816119da565b905091905056fea2646970667358221220ff0dff920b98759644b9b1ce9ca7335733f9e79c619737fcfd5f85b9c1b1de7e64736f6c63430008120033","opcodes":"PUSH1 0x80 PUSH1 0x40 MSTORE CALLVALUE DUP1 ISZERO PUSH3 0x11 JUMPI PUSH1 0x0 DUP1 REVERT JUMPDEST POP PUSH1 0x40 MLOAD PUSH3 0x1C71 CODESIZE SUB DUP1 PUSH3 0x1C71 DUP4 CODECOPY DUP2 DUP2 ADD PUSH1 0x40 MSTORE DUP2 ADD SWAP1 PUSH3 0x37 SWAP2 SWAP1 PUSH3 0x1DC JUMP JUMPDEST PUSH3 0x57 PUSH3 0x4B PUSH3 0xA6 PUSH1 0x20 SHL PUSH1 0x20 SHR JUMP JUMPDEST PUSH3 0xAE PUSH1 0x20 SHL PUSH1 0x20 SHR JUMP JUMPDEST PUSH1 0x1 DUP1 DUP2 SWAP1 SSTORE POP DUP1 PUSH1 0x4 PUSH1 0x0 PUSH2 0x100 EXP DUP2 SLOAD DUP2 PUSH20 0xFFFFFFFFFFFFFFFFFFFFFFFFFFFFFFFFFFFFFFFF MUL NOT AND SWAP1 DUP4 PUSH20 0xFFFFFFFFFFFFFFFFFFFFFFFFFFFFFFFFFFFFFFFF AND MUL OR SWAP1 SSTORE POP POP PUSH3 0x20E JUMP JUMPDEST PUSH1 0x0 CALLER SWAP1 POP SWAP1 JUMP JUMPDEST PUSH1 0x0 DUP1 PUSH1 0x0 SWAP1 SLOAD SWAP1 PUSH2 0x100 EXP SWAP1 DIV PUSH20 0xFFFFFFFFFFFFFFFFFFFFFFFFFFFFFFFFFFFFFFFF AND SWAP1 POP DUP2 PUSH1 0x0 DUP1 PUSH2 0x100 EXP DUP2 SLOAD DUP2 PUSH20 0xFFFFFFFFFFFFFFFFFFFFFFFFFFFFFFFFFFFFFFFF MUL NOT AND SWAP1 DUP4 PUSH20 0xFFFFFFFFFFFFFFFFFFFFFFFFFFFFFFFFFFFFFFFF AND MUL OR SWAP1 SSTORE POP DUP2 PUSH20 0xFFFFFFFFFFFFFFFFFFFFFFFFFFFFFFFFFFFFFFFF AND DUP2 PUSH20 0xFFFFFFFFFFFFFFFFFFFFFFFFFFFFFFFFFFFFFFFF AND PUSH32 0x8BE0079C531659141344CD1FD0A4F28419497F9722A3DAAFE3B4186F6B6457E0 PUSH1 0x40 MLOAD PUSH1 0x40 MLOAD DUP1 SWAP2 SUB SWAP1 LOG3 POP POP JUMP JUMPDEST PUSH1 0x0 DUP1 REVERT JUMPDEST PUSH1 0x0 PUSH20 0xFFFFFFFFFFFFFFFFFFFFFFFFFFFFFFFFFFFFFFFF DUP3 AND SWAP1 POP SWAP2 SWAP1 POP JUMP JUMPDEST PUSH1 0x0 PUSH3 0x1A4 DUP3 PUSH3 0x177 JUMP JUMPDEST SWAP1 POP SWAP2 SWAP1 POP JUMP JUMPDEST PUSH3 0x1B6 DUP2 PUSH3 0x197 JUMP JUMPDEST DUP2 EQ PUSH3 0x1C2 JUMPI PUSH1 0x0 DUP1 REVERT JUMPDEST POP JUMP JUMPDEST PUSH1 0x0 DUP2 MLOAD SWAP1 POP PUSH3 0x1D6 DUP2 PUSH3 0x1AB JUMP JUMPDEST SWAP3 SWAP2 POP POP JUMP JUMPDEST PUSH1 0x0 PUSH1 0x20 DUP3 DUP5 SUB SLT ISZERO PUSH3 0x1F5 JUMPI PUSH3 0x1F4 PUSH3 0x172 JUMP JUMPDEST JUMPDEST PUSH1 0x0 PUSH3 0x205 DUP5 DUP3 DUP6 ADD PUSH3 0x1C5 JUMP JUMPDEST SWAP2 POP POP SWAP3 SWAP2 POP POP JUMP JUMPDEST PUSH2 0x1A53 DUP1 PUSH3 0x21E PUSH1 0x0 CODECOPY PUSH1 0x0 RETURN INVALID PUSH1 0x80 PUSH1 0x40 MSTORE PUSH1 0x4 CALLDATASIZE LT PUSH2 0x7B JUMPI PUSH1 0x0 CALLDATALOAD PUSH1 0xE0 SHR DUP1 PUSH4 0x7274E30D GT PUSH2 0x4E JUMPI DUP1 PUSH4 0x7274E30D EQ PUSH2 0x120 JUMPI DUP1 PUSH4 0x8DA5CB5B EQ PUSH2 0x14B JUMPI DUP1 PUSH4 0xD070E40C EQ PUSH2 0x176 JUMPI DUP1 PUSH4 0xF2FDE38B EQ PUSH2 0x1A1 JUMPI PUSH2 0x7B JUMP JUMPDEST DUP1 PUSH4 0x11C1CAAF EQ PUSH2 0x80 JUMPI DUP1 PUSH4 0x141961BC EQ PUSH2 0x9C JUMPI DUP1 PUSH4 0x35161220 EQ PUSH2 0xE0 JUMPI DUP1 PUSH4 0x715018A6 EQ PUSH2 0x109 JUMPI JUMPDEST PUSH1 0x0 DUP1 REVERT JUMPDEST PUSH2 0x9A PUSH1 0x4 DUP1 CALLDATASIZE SUB DUP2 ADD SWAP1 PUSH2 0x95 SWAP2 SWAP1 PUSH2 0xF0F JUMP JUMPDEST PUSH2 0x1CA JUMP JUMPDEST STOP JUMPDEST CALLVALUE DUP1 ISZERO PUSH2 0xA8 JUMPI PUSH1 0x0 DUP1 REVERT JUMPDEST POP PUSH2 0xC3 PUSH1 0x4 DUP1 CALLDATASIZE SUB DUP2 ADD SWAP1 PUSH2 0xBE SWAP2 SWAP1 PUSH2 0xFDE JUMP JUMPDEST PUSH2 0x400 JUMP JUMPDEST PUSH1 0x40 MLOAD PUSH2 0xD7 SWAP9 SWAP8 SWAP7 SWAP6 SWAP5 SWAP4 SWAP3 SWAP2 SWAP1 PUSH2 0x11CD JUMP JUMPDEST PUSH1 0x40 MLOAD DUP1 SWAP2 SUB SWAP1 RETURN JUMPDEST CALLVALUE DUP1 ISZERO PUSH2 0xEC JUMPI PUSH1 0x0 DUP1 REVERT JUMPDEST POP PUSH2 0x107 PUSH1 0x4 DUP1 CALLDATASIZE SUB DUP2 ADD SWAP1 PUSH2 0x102 SWAP2 SWAP1 PUSH2 0x12B6 JUMP JUMPDEST PUSH2 0x6B9 JUMP JUMPDEST STOP JUMPDEST CALLVALUE DUP1 ISZERO PUSH2 0x115 JUMPI PUSH1 0x0 DUP1 REVERT JUMPDEST POP PUSH2 0x11E PUSH2 0xA1B JUMP JUMPDEST STOP JUMPDEST CALLVALUE DUP1 ISZERO PUSH2 0x12C JUMPI PUSH1 0x0 DUP1 REVERT JUMPDEST POP PUSH2 0x135 PUSH2 0xA2F JUMP JUMPDEST PUSH1 0x40 MLOAD PUSH2 0x142 SWAP2 SWAP1 PUSH2 0x1309 JUMP JUMPDEST PUSH1 0x40 MLOAD DUP1 SWAP2 SUB SWAP1 RETURN JUMPDEST CALLVALUE DUP1 ISZERO PUSH2 0x157 JUMPI PUSH1 0x0 DUP1 REVERT JUMPDEST POP PUSH2 0x160 PUSH2 0xA35 JUMP JUMPDEST PUSH1 0x40 MLOAD PUSH2 0x16D SWAP2 SWAP1 PUSH2 0x1324 JUMP JUMPDEST PUSH1 0x40 MLOAD DUP1 SWAP2 SUB SWAP1 RETURN JUMPDEST CALLVALUE DUP1 ISZERO PUSH2 0x182 JUMPI PUSH1 0x0 DUP1 REVERT JUMPDEST POP PUSH2 0x18B PUSH2 0xA5E JUMP JUMPDEST PUSH1 0x40 MLOAD PUSH2 0x198 SWAP2 SWAP1 PUSH2 0x1324 JUMP JUMPDEST PUSH1 0x40 MLOAD DUP1 SWAP2 SUB SWAP1 RETURN JUMPDEST CALLVALUE DUP1 ISZERO PUSH2 0x1AD JUMPI PUSH1 0x0 DUP1 REVERT JUMPDEST POP PUSH2 0x1C8 PUSH1 0x4 DUP1 CALLDATASIZE SUB DUP2 ADD SWAP1 PUSH2 0x1C3 SWAP2 SWAP1 PUSH2 0x136B JUMP JUMPDEST PUSH2 0xA84 JUMP JUMPDEST STOP JUMPDEST PUSH2 0x1D2 PUSH2 0xB07 JUMP JUMPDEST CALLVALUE PUSH1 0x0 DUP2 SUB PUSH2 0x20D JUMPI PUSH1 0x40 MLOAD PUSH32 0x1F2A200500000000000000000000000000000000000000000000000000000000 DUP2 MSTORE PUSH1 0x4 ADD PUSH1 0x40 MLOAD DUP1 SWAP2 SUB SWAP1 REVERT JUMPDEST PUSH1 0x0 CALLVALUE SWAP1 POP CALLER PUSH1 0x2 PUSH1 0x0 PUSH1 0x3 SLOAD DUP2 MSTORE PUSH1 0x20 ADD SWAP1 DUP2 MSTORE PUSH1 0x20 ADD PUSH1 0x0 KECCAK256 PUSH1 0x0 ADD PUSH1 0x0 PUSH2 0x100 EXP DUP2 SLOAD DUP2 PUSH20 0xFFFFFFFFFFFFFFFFFFFFFFFFFFFFFFFFFFFFFFFF MUL NOT AND SWAP1 DUP4 PUSH20 0xFFFFFFFFFFFFFFFFFFFFFFFFFFFFFFFFFFFFFFFF AND MUL OR SWAP1 SSTORE POP DUP7 PUSH1 0x2 PUSH1 0x0 PUSH1 0x3 SLOAD DUP2 MSTORE PUSH1 0x20 ADD SWAP1 DUP2 MSTORE PUSH1 0x20 ADD PUSH1 0x0 KECCAK256 PUSH1 0x1 ADD SWAP1 DUP2 PUSH2 0x28E SWAP2 SWAP1 PUSH2 0x15A4 JUMP JUMPDEST POP DUP6 PUSH1 0x2 PUSH1 0x0 PUSH1 0x3 SLOAD DUP2 MSTORE PUSH1 0x20 ADD SWAP1 DUP2 MSTORE PUSH1 0x20 ADD PUSH1 0x0 KECCAK256 PUSH1 0x2 ADD SWAP1 DUP2 PUSH2 0x2B4 SWAP2 SWAP1 PUSH2 0x15A4 JUMP JUMPDEST POP DUP5 PUSH1 0x2 PUSH1 0x0 PUSH1 0x3 SLOAD DUP2 MSTORE PUSH1 0x20 ADD SWAP1 DUP2 MSTORE PUSH1 0x20 ADD PUSH1 0x0 KECCAK256 PUSH1 0x3 ADD SWAP1 DUP2 PUSH2 0x2DA SWAP2 SWAP1 PUSH2 0x15A4 JUMP JUMPDEST POP DUP4 PUSH1 0x2 PUSH1 0x0 PUSH1 0x3 SLOAD DUP2 MSTORE PUSH1 0x20 ADD SWAP1 DUP2 MSTORE PUSH1 0x20 ADD PUSH1 0x0 KECCAK256 PUSH1 0x4 ADD PUSH1 0x0 ADD DUP2 SWAP1 SSTORE POP DUP3 PUSH1 0x2 PUSH1 0x0 PUSH1 0x3 SLOAD DUP2 MSTORE PUSH1 0x20 ADD SWAP1 DUP2 MSTORE PUSH1 0x20 ADD PUSH1 0x0 KECCAK256 PUSH1 0x4 ADD PUSH1 0x1 ADD DUP2 SWAP1 SSTORE POP DUP1 PUSH1 0x2 PUSH1 0x0 PUSH1 0x3 SLOAD DUP2 MSTORE PUSH1 0x20 ADD SWAP1 DUP2 MSTORE PUSH1 0x20 ADD PUSH1 0x0 KECCAK256 PUSH1 0x6 ADD DUP2 SWAP1 SSTORE POP PUSH1 0x0 PUSH1 0x2 PUSH1 0x0 PUSH1 0x3 SLOAD DUP2 MSTORE PUSH1 0x20 ADD SWAP1 DUP2 MSTORE PUSH1 0x20 ADD PUSH1 0x0 KECCAK256 PUSH1 0x8 ADD PUSH1 0x0 ADD PUSH1 0x0 PUSH2 0x100 EXP DUP2 SLOAD DUP2 PUSH1 0xFF MUL NOT AND SWAP1 DUP4 PUSH1 0x1 DUP2 GT ISZERO PUSH2 0x377 JUMPI PUSH2 0x376 PUSH2 0x1118 JUMP JUMPDEST JUMPDEST MUL OR SWAP1 SSTORE POP PUSH1 0x3 PUSH1 0x0 DUP2 SLOAD DUP1 SWAP3 SWAP2 SWAP1 PUSH2 0x38F SWAP1 PUSH2 0x16A5 JUMP JUMPDEST SWAP2 SWAP1 POP SSTORE POP CALLER PUSH20 0xFFFFFFFFFFFFFFFFFFFFFFFFFFFFFFFFFFFFFFFF AND PUSH1 0x3 SLOAD PUSH32 0x769B387080C6632151EF5A2693F50E6D482856489F7CF2B167318EA21DCF9FD2 DUP10 DUP10 DUP10 DUP10 DUP10 DUP9 PUSH1 0x40 MLOAD PUSH2 0x3E7 SWAP7 SWAP6 SWAP5 SWAP4 SWAP3 SWAP2 SWAP1 PUSH2 0x16ED JUMP JUMPDEST PUSH1 0x40 MLOAD DUP1 SWAP2 SUB SWAP1 LOG3 POP POP PUSH2 0x3F9 PUSH2 0xB56 JUMP JUMPDEST POP POP POP POP POP JUMP JUMPDEST PUSH1 0x2 PUSH1 0x20 MSTORE DUP1 PUSH1 0x0 MSTORE PUSH1 0x40 PUSH1 0x0 KECCAK256 PUSH1 0x0 SWAP2 POP SWAP1 POP DUP1 PUSH1 0x0 ADD PUSH1 0x0 SWAP1 SLOAD SWAP1 PUSH2 0x100 EXP SWAP1 DIV PUSH20 0xFFFFFFFFFFFFFFFFFFFFFFFFFFFFFFFFFFFFFFFF AND SWAP1 DUP1 PUSH1 0x1 ADD DUP1 SLOAD PUSH2 0x449 SWAP1 PUSH2 0x13C7 JUMP JUMPDEST DUP1 PUSH1 0x1F ADD PUSH1 0x20 DUP1 SWAP2 DIV MUL PUSH1 0x20 ADD PUSH1 0x40 MLOAD SWAP1 DUP2 ADD PUSH1 0x40 MSTORE DUP1 SWAP3 SWAP2 SWAP1 DUP2 DUP2 MSTORE PUSH1 0x20 ADD DUP3 DUP1 SLOAD PUSH2 0x475 SWAP1 PUSH2 0x13C7 JUMP JUMPDEST DUP1 ISZERO PUSH2 0x4C2 JUMPI DUP1 PUSH1 0x1F LT PUSH2 0x497 JUMPI PUSH2 0x100 DUP1 DUP4 SLOAD DIV MUL DUP4 MSTORE SWAP2 PUSH1 0x20 ADD SWAP2 PUSH2 0x4C2 JUMP JUMPDEST DUP3 ADD SWAP2 SWAP1 PUSH1 0x0 MSTORE PUSH1 0x20 PUSH1 0x0 KECCAK256 SWAP1 JUMPDEST DUP2 SLOAD DUP2 MSTORE SWAP1 PUSH1 0x1 ADD SWAP1 PUSH1 0x20 ADD DUP1 DUP4 GT PUSH2 0x4A5 JUMPI DUP3 SWAP1 SUB PUSH1 0x1F AND DUP3 ADD SWAP2 JUMPDEST POP POP POP POP POP SWAP1 DUP1 PUSH1 0x2 ADD DUP1 SLOAD PUSH2 0x4D7 SWAP1 PUSH2 0x13C7 JUMP JUMPDEST DUP1 PUSH1 0x1F ADD PUSH1 0x20 DUP1 SWAP2 DIV MUL PUSH1 0x20 ADD PUSH1 0x40 MLOAD SWAP1 DUP2 ADD PUSH1 0x40 MSTORE DUP1 SWAP3 SWAP2 SWAP1 DUP2 DUP2 MSTORE PUSH1 0x20 ADD DUP3 DUP1 SLOAD PUSH2 0x503 SWAP1 PUSH2 0x13C7 JUMP JUMPDEST DUP1 ISZERO PUSH2 0x550 JUMPI DUP1 PUSH1 0x1F LT PUSH2 0x525 JUMPI PUSH2 0x100 DUP1 DUP4 SLOAD DIV MUL DUP4 MSTORE SWAP2 PUSH1 0x20 ADD SWAP2 PUSH2 0x550 JUMP JUMPDEST DUP3 ADD SWAP2 SWAP1 PUSH1 0x0 MSTORE PUSH1 0x20 PUSH1 0x0 KECCAK256 SWAP1 JUMPDEST DUP2 SLOAD DUP2 MSTORE SWAP1 PUSH1 0x1 ADD SWAP1 PUSH1 0x20 ADD DUP1 DUP4 GT PUSH2 0x533 JUMPI DUP3 SWAP1 SUB PUSH1 0x1F AND DUP3 ADD SWAP2 JUMPDEST POP POP POP POP POP SWAP1 DUP1 PUSH1 0x3 ADD DUP1 SLOAD PUSH2 0x565 SWAP1 PUSH2 0x13C7 JUMP JUMPDEST DUP1 PUSH1 0x1F ADD PUSH1 0x20 DUP1 SWAP2 DIV MUL PUSH1 0x20 ADD PUSH1 0x40 MLOAD SWAP1 DUP2 ADD PUSH1 0x40 MSTORE DUP1 SWAP3 SWAP2 SWAP1 DUP2 DUP2 MSTORE PUSH1 0x20 ADD DUP3 DUP1 SLOAD PUSH2 0x591 SWAP1 PUSH2 0x13C7 JUMP JUMPDEST DUP1 ISZERO PUSH2 0x5DE JUMPI DUP1 PUSH1 0x1F LT PUSH2 0x5B3 JUMPI PUSH2 0x100 DUP1 DUP4 SLOAD DIV MUL DUP4 MSTORE SWAP2 PUSH1 0x20 ADD SWAP2 PUSH2 0x5DE JUMP JUMPDEST DUP3 ADD SWAP2 SWAP1 PUSH1 0x0 MSTORE PUSH1 0x20 PUSH1 0x0 KECCAK256 SWAP1 JUMPDEST DUP2 SLOAD DUP2 MSTORE SWAP1 PUSH1 0x1 ADD SWAP1 PUSH1 0x20 ADD DUP1 DUP4 GT PUSH2 0x5C1 JUMPI DUP3 SWAP1 SUB PUSH1 0x1F AND DUP3 ADD SWAP2 JUMPDEST POP POP POP POP POP SWAP1 DUP1 PUSH1 0x4 ADD PUSH1 0x40 MLOAD DUP1 PUSH1 0x40 ADD PUSH1 0x40 MSTORE SWAP1 DUP2 PUSH1 0x0 DUP3 ADD SLOAD DUP2 MSTORE PUSH1 0x20 ADD PUSH1 0x1 DUP3 ADD SLOAD DUP2 MSTORE POP POP SWAP1 DUP1 PUSH1 0x6 ADD SLOAD SWAP1 DUP1 PUSH1 0x7 ADD SLOAD SWAP1 DUP1 PUSH1 0x8 ADD PUSH1 0x40 MLOAD DUP1 PUSH1 0x40 ADD PUSH1 0x40 MSTORE SWAP1 DUP2 PUSH1 0x0 DUP3 ADD PUSH1 0x0 SWAP1 SLOAD SWAP1 PUSH2 0x100 EXP SWAP1 DIV PUSH1 0xFF AND PUSH1 0x1 DUP2 GT ISZERO PUSH2 0x648 JUMPI PUSH2 0x647 PUSH2 0x1118 JUMP JUMPDEST JUMPDEST PUSH1 0x1 DUP2 GT ISZERO PUSH2 0x65A JUMPI PUSH2 0x659 PUSH2 0x1118 JUMP JUMPDEST JUMPDEST DUP2 MSTORE PUSH1 0x20 ADD PUSH1 0x0 DUP3 ADD PUSH1 0x1 SWAP1 SLOAD SWAP1 PUSH2 0x100 EXP SWAP1 DIV PUSH20 0xFFFFFFFFFFFFFFFFFFFFFFFFFFFFFFFFFFFFFFFF AND PUSH20 0xFFFFFFFFFFFFFFFFFFFFFFFFFFFFFFFFFFFFFFFF AND PUSH20 0xFFFFFFFFFFFFFFFFFFFFFFFFFFFFFFFFFFFFFFFF AND DUP2 MSTORE POP POP SWAP1 POP DUP9 JUMP JUMPDEST PUSH2 0x6C1 PUSH2 0xB07 JUMP JUMPDEST PUSH1 0x4 PUSH1 0x0 SWAP1 SLOAD SWAP1 PUSH2 0x100 EXP SWAP1 DIV PUSH20 0xFFFFFFFFFFFFFFFFFFFFFFFFFFFFFFFFFFFFFFFF AND PUSH20 0xFFFFFFFFFFFFFFFFFFFFFFFFFFFFFFFFFFFFFFFF AND CALLER PUSH20 0xFFFFFFFFFFFFFFFFFFFFFFFFFFFFFFFFFFFFFFFF AND EQ PUSH2 0x748 JUMPI PUSH1 0x40 MLOAD PUSH32 0x58239DA100000000000000000000000000000000000000000000000000000000 DUP2 MSTORE PUSH1 0x4 ADD PUSH1 0x40 MLOAD DUP1 SWAP2 SUB SWAP1 REVERT JUMPDEST DUP3 PUSH1 0x3 SLOAD DUP2 LT PUSH2 0x784 JUMPI PUSH1 0x40 MLOAD PUSH32 0x9B35ED3B00000000000000000000000000000000000000000000000000000000 DUP2 MSTORE PUSH1 0x4 ADD PUSH1 0x40 MLOAD DUP1 SWAP2 SUB SWAP1 REVERT JUMPDEST PUSH1 0x0 CALLER SWAP1 POP PUSH1 0x0 PUSH1 0x2 PUSH1 0x0 DUP8 DUP2 MSTORE PUSH1 0x20 ADD SWAP1 DUP2 MSTORE PUSH1 0x20 ADD PUSH1 0x0 KECCAK256 SWAP1 POP PUSH1 0x0 DUP1 PUSH1 0x0 PUSH2 0x805 DUP5 PUSH1 0xA ADD PUSH1 0x0 DUP11 DUP2 MSTORE PUSH1 0x20 ADD SWAP1 DUP2 MSTORE PUSH1 0x20 ADD PUSH1 0x0 KECCAK256 PUSH1 0x40 MLOAD DUP1 PUSH1 0x40 ADD PUSH1 0x40 MSTORE SWAP1 DUP2 PUSH1 0x0 DUP3 ADD SLOAD DUP2 MSTORE PUSH1 0x20 ADD PUSH1 0x1 DUP3 ADD SLOAD DUP2 MSTORE POP POP DUP9 DUP7 PUSH1 0x4 ADD PUSH1 0x40 MLOAD DUP1 PUSH1 0x40 ADD PUSH1 0x40 MSTORE SWAP1 DUP2 PUSH1 0x0 DUP3 ADD SLOAD DUP2 MSTORE PUSH1 0x20 ADD PUSH1 0x1 DUP3 ADD SLOAD DUP2 MSTORE POP POP PUSH2 0xB5F JUMP JUMPDEST SWAP3 POP SWAP3 POP SWAP3 POP DUP4 PUSH1 0x6 ADD SLOAD DUP4 GT ISZERO PUSH2 0x849 JUMPI PUSH1 0x40 MLOAD PUSH32 0x56A69E100000000000000000000000000000000000000000000000000000000 DUP2 MSTORE PUSH1 0x4 ADD PUSH1 0x40 MLOAD DUP1 SWAP2 SUB SWAP1 REVERT JUMPDEST DUP3 DUP5 PUSH1 0x6 ADD PUSH1 0x0 DUP3 DUP3 SLOAD PUSH2 0x85D SWAP2 SWAP1 PUSH2 0x1763 JUMP JUMPDEST SWAP3 POP POP DUP2 SWAP1 SSTORE POP DUP3 DUP5 PUSH1 0x7 ADD PUSH1 0x0 DUP3 DUP3 SLOAD PUSH2 0x878 SWAP2 SWAP1 PUSH2 0x1797 JUMP JUMPDEST SWAP3 POP POP DUP2 SWAP1 SSTORE POP DUP7 DUP5 PUSH1 0xA ADD PUSH1 0x0 DUP11 DUP2 MSTORE PUSH1 0x20 ADD SWAP1 DUP2 MSTORE PUSH1 0x20 ADD PUSH1 0x0 KECCAK256 PUSH1 0x0 DUP3 ADD MLOAD DUP2 PUSH1 0x0 ADD SSTORE PUSH1 0x20 DUP3 ADD MLOAD DUP2 PUSH1 0x1 ADD SSTORE SWAP1 POP POP DUP3 DUP5 PUSH1 0x9 ADD PUSH1 0x0 DUP8 PUSH20 0xFFFFFFFFFFFFFFFFFFFFFFFFFFFFFFFFFFFFFFFF AND PUSH20 0xFFFFFFFFFFFFFFFFFFFFFFFFFFFFFFFFFFFFFFFF AND DUP2 MSTORE PUSH1 0x20 ADD SWAP1 DUP2 MSTORE PUSH1 0x20 ADD PUSH1 0x0 KECCAK256 PUSH1 0x0 DUP3 DUP3 SLOAD PUSH2 0x8FD SWAP2 SWAP1 PUSH2 0x1797 JUMP JUMPDEST SWAP3 POP POP DUP2 SWAP1 SSTORE POP PUSH1 0x0 DUP6 PUSH20 0xFFFFFFFFFFFFFFFFFFFFFFFFFFFFFFFFFFFFFFFF AND DUP5 PUSH1 0x40 MLOAD PUSH2 0x92A SWAP1 PUSH2 0x17FC JUMP JUMPDEST PUSH1 0x0 PUSH1 0x40 MLOAD DUP1 DUP4 SUB DUP2 DUP6 DUP8 GAS CALL SWAP3 POP POP POP RETURNDATASIZE DUP1 PUSH1 0x0 DUP2 EQ PUSH2 0x967 JUMPI PUSH1 0x40 MLOAD SWAP2 POP PUSH1 0x1F NOT PUSH1 0x3F RETURNDATASIZE ADD AND DUP3 ADD PUSH1 0x40 MSTORE RETURNDATASIZE DUP3 MSTORE RETURNDATASIZE PUSH1 0x0 PUSH1 0x20 DUP5 ADD RETURNDATACOPY PUSH2 0x96C JUMP JUMPDEST PUSH1 0x60 SWAP2 POP JUMPDEST POP POP SWAP1 POP DUP1 PUSH2 0x9B4 JUMPI DUP6 DUP5 PUSH1 0x40 MLOAD PUSH32 0x864E4FF400000000000000000000000000000000000000000000000000000000 DUP2 MSTORE PUSH1 0x4 ADD PUSH2 0x9AB SWAP3 SWAP2 SWAP1 PUSH2 0x1811 JUMP JUMPDEST PUSH1 0x40 MLOAD DUP1 SWAP2 SUB SWAP1 REVERT JUMPDEST DUP6 PUSH20 0xFFFFFFFFFFFFFFFFFFFFFFFFFFFFFFFFFFFFFFFF AND DUP11 PUSH32 0x3E09C3A93EE8793BF8D8C266B62BE96D22768DC0F120808E1D7FF9C4D66B0726 DUP7 DUP7 DUP7 PUSH1 0x40 MLOAD PUSH2 0x9FF SWAP4 SWAP3 SWAP2 SWAP1 PUSH2 0x183A JUMP JUMPDEST PUSH1 0x40 MLOAD DUP1 SWAP2 SUB SWAP1 LOG3 POP POP POP POP POP POP POP PUSH2 0xA16 PUSH2 0xB56 JUMP JUMPDEST POP POP POP JUMP JUMPDEST PUSH2 0xA23 PUSH2 0xC35 JUMP JUMPDEST PUSH2 0xA2D PUSH1 0x0 PUSH2 0xCB3 JUMP JUMPDEST JUMP JUMPDEST PUSH1 0x3 SLOAD DUP2 JUMP JUMPDEST PUSH1 0x0 DUP1 PUSH1 0x0 SWAP1 SLOAD SWAP1 PUSH2 0x100 EXP SWAP1 DIV PUSH20 0xFFFFFFFFFFFFFFFFFFFFFFFFFFFFFFFFFFFFFFFF AND SWAP1 POP SWAP1 JUMP JUMPDEST PUSH1 0x4 PUSH1 0x0 SWAP1 SLOAD SWAP1 PUSH2 0x100 EXP SWAP1 DIV PUSH20 0xFFFFFFFFFFFFFFFFFFFFFFFFFFFFFFFFFFFFFFFF AND DUP2 JUMP JUMPDEST PUSH2 0xA8C PUSH2 0xC35 JUMP JUMPDEST PUSH1 0x0 PUSH20 0xFFFFFFFFFFFFFFFFFFFFFFFFFFFFFFFFFFFFFFFF AND DUP2 PUSH20 0xFFFFFFFFFFFFFFFFFFFFFFFFFFFFFFFFFFFFFFFF AND SUB PUSH2 0xAFB JUMPI PUSH1 0x40 MLOAD PUSH32 0x8C379A000000000000000000000000000000000000000000000000000000000 DUP2 MSTORE PUSH1 0x4 ADD PUSH2 0xAF2 SWAP1 PUSH2 0x18E3 JUMP JUMPDEST PUSH1 0x40 MLOAD DUP1 SWAP2 SUB SWAP1 REVERT JUMPDEST PUSH2 0xB04 DUP2 PUSH2 0xCB3 JUMP JUMPDEST POP JUMP JUMPDEST PUSH1 0x2 PUSH1 0x1 SLOAD SUB PUSH2 0xB4C JUMPI PUSH1 0x40 MLOAD PUSH32 0x8C379A000000000000000000000000000000000000000000000000000000000 DUP2 MSTORE PUSH1 0x4 ADD PUSH2 0xB43 SWAP1 PUSH2 0x194F JUMP JUMPDEST PUSH1 0x40 MLOAD DUP1 SWAP2 SUB SWAP1 REVERT JUMPDEST PUSH1 0x2 PUSH1 0x1 DUP2 SWAP1 SSTORE POP JUMP JUMPDEST PUSH1 0x1 DUP1 DUP2 SWAP1 SSTORE POP JUMP JUMPDEST PUSH1 0x0 DUP1 PUSH1 0x0 DUP1 DUP7 PUSH1 0x0 ADD MLOAD SWAP1 POP PUSH1 0x0 DUP8 PUSH1 0x20 ADD MLOAD SWAP1 POP PUSH1 0x0 DUP8 PUSH1 0x0 ADD MLOAD SWAP1 POP PUSH1 0x0 DUP9 PUSH1 0x20 ADD MLOAD SWAP1 POP DUP2 DUP5 LT ISZERO PUSH2 0xB9E JUMPI DUP4 DUP3 PUSH2 0xB9B SWAP2 SWAP1 PUSH2 0x1763 JUMP JUMPDEST SWAP6 POP JUMPDEST DUP1 DUP4 LT ISZERO PUSH2 0xBB5 JUMPI DUP3 DUP2 PUSH2 0xBB2 SWAP2 SWAP1 PUSH2 0x1763 JUMP JUMPDEST SWAP5 POP JUMPDEST PUSH1 0x0 DUP7 EQ DUP1 ISZERO PUSH2 0xBC5 JUMPI POP PUSH1 0x0 DUP6 EQ JUMPDEST ISZERO PUSH2 0xBFC JUMPI PUSH1 0x40 MLOAD PUSH32 0x5AA9184D00000000000000000000000000000000000000000000000000000000 DUP2 MSTORE PUSH1 0x4 ADD PUSH1 0x40 MLOAD DUP1 SWAP2 SUB SWAP1 REVERT JUMPDEST DUP8 PUSH1 0x20 ADD MLOAD DUP6 PUSH2 0xC0C SWAP2 SWAP1 PUSH2 0x196F JUMP JUMPDEST DUP9 PUSH1 0x0 ADD MLOAD DUP8 PUSH2 0xC1C SWAP2 SWAP1 PUSH2 0x196F JUMP JUMPDEST PUSH2 0xC26 SWAP2 SWAP1 PUSH2 0x1797 JUMP JUMPDEST SWAP7 POP POP POP POP POP SWAP4 POP SWAP4 POP SWAP4 SWAP1 POP JUMP JUMPDEST PUSH2 0xC3D PUSH2 0xD77 JUMP JUMPDEST PUSH20 0xFFFFFFFFFFFFFFFFFFFFFFFFFFFFFFFFFFFFFFFF AND PUSH2 0xC5B PUSH2 0xA35 JUMP JUMPDEST PUSH20 0xFFFFFFFFFFFFFFFFFFFFFFFFFFFFFFFFFFFFFFFF AND EQ PUSH2 0xCB1 JUMPI PUSH1 0x40 MLOAD PUSH32 0x8C379A000000000000000000000000000000000000000000000000000000000 DUP2 MSTORE PUSH1 0x4 ADD PUSH2 0xCA8 SWAP1 PUSH2 0x19FD JUMP JUMPDEST PUSH1 0x40 MLOAD DUP1 SWAP2 SUB SWAP1 REVERT JUMPDEST JUMP JUMPDEST PUSH1 0x0 DUP1 PUSH1 0x0 SWAP1 SLOAD SWAP1 PUSH2 0x100 EXP SWAP1 DIV PUSH20 0xFFFFFFFFFFFFFFFFFFFFFFFFFFFFFFFFFFFFFFFF AND SWAP1 POP DUP2 PUSH1 0x0 DUP1 PUSH2 0x100 EXP DUP2 SLOAD DUP2 PUSH20 0xFFFFFFFFFFFFFFFFFFFFFFFFFFFFFFFFFFFFFFFF MUL NOT AND SWAP1 DUP4 PUSH20 0xFFFFFFFFFFFFFFFFFFFFFFFFFFFFFFFFFFFFFFFF AND MUL OR SWAP1 SSTORE POP DUP2 PUSH20 0xFFFFFFFFFFFFFFFFFFFFFFFFFFFFFFFFFFFFFFFF AND DUP2 PUSH20 0xFFFFFFFFFFFFFFFFFFFFFFFFFFFFFFFFFFFFFFFF AND PUSH32 0x8BE0079C531659141344CD1FD0A4F28419497F9722A3DAAFE3B4186F6B6457E0 PUSH1 0x40 MLOAD PUSH1 0x40 MLOAD DUP1 SWAP2 SUB SWAP1 LOG3 POP POP JUMP JUMPDEST PUSH1 0x0 CALLER SWAP1 POP SWAP1 JUMP JUMPDEST PUSH1 0x0 PUSH1 0x40 MLOAD SWAP1 POP SWAP1 JUMP JUMPDEST PUSH1 0x0 DUP1 REVERT JUMPDEST PUSH1 0x0 DUP1 REVERT JUMPDEST PUSH1 0x0 DUP1 REVERT JUMPDEST PUSH1 0x0 DUP1 REVERT JUMPDEST PUSH1 0x0 PUSH1 0x1F NOT PUSH1 0x1F DUP4 ADD AND SWAP1 POP SWAP2 SWAP1 POP JUMP JUMPDEST PUSH32 0x4E487B7100000000000000000000000000000000000000000000000000000000 PUSH1 0x0 MSTORE PUSH1 0x41 PUSH1 0x4 MSTORE PUSH1 0x24 PUSH1 0x0 REVERT JUMPDEST PUSH2 0xDE6 DUP3 PUSH2 0xD9D JUMP JUMPDEST DUP2 ADD DUP2 DUP2 LT PUSH8 0xFFFFFFFFFFFFFFFF DUP3 GT OR ISZERO PUSH2 0xE05 JUMPI PUSH2 0xE04 PUSH2 0xDAE JUMP JUMPDEST JUMPDEST DUP1 PUSH1 0x40 MSTORE POP POP POP JUMP JUMPDEST PUSH1 0x0 PUSH2 0xE18 PUSH2 0xD7F JUMP JUMPDEST SWAP1 POP PUSH2 0xE24 DUP3 DUP3 PUSH2 0xDDD JUMP JUMPDEST SWAP2 SWAP1 POP JUMP JUMPDEST PUSH1 0x0 PUSH8 0xFFFFFFFFFFFFFFFF DUP3 GT ISZERO PUSH2 0xE44 JUMPI PUSH2 0xE43 PUSH2 0xDAE JUMP JUMPDEST JUMPDEST PUSH2 0xE4D DUP3 PUSH2 0xD9D JUMP JUMPDEST SWAP1 POP PUSH1 0x20 DUP2 ADD SWAP1 POP SWAP2 SWAP1 POP JUMP JUMPDEST DUP3 DUP2 DUP4 CALLDATACOPY PUSH1 0x0 DUP4 DUP4 ADD MSTORE POP POP POP JUMP JUMPDEST PUSH1 0x0 PUSH2 0xE7C PUSH2 0xE77 DUP5 PUSH2 0xE29 JUMP JUMPDEST PUSH2 0xE0E JUMP JUMPDEST SWAP1 POP DUP3 DUP2 MSTORE PUSH1 0x20 DUP2 ADD DUP5 DUP5 DUP5 ADD GT ISZERO PUSH2 0xE98 JUMPI PUSH2 0xE97 PUSH2 0xD98 JUMP JUMPDEST JUMPDEST PUSH2 0xEA3 DUP5 DUP3 DUP6 PUSH2 0xE5A JUMP JUMPDEST POP SWAP4 SWAP3 POP POP POP JUMP JUMPDEST PUSH1 0x0 DUP3 PUSH1 0x1F DUP4 ADD SLT PUSH2 0xEC0 JUMPI PUSH2 0xEBF PUSH2 0xD93 JUMP JUMPDEST JUMPDEST DUP2 CALLDATALOAD PUSH2 0xED0 DUP5 DUP3 PUSH1 0x20 DUP7 ADD PUSH2 0xE69 JUMP JUMPDEST SWAP2 POP POP SWAP3 SWAP2 POP POP JUMP JUMPDEST PUSH1 0x0 DUP2 SWAP1 POP SWAP2 SWAP1 POP JUMP JUMPDEST PUSH2 0xEEC DUP2 PUSH2 0xED9 JUMP JUMPDEST DUP2 EQ PUSH2 0xEF7 JUMPI PUSH1 0x0 DUP1 REVERT JUMPDEST POP JUMP JUMPDEST PUSH1 0x0 DUP2 CALLDATALOAD SWAP1 POP PUSH2 0xF09 DUP2 PUSH2 0xEE3 JUMP JUMPDEST SWAP3 SWAP2 POP POP JUMP JUMPDEST PUSH1 0x0 DUP1 PUSH1 0x0 DUP1 PUSH1 0x0 PUSH1 0xA0 DUP7 DUP9 SUB SLT ISZERO PUSH2 0xF2B JUMPI PUSH2 0xF2A PUSH2 0xD89 JUMP JUMPDEST JUMPDEST PUSH1 0x0 DUP7 ADD CALLDATALOAD PUSH8 0xFFFFFFFFFFFFFFFF DUP2 GT ISZERO PUSH2 0xF49 JUMPI PUSH2 0xF48 PUSH2 0xD8E JUMP JUMPDEST JUMPDEST PUSH2 0xF55 DUP9 DUP3 DUP10 ADD PUSH2 0xEAB JUMP JUMPDEST SWAP6 POP POP PUSH1 0x20 DUP7 ADD CALLDATALOAD PUSH8 0xFFFFFFFFFFFFFFFF DUP2 GT ISZERO PUSH2 0xF76 JUMPI PUSH2 0xF75 PUSH2 0xD8E JUMP JUMPDEST JUMPDEST PUSH2 0xF82 DUP9 DUP3 DUP10 ADD PUSH2 0xEAB JUMP JUMPDEST SWAP5 POP POP PUSH1 0x40 DUP7 ADD CALLDATALOAD PUSH8 0xFFFFFFFFFFFFFFFF DUP2 GT ISZERO PUSH2 0xFA3 JUMPI PUSH2 0xFA2 PUSH2 0xD8E JUMP JUMPDEST JUMPDEST PUSH2 0xFAF DUP9 DUP3 DUP10 ADD PUSH2 0xEAB JUMP JUMPDEST SWAP4 POP POP PUSH1 0x60 PUSH2 0xFC0 DUP9 DUP3 DUP10 ADD PUSH2 0xEFA JUMP JUMPDEST SWAP3 POP POP PUSH1 0x80 PUSH2 0xFD1 DUP9 DUP3 DUP10 ADD PUSH2 0xEFA JUMP JUMPDEST SWAP2 POP POP SWAP3 SWAP6 POP SWAP3 SWAP6 SWAP1 SWAP4 POP JUMP JUMPDEST PUSH1 0x0 PUSH1 0x20 DUP3 DUP5 SUB SLT ISZERO PUSH2 0xFF4 JUMPI PUSH2 0xFF3 PUSH2 0xD89 JUMP JUMPDEST JUMPDEST PUSH1 0x0 PUSH2 0x1002 DUP5 DUP3 DUP6 ADD PUSH2 0xEFA JUMP JUMPDEST SWAP2 POP POP SWAP3 SWAP2 POP POP JUMP JUMPDEST PUSH1 0x0 PUSH20 0xFFFFFFFFFFFFFFFFFFFFFFFFFFFFFFFFFFFFFFFF DUP3 AND SWAP1 POP SWAP2 SWAP1 POP JUMP JUMPDEST PUSH1 0x0 PUSH2 0x1036 DUP3 PUSH2 0x100B JUMP JUMPDEST SWAP1 POP SWAP2 SWAP1 POP JUMP JUMPDEST PUSH2 0x1046 DUP2 PUSH2 0x102B JUMP JUMPDEST DUP3 MSTORE POP POP JUMP JUMPDEST PUSH1 0x0 DUP2 MLOAD SWAP1 POP SWAP2 SWAP1 POP JUMP JUMPDEST PUSH1 0x0 DUP3 DUP3 MSTORE PUSH1 0x20 DUP3 ADD SWAP1 POP SWAP3 SWAP2 POP POP JUMP JUMPDEST PUSH1 0x0 JUMPDEST DUP4 DUP2 LT ISZERO PUSH2 0x1086 JUMPI DUP1 DUP3 ADD MLOAD DUP2 DUP5 ADD MSTORE PUSH1 0x20 DUP2 ADD SWAP1 POP PUSH2 0x106B JUMP JUMPDEST PUSH1 0x0 DUP5 DUP5 ADD MSTORE POP POP POP POP JUMP JUMPDEST PUSH1 0x0 PUSH2 0x109D DUP3 PUSH2 0x104C JUMP JUMPDEST PUSH2 0x10A7 DUP2 DUP6 PUSH2 0x1057 JUMP JUMPDEST SWAP4 POP PUSH2 0x10B7 DUP2 DUP6 PUSH1 0x20 DUP7 ADD PUSH2 0x1068 JUMP JUMPDEST PUSH2 0x10C0 DUP2 PUSH2 0xD9D JUMP JUMPDEST DUP5 ADD SWAP2 POP POP SWAP3 SWAP2 POP POP JUMP JUMPDEST PUSH2 0x10D4 DUP2 PUSH2 0xED9 JUMP JUMPDEST DUP3 MSTORE POP POP JUMP JUMPDEST PUSH1 0x40 DUP3 ADD PUSH1 0x0 DUP3 ADD MLOAD PUSH2 0x10F0 PUSH1 0x0 DUP6 ADD DUP3 PUSH2 0x10CB JUMP JUMPDEST POP PUSH1 0x20 DUP3 ADD MLOAD PUSH2 0x1103 PUSH1 0x20 DUP6 ADD DUP3 PUSH2 0x10CB JUMP JUMPDEST POP POP POP POP JUMP JUMPDEST PUSH2 0x1112 DUP2 PUSH2 0xED9 JUMP JUMPDEST DUP3 MSTORE POP POP JUMP JUMPDEST PUSH32 0x4E487B7100000000000000000000000000000000000000000000000000000000 PUSH1 0x0 MSTORE PUSH1 0x21 PUSH1 0x4 MSTORE PUSH1 0x24 PUSH1 0x0 REVERT JUMPDEST PUSH1 0x2 DUP2 LT PUSH2 0x1158 JUMPI PUSH2 0x1157 PUSH2 0x1118 JUMP JUMPDEST JUMPDEST POP JUMP JUMPDEST PUSH1 0x0 DUP2 SWAP1 POP PUSH2 0x1169 DUP3 PUSH2 0x1147 JUMP JUMPDEST SWAP2 SWAP1 POP JUMP JUMPDEST PUSH1 0x0 PUSH2 0x1179 DUP3 PUSH2 0x115B JUMP JUMPDEST SWAP1 POP SWAP2 SWAP1 POP JUMP JUMPDEST PUSH2 0x1189 DUP2 PUSH2 0x116E JUMP JUMPDEST DUP3 MSTORE POP POP JUMP JUMPDEST PUSH2 0x1198 DUP2 PUSH2 0x102B JUMP JUMPDEST DUP3 MSTORE POP POP JUMP JUMPDEST PUSH1 0x40 DUP3 ADD PUSH1 0x0 DUP3 ADD MLOAD PUSH2 0x11B4 PUSH1 0x0 DUP6 ADD DUP3 PUSH2 0x1180 JUMP JUMPDEST POP PUSH1 0x20 DUP3 ADD MLOAD PUSH2 0x11C7 PUSH1 0x20 DUP6 ADD DUP3 PUSH2 0x118F JUMP JUMPDEST POP POP POP POP JUMP JUMPDEST PUSH1 0x0 PUSH2 0x140 DUP3 ADD SWAP1 POP PUSH2 0x11E3 PUSH1 0x0 DUP4 ADD DUP12 PUSH2 0x103D JUMP JUMPDEST DUP2 DUP2 SUB PUSH1 0x20 DUP4 ADD MSTORE PUSH2 0x11F5 DUP2 DUP11 PUSH2 0x1092 JUMP JUMPDEST SWAP1 POP DUP2 DUP2 SUB PUSH1 0x40 DUP4 ADD MSTORE PUSH2 0x1209 DUP2 DUP10 PUSH2 0x1092 JUMP JUMPDEST SWAP1 POP DUP2 DUP2 SUB PUSH1 0x60 DUP4 ADD MSTORE PUSH2 0x121D DUP2 DUP9 PUSH2 0x1092 JUMP JUMPDEST SWAP1 POP PUSH2 0x122C PUSH1 0x80 DUP4 ADD DUP8 PUSH2 0x10DA JUMP JUMPDEST PUSH2 0x1239 PUSH1 0xC0 DUP4 ADD DUP7 PUSH2 0x1109 JUMP JUMPDEST PUSH2 0x1246 PUSH1 0xE0 DUP4 ADD DUP6 PUSH2 0x1109 JUMP JUMPDEST PUSH2 0x1254 PUSH2 0x100 DUP4 ADD DUP5 PUSH2 0x119E JUMP JUMPDEST SWAP10 SWAP9 POP POP POP POP POP POP POP POP POP JUMP JUMPDEST PUSH1 0x0 DUP1 REVERT JUMPDEST PUSH1 0x0 PUSH1 0x40 DUP3 DUP5 SUB SLT ISZERO PUSH2 0x127C JUMPI PUSH2 0x127B PUSH2 0x1261 JUMP JUMPDEST JUMPDEST PUSH2 0x1286 PUSH1 0x40 PUSH2 0xE0E JUMP JUMPDEST SWAP1 POP PUSH1 0x0 PUSH2 0x1296 DUP5 DUP3 DUP6 ADD PUSH2 0xEFA JUMP JUMPDEST PUSH1 0x0 DUP4 ADD MSTORE POP PUSH1 0x20 PUSH2 0x12AA DUP5 DUP3 DUP6 ADD PUSH2 0xEFA JUMP JUMPDEST PUSH1 0x20 DUP4 ADD MSTORE POP SWAP3 SWAP2 POP POP JUMP JUMPDEST PUSH1 0x0 DUP1 PUSH1 0x0 PUSH1 0x80 DUP5 DUP7 SUB SLT ISZERO PUSH2 0x12CF JUMPI PUSH2 0x12CE PUSH2 0xD89 JUMP JUMPDEST JUMPDEST PUSH1 0x0 PUSH2 0x12DD DUP7 DUP3 DUP8 ADD PUSH2 0xEFA JUMP JUMPDEST SWAP4 POP POP PUSH1 0x20 PUSH2 0x12EE DUP7 DUP3 DUP8 ADD PUSH2 0xEFA JUMP JUMPDEST SWAP3 POP POP PUSH1 0x40 PUSH2 0x12FF DUP7 DUP3 DUP8 ADD PUSH2 0x1266 JUMP JUMPDEST SWAP2 POP POP SWAP3 POP SWAP3 POP SWAP3 JUMP JUMPDEST PUSH1 0x0 PUSH1 0x20 DUP3 ADD SWAP1 POP PUSH2 0x131E PUSH1 0x0 DUP4 ADD DUP5 PUSH2 0x1109 JUMP JUMPDEST SWAP3 SWAP2 POP POP JUMP JUMPDEST PUSH1 0x0 PUSH1 0x20 DUP3 ADD SWAP1 POP PUSH2 0x1339 PUSH1 0x0 DUP4 ADD DUP5 PUSH2 0x103D JUMP JUMPDEST SWAP3 SWAP2 POP POP JUMP JUMPDEST PUSH2 0x1348 DUP2 PUSH2 0x102B JUMP JUMPDEST DUP2 EQ PUSH2 0x1353 JUMPI PUSH1 0x0 DUP1 REVERT JUMPDEST POP JUMP JUMPDEST PUSH1 0x0 DUP2 CALLDATALOAD SWAP1 POP PUSH2 0x1365 DUP2 PUSH2 0x133F JUMP JUMPDEST SWAP3 SWAP2 POP POP JUMP JUMPDEST PUSH1 0x0 PUSH1 0x20 DUP3 DUP5 SUB SLT ISZERO PUSH2 0x1381 JUMPI PUSH2 0x1380 PUSH2 0xD89 JUMP JUMPDEST JUMPDEST PUSH1 0x0 PUSH2 0x138F DUP5 DUP3 DUP6 ADD PUSH2 0x1356 JUMP JUMPDEST SWAP2 POP POP SWAP3 SWAP2 POP POP JUMP JUMPDEST PUSH32 0x4E487B7100000000000000000000000000000000000000000000000000000000 PUSH1 0x0 MSTORE PUSH1 0x22 PUSH1 0x4 MSTORE PUSH1 0x24 PUSH1 0x0 REVERT JUMPDEST PUSH1 0x0 PUSH1 0x2 DUP3 DIV SWAP1 POP PUSH1 0x1 DUP3 AND DUP1 PUSH2 0x13DF JUMPI PUSH1 0x7F DUP3 AND SWAP2 POP JUMPDEST PUSH1 0x20 DUP3 LT DUP2 SUB PUSH2 0x13F2 JUMPI PUSH2 0x13F1 PUSH2 0x1398 JUMP JUMPDEST JUMPDEST POP SWAP2 SWAP1 POP JUMP JUMPDEST PUSH1 0x0 DUP2 SWAP1 POP DUP2 PUSH1 0x0 MSTORE PUSH1 0x20 PUSH1 0x0 KECCAK256 SWAP1 POP SWAP2 SWAP1 POP JUMP JUMPDEST PUSH1 0x0 PUSH1 0x20 PUSH1 0x1F DUP4 ADD DIV SWAP1 POP SWAP2 SWAP1 POP JUMP JUMPDEST PUSH1 0x0 DUP3 DUP3 SHL SWAP1 POP SWAP3 SWAP2 POP POP JUMP JUMPDEST PUSH1 0x0 PUSH1 0x8 DUP4 MUL PUSH2 0x145A PUSH32 0xFFFFFFFFFFFFFFFFFFFFFFFFFFFFFFFFFFFFFFFFFFFFFFFFFFFFFFFFFFFFFFFF DUP3 PUSH2 0x141D JUMP JUMPDEST PUSH2 0x1464 DUP7 DUP4 PUSH2 0x141D JUMP JUMPDEST SWAP6 POP DUP1 NOT DUP5 AND SWAP4 POP DUP1 DUP7 AND DUP5 OR SWAP3 POP POP POP SWAP4 SWAP3 POP POP POP JUMP JUMPDEST PUSH1 0x0 DUP2 SWAP1 POP SWAP2 SWAP1 POP JUMP JUMPDEST PUSH1 0x0 PUSH2 0x14A1 PUSH2 0x149C PUSH2 0x1497 DUP5 PUSH2 0xED9 JUMP JUMPDEST PUSH2 0x147C JUMP JUMPDEST PUSH2 0xED9 JUMP JUMPDEST SWAP1 POP SWAP2 SWAP1 POP JUMP JUMPDEST PUSH1 0x0 DUP2 SWAP1 POP SWAP2 SWAP1 POP JUMP JUMPDEST PUSH2 0x14BB DUP4 PUSH2 0x1486 JUMP JUMPDEST PUSH2 0x14CF PUSH2 0x14C7 DUP3 PUSH2 0x14A8 JUMP JUMPDEST DUP5 DUP5 SLOAD PUSH2 0x142A JUMP JUMPDEST DUP3 SSTORE POP POP POP POP JUMP JUMPDEST PUSH1 0x0 SWAP1 JUMP JUMPDEST PUSH2 0x14E4 PUSH2 0x14D7 JUMP JUMPDEST PUSH2 0x14EF DUP2 DUP5 DUP5 PUSH2 0x14B2 JUMP JUMPDEST POP POP POP JUMP JUMPDEST JUMPDEST DUP2 DUP2 LT ISZERO PUSH2 0x1513 JUMPI PUSH2 0x1508 PUSH1 0x0 DUP3 PUSH2 0x14DC JUMP JUMPDEST PUSH1 0x1 DUP2 ADD SWAP1 POP PUSH2 0x14F5 JUMP JUMPDEST POP POP JUMP JUMPDEST PUSH1 0x1F DUP3 GT ISZERO PUSH2 0x1558 JUMPI PUSH2 0x1529 DUP2 PUSH2 0x13F8 JUMP JUMPDEST PUSH2 0x1532 DUP5 PUSH2 0x140D JUMP JUMPDEST DUP2 ADD PUSH1 0x20 DUP6 LT ISZERO PUSH2 0x1541 JUMPI DUP2 SWAP1 POP JUMPDEST PUSH2 0x1555 PUSH2 0x154D DUP6 PUSH2 0x140D JUMP JUMPDEST DUP4 ADD DUP3 PUSH2 0x14F4 JUMP JUMPDEST POP POP JUMPDEST POP POP POP JUMP JUMPDEST PUSH1 0x0 DUP3 DUP3 SHR SWAP1 POP SWAP3 SWAP2 POP POP JUMP JUMPDEST PUSH1 0x0 PUSH2 0x157B PUSH1 0x0 NOT DUP5 PUSH1 0x8 MUL PUSH2 0x155D JUMP JUMPDEST NOT DUP1 DUP4 AND SWAP2 POP POP SWAP3 SWAP2 POP POP JUMP JUMPDEST PUSH1 0x0 PUSH2 0x1594 DUP4 DUP4 PUSH2 0x156A JUMP JUMPDEST SWAP2 POP DUP3 PUSH1 0x2 MUL DUP3 OR SWAP1 POP SWAP3 SWAP2 POP POP JUMP JUMPDEST PUSH2 0x15AD DUP3 PUSH2 0x104C JUMP JUMPDEST PUSH8 0xFFFFFFFFFFFFFFFF DUP2 GT ISZERO PUSH2 0x15C6 JUMPI PUSH2 0x15C5 PUSH2 0xDAE JUMP JUMPDEST JUMPDEST PUSH2 0x15D0 DUP3 SLOAD PUSH2 0x13C7 JUMP JUMPDEST PUSH2 0x15DB DUP3 DUP3 DUP6 PUSH2 0x1517 JUMP JUMPDEST PUSH1 0x0 PUSH1 0x20 SWAP1 POP PUSH1 0x1F DUP4 GT PUSH1 0x1 DUP2 EQ PUSH2 0x160E JUMPI PUSH1 0x0 DUP5 ISZERO PUSH2 0x15FC JUMPI DUP3 DUP8 ADD MLOAD SWAP1 POP JUMPDEST PUSH2 0x1606 DUP6 DUP3 PUSH2 0x1588 JUMP JUMPDEST DUP7 SSTORE POP PUSH2 0x166E JUMP JUMPDEST PUSH1 0x1F NOT DUP5 AND PUSH2 0x161C DUP7 PUSH2 0x13F8 JUMP JUMPDEST PUSH1 0x0 JUMPDEST DUP3 DUP2 LT ISZERO PUSH2 0x1644 JUMPI DUP5 DUP10 ADD MLOAD DUP3 SSTORE PUSH1 0x1 DUP3 ADD SWAP2 POP PUSH1 0x20 DUP6 ADD SWAP5 POP PUSH1 0x20 DUP2 ADD SWAP1 POP PUSH2 0x161F JUMP JUMPDEST DUP7 DUP4 LT ISZERO PUSH2 0x1661 JUMPI DUP5 DUP10 ADD MLOAD PUSH2 0x165D PUSH1 0x1F DUP10 AND DUP3 PUSH2 0x156A JUMP JUMPDEST DUP4 SSTORE POP JUMPDEST PUSH1 0x1 PUSH1 0x2 DUP9 MUL ADD DUP9 SSTORE POP POP POP JUMPDEST POP POP POP POP POP POP JUMP JUMPDEST PUSH32 0x4E487B7100000000000000000000000000000000000000000000000000000000 PUSH1 0x0 MSTORE PUSH1 0x11 PUSH1 0x4 MSTORE PUSH1 0x24 PUSH1 0x0 REVERT JUMPDEST PUSH1 0x0 PUSH2 0x16B0 DUP3 PUSH2 0xED9 JUMP JUMPDEST SWAP2 POP PUSH32 0xFFFFFFFFFFFFFFFFFFFFFFFFFFFFFFFFFFFFFFFFFFFFFFFFFFFFFFFFFFFFFFFF DUP3 SUB PUSH2 0x16E2 JUMPI PUSH2 0x16E1 PUSH2 0x1676 JUMP JUMPDEST JUMPDEST PUSH1 0x1 DUP3 ADD SWAP1 POP SWAP2 SWAP1 POP JUMP JUMPDEST PUSH1 0x0 PUSH1 0xC0 DUP3 ADD SWAP1 POP DUP2 DUP2 SUB PUSH1 0x0 DUP4 ADD MSTORE PUSH2 0x1707 DUP2 DUP10 PUSH2 0x1092 JUMP JUMPDEST SWAP1 POP DUP2 DUP2 SUB PUSH1 0x20 DUP4 ADD MSTORE PUSH2 0x171B DUP2 DUP9 PUSH2 0x1092 JUMP JUMPDEST SWAP1 POP DUP2 DUP2 SUB PUSH1 0x40 DUP4 ADD MSTORE PUSH2 0x172F DUP2 DUP8 PUSH2 0x1092 JUMP JUMPDEST SWAP1 POP PUSH2 0x173E PUSH1 0x60 DUP4 ADD DUP7 PUSH2 0x1109 JUMP JUMPDEST PUSH2 0x174B PUSH1 0x80 DUP4 ADD DUP6 PUSH2 0x1109 JUMP JUMPDEST PUSH2 0x1758 PUSH1 0xA0 DUP4 ADD DUP5 PUSH2 0x1109 JUMP JUMPDEST SWAP8 SWAP7 POP POP POP POP POP POP POP JUMP JUMPDEST PUSH1 0x0 PUSH2 0x176E DUP3 PUSH2 0xED9 JUMP JUMPDEST SWAP2 POP PUSH2 0x1779 DUP4 PUSH2 0xED9 JUMP JUMPDEST SWAP3 POP DUP3 DUP3 SUB SWAP1 POP DUP2 DUP2 GT ISZERO PUSH2 0x1791 JUMPI PUSH2 0x1790 PUSH2 0x1676 JUMP JUMPDEST JUMPDEST SWAP3 SWAP2 POP POP JUMP JUMPDEST PUSH1 0x0 PUSH2 0x17A2 DUP3 PUSH2 0xED9 JUMP JUMPDEST SWAP2 POP PUSH2 0x17AD DUP4 PUSH2 0xED9 JUMP JUMPDEST SWAP3 POP DUP3 DUP3 ADD SWAP1 POP DUP1 DUP3 GT ISZERO PUSH2 0x17C5 JUMPI PUSH2 0x17C4 PUSH2 0x1676 JUMP JUMPDEST JUMPDEST SWAP3 SWAP2 POP POP JUMP JUMPDEST PUSH1 0x0 DUP2 SWAP1 POP SWAP3 SWAP2 POP POP JUMP JUMPDEST POP JUMP JUMPDEST PUSH1 0x0 PUSH2 0x17E6 PUSH1 0x0 DUP4 PUSH2 0x17CB JUMP JUMPDEST SWAP2 POP PUSH2 0x17F1 DUP3 PUSH2 0x17D6 JUMP JUMPDEST PUSH1 0x0 DUP3 ADD SWAP1 POP SWAP2 SWAP1 POP JUMP JUMPDEST PUSH1 0x0 PUSH2 0x1807 DUP3 PUSH2 0x17D9 JUMP JUMPDEST SWAP2 POP DUP2 SWAP1 POP SWAP2 SWAP1 POP JUMP JUMPDEST PUSH1 0x0 PUSH1 0x40 DUP3 ADD SWAP1 POP PUSH2 0x1826 PUSH1 0x0 DUP4 ADD DUP6 PUSH2 0x103D JUMP JUMPDEST PUSH2 0x1833 PUSH1 0x20 DUP4 ADD DUP5 PUSH2 0x1109 JUMP JUMPDEST SWAP4 SWAP3 POP POP POP JUMP JUMPDEST PUSH1 0x0 PUSH1 0x60 DUP3 ADD SWAP1 POP PUSH2 0x184F PUSH1 0x0 DUP4 ADD DUP7 PUSH2 0x1109 JUMP JUMPDEST PUSH2 0x185C PUSH1 0x20 DUP4 ADD DUP6 PUSH2 0x1109 JUMP JUMPDEST PUSH2 0x1869 PUSH1 0x40 DUP4 ADD DUP5 PUSH2 0x1109 JUMP JUMPDEST SWAP5 SWAP4 POP POP POP POP JUMP JUMPDEST PUSH32 0x4F776E61626C653A206E6577206F776E657220697320746865207A65726F2061 PUSH1 0x0 DUP3 ADD MSTORE PUSH32 0x6464726573730000000000000000000000000000000000000000000000000000 PUSH1 0x20 DUP3 ADD MSTORE POP JUMP JUMPDEST PUSH1 0x0 PUSH2 0x18CD PUSH1 0x26 DUP4 PUSH2 0x1057 JUMP JUMPDEST SWAP2 POP PUSH2 0x18D8 DUP3 PUSH2 0x1871 JUMP JUMPDEST PUSH1 0x40 DUP3 ADD SWAP1 POP SWAP2 SWAP1 POP JUMP JUMPDEST PUSH1 0x0 PUSH1 0x20 DUP3 ADD SWAP1 POP DUP2 DUP2 SUB PUSH1 0x0 DUP4 ADD MSTORE PUSH2 0x18FC DUP2 PUSH2 0x18C0 JUMP JUMPDEST SWAP1 POP SWAP2 SWAP1 POP JUMP JUMPDEST PUSH32 0x5265656E7472616E637947756172643A207265656E7472616E742063616C6C00 PUSH1 0x0 DUP3 ADD MSTORE POP JUMP JUMPDEST PUSH1 0x0 PUSH2 0x1939 PUSH1 0x1F DUP4 PUSH2 0x1057 JUMP JUMPDEST SWAP2 POP PUSH2 0x1944 DUP3 PUSH2 0x1903 JUMP JUMPDEST PUSH1 0x20 DUP3 ADD SWAP1 POP SWAP2 SWAP1 POP JUMP JUMPDEST PUSH1 0x0 PUSH1 0x20 DUP3 ADD SWAP1 POP DUP2 DUP2 SUB PUSH1 0x0 DUP4 ADD MSTORE PUSH2 0x1968 DUP2 PUSH2 0x192C JUMP JUMPDEST SWAP1 POP SWAP2 SWAP1 POP JUMP JUMPDEST PUSH1 0x0 PUSH2 0x197A DUP3 PUSH2 0xED9 JUMP JUMPDEST SWAP2 POP PUSH2 0x1985 DUP4 PUSH2 0xED9 JUMP JUMPDEST SWAP3 POP DUP3 DUP3 MUL PUSH2 0x1993 DUP2 PUSH2 0xED9 JUMP JUMPDEST SWAP2 POP DUP3 DUP3 DIV DUP5 EQ DUP4 ISZERO OR PUSH2 0x19AA JUMPI PUSH2 0x19A9 PUSH2 0x1676 JUMP JUMPDEST JUMPDEST POP SWAP3 SWAP2 POP POP JUMP JUMPDEST PUSH32 0x4F776E61626C653A2063616C6C6572206973206E6F7420746865206F776E6572 PUSH1 0x0 DUP3 ADD MSTORE POP JUMP JUMPDEST PUSH1 0x0 PUSH2 0x19E7 PUSH1 0x20 DUP4 PUSH2 0x1057 JUMP JUMPDEST SWAP2 POP PUSH2 0x19F2 DUP3 PUSH2 0x19B1 JUMP JUMPDEST PUSH1 0x20 DUP3 ADD SWAP1 POP SWAP2 SWAP1 POP JUMP JUMPDEST PUSH1 0x0 PUSH1 0x20 DUP3 ADD SWAP1 POP DUP2 DUP2 SUB PUSH1 0x0 DUP4 ADD MSTORE PUSH2 0x1A16 DUP2 PUSH2 0x19DA JUMP JUMPDEST SWAP1 POP SWAP2 SWAP1 POP JUMP INVALID LOG2 PUSH5 0x6970667358 0x22 SLT KECCAK256 SELFDESTRUCT 0xD SELFDESTRUCT SWAP3 SIGNEXTEND SWAP9 PUSH22 0x9644B9B1CE9CA7335733F9E79C619737FCFD5F85B9C1 0xB1 0xDE PUSH31 0x64736F6C634300081200330000000000000000000000000000000000000000 "},"methodIdentifiers":{"backendAdmin()":"d070e40c","campaignCount()":"7274e30d","campaigns(uint256)":"141961bc","claimRewardNative(uint256,uint256,(uint256,uint256))":"35161220","createCampaignNative(string,string,string,uint256,uint256)":"11c1caaf","owner()":"8da5cb5b","renounceOwnership()":"715018a6","transferOwnership(address)":"f2fde38b"}}}}}