{
  "_format": "hh-sol-artifact-1",
  "contractName": "CampaignManager",
  "sourceName": "contracts/CampaignManager.sol",
  "abi": [
    {
      "inputs": [
        {
          "internalType": "address",
          "name": "_backendAdmin",
          "type": "address"
        }
      ],
      "stateMutability": "nonpayable",
      "type": "constructor"
    },
    {
      "inputs": [],
      "name": "CampaignDoesNotExist",
      "type": "error"
    },
    {
      "inputs": [
        {
          "internalType": "address",
          "name": "participant",
          "type": "address"
        },
        {
          "internalType": "uint256",
          "name": "amount",
          "type": "uint256"
        }
      ],
      "name": "FailedToSendRewards",
      "type": "error"
    },
    {
      "inputs": [],
      "name": "NoRewardToClaim",
      "type": "error"
    },
    {
      "inputs": [],
      "name": "NotEnoughRewardsLeft",
      "type": "error"
    },
    {
      "inputs": [],
      "name": "OnlyBackendAdmin",
      "type": "error"
    },
    {
      "inputs": [],
      "name": "OnlyCampaignOwner",
      "type": "error"
    },
    {
      "inputs": [],
      "name": "ZeroAmount",
      "type": "error"
    },
    {
      "anonymous": false,
      "inputs": [
        {
          "indexed": true,
          "internalType": "uint256",
          "name": "campaignId",
          "type": "uint256"
        },
        {
          "indexed": true,
          "internalType": "address",
          "name": "owner",
          "type": "address"
        },
        {
          "indexed": false,
          "internalType": "string",
          "name": "name",
          "type": "string"
        },
        {
          "indexed": false,
          "internalType": "string",
          "name": "description",
          "type": "string"
        },
        {
          "indexed": false,
          "internalType": "string",
          "name": "tweetString",
          "type": "string"
        },
        {
          "indexed": false,
          "internalType": "uint256",
          "name": "tokensPerLike",
          "type": "uint256"
        },
        {
          "indexed": false,
          "internalType": "uint256",
          "name": "tokensPerRetweet",
          "type": "uint256"
        },
        {
          "indexed": false,
          "internalType": "uint256",
          "name": "rewardsLeft",
          "type": "uint256"
        },
        {
          "indexed": false,
          "internalType": "uint256",
          "name": "creatorTwitterUserId",
          "type": "uint256"
        }
      ],
      "name": "CampaignCreated",
      "type": "event"
    },
    {
      "anonymous": false,
      "inputs": [
        {
          "indexed": true,
          "internalType": "address",
          "name": "previousOwner",
          "type": "address"
        },
        {
          "indexed": true,
          "internalType": "address",
          "name": "newOwner",
          "type": "address"
        }
      ],
      "name": "OwnershipTransferred",
      "type": "event"
    },
    {
      "anonymous": false,
      "inputs": [
        {
          "indexed": true,
          "internalType": "uint256",
          "name": "campaignId",
          "type": "uint256"
        },
        {
          "indexed": true,
          "internalType": "address",
          "name": "wallet",
          "type": "address"
        },
        {
          "indexed": false,
          "internalType": "uint256",
          "name": "tweetId",
          "type": "uint256"
        },
        {
          "indexed": false,
          "internalType": "uint256",
          "name": "tokensRewarded",
          "type": "uint256"
        },
        {
          "indexed": false,
          "internalType": "uint256",
          "name": "likesRewarded",
          "type": "uint256"
        },
        {
          "indexed": false,
          "internalType": "uint256",
          "name": "retweetsRewarded",
          "type": "uint256"
        }
      ],
      "name": "RewardClaimed",
      "type": "event"
    },
    {
      "inputs": [],
      "name": "backendAdmin",
      "outputs": [
        {
          "internalType": "address",
          "name": "",
          "type": "address"
        }
      ],
      "stateMutability": "view",
      "type": "function"
    },
    {
      "inputs": [
        {
          "components": [
            {
              "internalType": "uint256",
              "name": "likes",
              "type": "uint256"
            },
            {
              "internalType": "uint256",
              "name": "retweets",
              "type": "uint256"
            }
          ],
          "internalType": "struct CampaignManager.TweetInfo",
          "name": "_lastTweet",
          "type": "tuple"
        },
        {
          "components": [
            {
              "internalType": "uint256",
              "name": "likes",
              "type": "uint256"
            },
            {
              "internalType": "uint256",
              "name": "retweets",
              "type": "uint256"
            }
          ],
          "internalType": "struct CampaignManager.TweetInfo",
          "name": "_currentTweet",
          "type": "tuple"
        },
        {
          "components": [
            {
              "internalType": "uint256",
              "name": "tokensPerLike",
              "type": "uint256"
            },
            {
              "internalType": "uint256",
              "name": "tokensPerRetweet",
              "type": "uint256"
            }
          ],
          "internalType": "struct CampaignManager.TweetRewardStats",
          "name": "_tweetRewardStats",
          "type": "tuple"
        }
      ],
      "name": "calculateRewards",
      "outputs": [
        {
          "internalType": "uint256",
          "name": "tokensRewarded",
          "type": "uint256"
        },
        {
          "internalType": "uint256",
          "name": "likesRewarded",
          "type": "uint256"
        },
        {
          "internalType": "uint256",
          "name": "retweetsRewarded",
          "type": "uint256"
        }
      ],
      "stateMutability": "pure",
      "type": "function"
    },
    {
      "inputs": [],
      "name": "campaignCount",
      "outputs": [
        {
          "internalType": "uint256",
          "name": "",
          "type": "uint256"
        }
      ],
      "stateMutability": "view",
      "type": "function"
    },
    {
      "inputs": [
        {
          "internalType": "uint256",
          "name": "",
          "type": "uint256"
        }
      ],
      "name": "campaigns",
      "outputs": [
        {
          "components": [
            {
              "internalType": "address",
              "name": "owner",
              "type": "address"
            },
            {
              "internalType": "uint256",
              "name": "twitterUserId",
              "type": "uint256"
            }
          ],
          "internalType": "struct CampaignManager.CampaignOwnerInfo",
          "name": "ownerInfo",
          "type": "tuple"
        },
        {
          "internalType": "string",
          "name": "name",
          "type": "string"
        },
        {
          "internalType": "string",
          "name": "description",
          "type": "string"
        },
        {
          "internalType": "string",
          "name": "tweetString",
          "type": "string"
        },
        {
          "components": [
            {
              "internalType": "uint256",
              "name": "tokensPerLike",
              "type": "uint256"
            },
            {
              "internalType": "uint256",
              "name": "tokensPerRetweet",
              "type": "uint256"
            }
          ],
          "internalType": "struct CampaignManager.TweetRewardStats",
          "name": "tweetRewardStats",
          "type": "tuple"
        },
        {
          "internalType": "uint256",
          "name": "rewardsLeft",
          "type": "uint256"
        },
        {
          "internalType": "uint256",
          "name": "totalRewardsGiven",
          "type": "uint256"
        },
        {
          "components": [
            {
              "internalType": "enum CampaignManager.RewardType",
              "name": "rewardType",
              "type": "uint8"
            },
            {
              "internalType": "address",
              "name": "tokenAddress",
              "type": "address"
            }
          ],
          "internalType": "struct CampaignManager.RewardToken",
          "name": "rewardToken",
          "type": "tuple"
        }
      ],
      "stateMutability": "view",
      "type": "function"
    },
    {
      "inputs": [
        {
          "internalType": "address",
          "name": "participant",
          "type": "address"
        },
        {
          "internalType": "uint256",
          "name": "_campaignId",
          "type": "uint256"
        },
        {
          "internalType": "uint256",
          "name": "_tweetId",
          "type": "uint256"
        },
        {
          "components": [
            {
              "internalType": "uint256",
              "name": "likes",
              "type": "uint256"
            },
            {
              "internalType": "uint256",
              "name": "retweets",
              "type": "uint256"
            }
          ],
          "internalType": "struct CampaignManager.TweetInfo",
          "name": "_currentTweetInfo",
          "type": "tuple"
        }
      ],
      "name": "claimRewardNativeTo",
      "outputs": [],
      "stateMutability": "nonpayable",
      "type": "function"
    },
    {
      "inputs": [
        {
          "internalType": "string",
          "name": "_name",
          "type": "string"
        },
        {
          "internalType": "string",
          "name": "_description",
          "type": "string"
        },
        {
          "internalType": "string",
          "name": "_tweetString",
          "type": "string"
        },
        {
          "internalType": "uint256",
          "name": "_tokensPerLike",
          "type": "uint256"
        },
        {
          "internalType": "uint256",
          "name": "_tokensPerRetweet",
          "type": "uint256"
        },
        {
          "internalType": "uint256",
          "name": "_ownerTwitterUserId",
          "type": "uint256"
        }
      ],
      "name": "createCampaignNative",
      "outputs": [
        {
          "internalType": "uint256",
          "name": "",
          "type": "uint256"
        }
      ],
      "stateMutability": "payable",
      "type": "function"
    },
    {
      "inputs": [
        {
          "internalType": "uint256",
          "name": "_campaignId",
          "type": "uint256"
        }
      ],
      "name": "getCampaignInfo",
      "outputs": [
        {
          "components": [
            {
              "components": [
                {
                  "internalType": "address",
                  "name": "owner",
                  "type": "address"
                },
                {
                  "internalType": "uint256",
                  "name": "twitterUserId",
                  "type": "uint256"
                }
              ],
              "internalType": "struct CampaignManager.CampaignOwnerInfo",
              "name": "ownerInfo",
              "type": "tuple"
            },
            {
              "internalType": "string",
              "name": "name",
              "type": "string"
            },
            {
              "internalType": "string",
              "name": "description",
              "type": "string"
            },
            {
              "internalType": "string",
              "name": "tweetString",
              "type": "string"
            },
            {
              "components": [
                {
                  "internalType": "uint256",
                  "name": "tokensPerLike",
                  "type": "uint256"
                },
                {
                  "internalType": "uint256",
                  "name": "tokensPerRetweet",
                  "type": "uint256"
                }
              ],
              "internalType": "struct CampaignManager.TweetRewardStats",
              "name": "tweetRewardStats",
              "type": "tuple"
            },
            {
              "internalType": "uint256",
              "name": "rewardsLeft",
              "type": "uint256"
            },
            {
              "internalType": "uint256",
              "name": "totalRewardsGiven",
              "type": "uint256"
            },
            {
              "components": [
                {
                  "internalType": "enum CampaignManager.RewardType",
                  "name": "rewardType",
                  "type": "uint8"
                },
                {
                  "internalType": "address",
                  "name": "tokenAddress",
                  "type": "address"
                }
              ],
              "internalType": "struct CampaignManager.RewardToken",
              "name": "rewardToken",
              "type": "tuple"
            }
          ],
          "internalType": "struct CampaignManager.Campaign",
          "name": "",
          "type": "tuple"
        }
      ],
      "stateMutability": "view",
      "type": "function"
    },
    {
      "inputs": [
        {
          "internalType": "uint256",
          "name": "",
          "type": "uint256"
        },
        {
          "internalType": "uint256",
          "name": "",
          "type": "uint256"
        }
      ],
      "name": "lastTweetInfoRewarded",
      "outputs": [
        {
          "internalType": "uint256",
          "name": "likes",
          "type": "uint256"
        },
        {
          "internalType": "uint256",
          "name": "retweets",
          "type": "uint256"
        }
      ],
      "stateMutability": "view",
      "type": "function"
    },
    {
      "inputs": [],
      "name": "owner",
      "outputs": [
        {
          "internalType": "address",
          "name": "",
          "type": "address"
        }
      ],
      "stateMutability": "view",
      "type": "function"
    },
    {
      "inputs": [],
      "name": "renounceOwnership",
      "outputs": [],
      "stateMutability": "nonpayable",
      "type": "function"
    },
    {
      "inputs": [
        {
          "internalType": "uint256",
          "name": "",
          "type": "uint256"
        },
        {
          "internalType": "address",
          "name": "",
          "type": "address"
        }
      ],
      "name": "rewardsGiven",
      "outputs": [
        {
          "internalType": "uint256",
          "name": "",
          "type": "uint256"
        }
      ],
      "stateMutability": "view",
      "type": "function"
    },
    {
      "inputs": [
        {
          "internalType": "address",
          "name": "newOwner",
          "type": "address"
        }
      ],
      "name": "transferOwnership",
      "outputs": [],
      "stateMutability": "nonpayable",
      "type": "function"
    },
    {
      "inputs": [],
      "name": "withdraw",
      "outputs": [],
      "stateMutability": "nonpayable",
      "type": "function"
    },
    {
      "inputs": [
        {
          "internalType": "uint256",
          "name": "_campaignId",
          "type": "uint256"
        }
      ],
      "name": "withdrawCampaignFunds",
      "outputs": [],
      "stateMutability": "nonpayable",
      "type": "function"
    }
  ],
  "bytecode": "0x60806040523480156200001157600080fd5b506040516200295f3803806200295f8339818101604052810190620000379190620001dc565b620000576200004b620000a660201b60201c565b620000ae60201b60201c565b6001808190555080600660006101000a81548173ffffffffffffffffffffffffffffffffffffffff021916908373ffffffffffffffffffffffffffffffffffffffff160217905550506200020e565b600033905090565b60008060009054906101000a900473ffffffffffffffffffffffffffffffffffffffff169050816000806101000a81548173ffffffffffffffffffffffffffffffffffffffff021916908373ffffffffffffffffffffffffffffffffffffffff1602179055508173ffffffffffffffffffffffffffffffffffffffff168173ffffffffffffffffffffffffffffffffffffffff167f8be0079c531659141344cd1fd0a4f28419497f9722a3daafe3b4186f6b6457e060405160405180910390a35050565b600080fd5b600073ffffffffffffffffffffffffffffffffffffffff82169050919050565b6000620001a48262000177565b9050919050565b620001b68162000197565b8114620001c257600080fd5b50565b600081519050620001d681620001ab565b92915050565b600060208284031215620001f557620001f462000172565b5b60006200020584828501620001c5565b91505092915050565b612741806200021e6000396000f3fe6080604052600436106100dd5760003560e01c80638da5cb5b1161007f578063ae75837711610059578063ae758377146102b6578063d070e40c146102e6578063e38e2b8214610311578063f2fde38b1461034e576100dd565b80638da5cb5b1461020e5780639a969d9e14610239578063a949c74e14610277576100dd565b8063427f9bfb116100bb578063427f9bfb14610166578063715018a61461018f5780637274e30d146101a65780637d1e91cd146101d1576100dd565b806314169e2a146100e2578063141961bc1461010b5780633ccfd60b1461014f575b600080fd5b3480156100ee57600080fd5b5061010960048036038101906101049190611709565b610377565b005b34801561011757600080fd5b50610132600480360381019061012d9190611709565b610509565b604051610146989796959493929190611929565b60405180910390f35b34801561015b57600080fd5b5061016461080c565b005b34801561017257600080fd5b5061018d60048036038101906101889190611aba565b6108d5565b005b34801561019b57600080fd5b506101a4610c86565b005b3480156101b257600080fd5b506101bb610c9a565b6040516101c89190611b21565b60405180910390f35b3480156101dd57600080fd5b506101f860048036038101906101f39190611b3c565b610ca0565b6040516102059190611b21565b60405180910390f35b34801561021a57600080fd5b50610223610cc5565b6040516102309190611b8b565b60405180910390f35b34801561024557600080fd5b50610260600480360381019061025b9190611ba6565b610cee565b60405161026e929190611be6565b60405180910390f35b34801561028357600080fd5b5061029e60048036038101906102999190611c5f565b610d1f565b6040516102ad93929190611cb2565b60405180910390f35b6102d060048036038101906102cb9190611da3565b610e0c565b6040516102dd9190611b21565b60405180910390f35b3480156102f257600080fd5b506102fb61101a565b6040516103089190611b8b565b60405180910390f35b34801561031d57600080fd5b5061033860048036038101906103339190611709565b611040565b604051610345919061201b565b60405180910390f35b34801561035a57600080fd5b506103756004803603810190610370919061203d565b6113b7565b005b806004600082815260200190815260200160002060000160000160009054906101000a900473ffffffffffffffffffffffffffffffffffffffff1673ffffffffffffffffffffffffffffffffffffffff163373ffffffffffffffffffffffffffffffffffffffff1614610416576040517f694a8e2200000000000000000000000000000000000000000000000000000000815260040160405180910390fd5b81600554811115610453576040517f9b35ed3b00000000000000000000000000000000000000000000000000000000815260040160405180910390fd5b60003373ffffffffffffffffffffffffffffffffffffffff16476040516104799061209b565b60006040518083038185875af1925050503d80600081146104b6576040519150601f19603f3d011682016040523d82523d6000602084013e6104bb565b606091505b50509050806105035733476040517f864e4ff40000000000000000000000000000000000000000000000000000000081526004016104fa9291906120b0565b60405180910390fd5b50505050565b6004602052806000526040600020600091509050806000016040518060400160405290816000820160009054906101000a900473ffffffffffffffffffffffffffffffffffffffff1673ffffffffffffffffffffffffffffffffffffffff1673ffffffffffffffffffffffffffffffffffffffff1681526020016001820154815250509080600201805461059c90612108565b80601f01602080910402602001604051908101604052809291908181526020018280546105c890612108565b80156106155780601f106105ea57610100808354040283529160200191610615565b820191906000526020600020905b8154815290600101906020018083116105f857829003601f168201915b50505050509080600301805461062a90612108565b80601f016020809104026020016040519081016040528092919081815260200182805461065690612108565b80156106a35780601f10610678576101008083540402835291602001916106a3565b820191906000526020600020905b81548152906001019060200180831161068657829003601f168201915b5050505050908060040180546106b890612108565b80601f01602080910402602001604051908101604052809291908181526020018280546106e490612108565b80156107315780601f1061070657610100808354040283529160200191610731565b820191906000526020600020905b81548152906001019060200180831161071457829003601f168201915b505050505090806005016040518060400160405290816000820154815260200160018201548152505090806007015490806008015490806009016040518060400160405290816000820160009054906101000a900460ff16600181111561079b5761079a611883565b5b60018111156107ad576107ac611883565b5b81526020016000820160019054906101000a900473ffffffffffffffffffffffffffffffffffffffff1673ffffffffffffffffffffffffffffffffffffffff1673ffffffffffffffffffffffffffffffffffffffff1681525050905088565b61081461143a565b600061081e610cc5565b73ffffffffffffffffffffffffffffffffffffffff16476040516108419061209b565b60006040518083038185875af1925050503d806000811461087e576040519150601f19603f3d011682016040523d82523d6000602084013e610883565b606091505b50509050806108d257610894610cc5565b476040517f864e4ff40000000000000000000000000000000000000000000000000000000081526004016108c99291906120b0565b60405180910390fd5b50565b6108dd6114b8565b600660009054906101000a900473ffffffffffffffffffffffffffffffffffffffff1673ffffffffffffffffffffffffffffffffffffffff163373ffffffffffffffffffffffffffffffffffffffff1614610964576040517f58239da100000000000000000000000000000000000000000000000000000000815260040160405180910390fd5b826005548111156109a1576040517f9b35ed3b00000000000000000000000000000000000000000000000000000000815260040160405180910390fd5b60006004600086815260200190815260200160002090506000806000610a2c600360008a8152602001908152602001600020600089815260200190815260200160002060405180604001604052908160008201548152602001600182015481525050878660050160405180604001604052908160008201548152602001600182015481525050610d1f565b9250925092508360070154831115610a70576040517f056a69e100000000000000000000000000000000000000000000000000000000815260040160405180910390fd5b82846007016000828254610a849190612168565b9250508190555082846008016000828254610a9f919061219c565b925050819055508560000151600360008a81526020019081526020016000206000898152602001908152602001600020600001819055508560200151600360008a815260200190815260200160002060008981526020019081526020016000206001018190555082600260008a815260200190815260200160002060008b73ffffffffffffffffffffffffffffffffffffffff1673ffffffffffffffffffffffffffffffffffffffff1681526020019081526020016000206000828254610b66919061219c565b9250508190555060008973ffffffffffffffffffffffffffffffffffffffff1684604051610b939061209b565b60006040518083038185875af1925050503d8060008114610bd0576040519150601f19603f3d011682016040523d82523d6000602084013e610bd5565b606091505b5050905080610c1d5789846040517f864e4ff4000000000000000000000000000000000000000000000000000000008152600401610c149291906120b0565b60405180910390fd5b8973ffffffffffffffffffffffffffffffffffffffff16897f1cafd5d808f4a393e0f07cc5e01faee87efa08214cc3f1af8b85b16165f34d638a878787604051610c6a94939291906121d0565b60405180910390a3505050505050610c80611507565b50505050565b610c8e61143a565b610c986000611510565b565b60055481565b6002602052816000526040600020602052806000526040600020600091509150505481565b60008060009054906101000a900473ffffffffffffffffffffffffffffffffffffffff16905090565b6003602052816000526040600020602052806000526040600020600091509150508060000154908060010154905082565b6000806000808660000151905060008760200151905060008760000151905060008860200151905081841015610d5e578382610d5b9190612168565b95505b80831015610d75578281610d729190612168565b94505b600086148015610d855750600085145b15610dbc576040517f5aa9184d00000000000000000000000000000000000000000000000000000000815260040160405180910390fd5b6000861115610dd857876000015186610dd59190612215565b96505b6000851115610dff57876020015185610df19190612215565b87610dfc919061219c565b96505b5050505093509350939050565b6000610e166114b8565b3460008103610e51576040517f1f2a200500000000000000000000000000000000000000000000000000000000815260040160405180910390fd5b60056000815480929190610e6490612257565b91905055506000600460006005548152602001908152602001600020905060405180604001604052803373ffffffffffffffffffffffffffffffffffffffff168152602001858152508160000160008201518160000160006101000a81548173ffffffffffffffffffffffffffffffffffffffff021916908373ffffffffffffffffffffffffffffffffffffffff1602179055506020820151816001015590505088816002019081610f16919061244b565b5087816003019081610f28919061244b565b5086816004019081610f3a919061244b565b5060405180604001604052808781526020018681525081600501600082015181600001556020820151816001015590505034816007018190555060008160090160000160006101000a81548160ff02191690836001811115610f9f57610f9e611883565b5b0217905550503373ffffffffffffffffffffffffffffffffffffffff166005547fbd1e50005b1b316acde2c4f306ca108e3f313d25934784bd96b7d988ceecae808a8a8a8a8a348b604051610ffa979695949392919061251d565b60405180910390a3600554915050611010611507565b9695505050505050565b600660009054906101000a900473ffffffffffffffffffffffffffffffffffffffff1681565b6110486115dc565b81600554811115611085576040517f9b35ed3b00000000000000000000000000000000000000000000000000000000815260040160405180910390fd5b6004600084815260200190815260200160002060405180610100016040529081600082016040518060400160405290816000820160009054906101000a900473ffffffffffffffffffffffffffffffffffffffff1673ffffffffffffffffffffffffffffffffffffffff1673ffffffffffffffffffffffffffffffffffffffff168152602001600182015481525050815260200160028201805461112890612108565b80601f016020809104026020016040519081016040528092919081815260200182805461115490612108565b80156111a15780601f10611176576101008083540402835291602001916111a1565b820191906000526020600020905b81548152906001019060200180831161118457829003601f168201915b505050505081526020016003820180546111ba90612108565b80601f01602080910402602001604051908101604052809291908181526020018280546111e690612108565b80156112335780601f1061120857610100808354040283529160200191611233565b820191906000526020600020905b81548152906001019060200180831161121657829003601f168201915b5050505050815260200160048201805461124c90612108565b80601f016020809104026020016040519081016040528092919081815260200182805461127890612108565b80156112c55780601f1061129a576101008083540402835291602001916112c5565b820191906000526020600020905b8154815290600101906020018083116112a857829003601f168201915b50505050508152602001600582016040518060400160405290816000820154815260200160018201548152505081526020016007820154815260200160088201548152602001600982016040518060400160405290816000820160009054906101000a900460ff16600181111561133f5761133e611883565b5b600181111561135157611350611883565b5b81526020016000820160019054906101000a900473ffffffffffffffffffffffffffffffffffffffff1673ffffffffffffffffffffffffffffffffffffffff1673ffffffffffffffffffffffffffffffffffffffff168152505081525050915050919050565b6113bf61143a565b600073ffffffffffffffffffffffffffffffffffffffff168173ffffffffffffffffffffffffffffffffffffffff160361142e576040517f08c379a000000000000000000000000000000000000000000000000000000000815260040161142590612613565b60405180910390fd5b61143781611510565b50565b6114426115d4565b73ffffffffffffffffffffffffffffffffffffffff16611460610cc5565b73ffffffffffffffffffffffffffffffffffffffff16146114b6576040517f08c379a00000000000000000000000000000000000000000000000000000000081526004016114ad9061267f565b60405180910390fd5b565b6002600154036114fd576040517f08c379a00000000000000000000000000000000000000000000000000000000081526004016114f4906126eb565b60405180910390fd5b6002600181905550565b60018081905550565b60008060009054906101000a900473ffffffffffffffffffffffffffffffffffffffff169050816000806101000a81548173ffffffffffffffffffffffffffffffffffffffff021916908373ffffffffffffffffffffffffffffffffffffffff1602179055508173ffffffffffffffffffffffffffffffffffffffff168173ffffffffffffffffffffffffffffffffffffffff167f8be0079c531659141344cd1fd0a4f28419497f9722a3daafe3b4186f6b6457e060405160405180910390a35050565b600033905090565b6040518061010001604052806115f0611633565b8152602001606081526020016060815260200160608152602001611612611663565b8152602001600081526020016000815260200161162d61167d565b81525090565b6040518060400160405280600073ffffffffffffffffffffffffffffffffffffffff168152602001600081525090565b604051806040016040528060008152602001600081525090565b60405180604001604052806000600181111561169c5761169b611883565b5b8152602001600073ffffffffffffffffffffffffffffffffffffffff1681525090565b6000604051905090565b600080fd5b600080fd5b6000819050919050565b6116e6816116d3565b81146116f157600080fd5b50565b600081359050611703816116dd565b92915050565b60006020828403121561171f5761171e6116c9565b5b600061172d848285016116f4565b91505092915050565b600073ffffffffffffffffffffffffffffffffffffffff82169050919050565b600061176182611736565b9050919050565b61177181611756565b82525050565b611780816116d3565b82525050565b60408201600082015161179c6000850182611768565b5060208201516117af6020850182611777565b50505050565b600081519050919050565b600082825260208201905092915050565b60005b838110156117ef5780820151818401526020810190506117d4565b60008484015250505050565b6000601f19601f8301169050919050565b6000611817826117b5565b61182181856117c0565b93506118318185602086016117d1565b61183a816117fb565b840191505092915050565b60408201600082015161185b6000850182611777565b50602082015161186e6020850182611777565b50505050565b61187d816116d3565b82525050565b7f4e487b7100000000000000000000000000000000000000000000000000000000600052602160045260246000fd5b600281106118c3576118c2611883565b5b50565b60008190506118d4826118b2565b919050565b60006118e4826118c6565b9050919050565b6118f4816118d9565b82525050565b60408201600082015161191060008501826118eb565b5060208201516119236020850182611768565b50505050565b60006101608201905061193f600083018b611786565b8181036040830152611951818a61180c565b90508181036060830152611965818961180c565b90508181036080830152611979818861180c565b905061198860a0830187611845565b61199560e0830186611874565b6119a3610100830185611874565b6119b16101208301846118fa565b9998505050505050505050565b6119c781611756565b81146119d257600080fd5b50565b6000813590506119e4816119be565b92915050565b600080fd5b7f4e487b7100000000000000000000000000000000000000000000000000000000600052604160045260246000fd5b611a27826117fb565b810181811067ffffffffffffffff82111715611a4657611a456119ef565b5b80604052505050565b6000611a596116bf565b9050611a658282611a1e565b919050565b600060408284031215611a8057611a7f6119ea565b5b611a8a6040611a4f565b90506000611a9a848285016116f4565b6000830152506020611aae848285016116f4565b60208301525092915050565b60008060008060a08587031215611ad457611ad36116c9565b5b6000611ae2878288016119d5565b9450506020611af3878288016116f4565b9350506040611b04878288016116f4565b9250506060611b1587828801611a6a565b91505092959194509250565b6000602082019050611b366000830184611874565b92915050565b60008060408385031215611b5357611b526116c9565b5b6000611b61858286016116f4565b9250506020611b72858286016119d5565b9150509250929050565b611b8581611756565b82525050565b6000602082019050611ba06000830184611b7c565b92915050565b60008060408385031215611bbd57611bbc6116c9565b5b6000611bcb858286016116f4565b9250506020611bdc858286016116f4565b9150509250929050565b6000604082019050611bfb6000830185611874565b611c086020830184611874565b9392505050565b600060408284031215611c2557611c246119ea565b5b611c2f6040611a4f565b90506000611c3f848285016116f4565b6000830152506020611c53848285016116f4565b60208301525092915050565b600080600060c08486031215611c7857611c776116c9565b5b6000611c8686828701611a6a565b9350506040611c9786828701611a6a565b9250506080611ca886828701611c0f565b9150509250925092565b6000606082019050611cc76000830186611874565b611cd46020830185611874565b611ce16040830184611874565b949350505050565b600080fd5b600080fd5b600067ffffffffffffffff821115611d0e57611d0d6119ef565b5b611d17826117fb565b9050602081019050919050565b82818337600083830152505050565b6000611d46611d4184611cf3565b611a4f565b905082815260208101848484011115611d6257611d61611cee565b5b611d6d848285611d24565b509392505050565b600082601f830112611d8a57611d89611ce9565b5b8135611d9a848260208601611d33565b91505092915050565b60008060008060008060c08789031215611dc057611dbf6116c9565b5b600087013567ffffffffffffffff811115611dde57611ddd6116ce565b5b611dea89828a01611d75565b965050602087013567ffffffffffffffff811115611e0b57611e0a6116ce565b5b611e1789828a01611d75565b955050604087013567ffffffffffffffff811115611e3857611e376116ce565b5b611e4489828a01611d75565b9450506060611e5589828a016116f4565b9350506080611e6689828a016116f4565b92505060a0611e7789828a016116f4565b9150509295509295509295565b604082016000820151611e9a6000850182611768565b506020820151611ead6020850182611777565b50505050565b600082825260208201905092915050565b6000611ecf826117b5565b611ed98185611eb3565b9350611ee98185602086016117d1565b611ef2816117fb565b840191505092915050565b604082016000820151611f136000850182611777565b506020820151611f266020850182611777565b50505050565b604082016000820151611f4260008501826118eb565b506020820151611f556020850182611768565b50505050565b600061016083016000830151611f746000860182611e84565b5060208301518482036040860152611f8c8282611ec4565b91505060408301518482036060860152611fa68282611ec4565b91505060608301518482036080860152611fc08282611ec4565b9150506080830151611fd560a0860182611efd565b5060a0830151611fe860e0860182611777565b5060c0830151611ffc610100860182611777565b5060e0830151612010610120860182611f2c565b508091505092915050565b600060208201905081810360008301526120358184611f5b565b905092915050565b600060208284031215612053576120526116c9565b5b6000612061848285016119d5565b91505092915050565b600081905092915050565b50565b600061208560008361206a565b915061209082612075565b600082019050919050565b60006120a682612078565b9150819050919050565b60006040820190506120c56000830185611b7c565b6120d26020830184611874565b9392505050565b7f4e487b7100000000000000000000000000000000000000000000000000000000600052602260045260246000fd5b6000600282049050600182168061212057607f821691505b602082108103612133576121326120d9565b5b50919050565b7f4e487b7100000000000000000000000000000000000000000000000000000000600052601160045260246000fd5b6000612173826116d3565b915061217e836116d3565b925082820390508181111561219657612195612139565b5b92915050565b60006121a7826116d3565b91506121b2836116d3565b92508282019050808211156121ca576121c9612139565b5b92915050565b60006080820190506121e56000830187611874565b6121f26020830186611874565b6121ff6040830185611874565b61220c6060830184611874565b95945050505050565b6000612220826116d3565b915061222b836116d3565b9250828202612239816116d3565b915082820484148315176122505761224f612139565b5b5092915050565b6000612262826116d3565b91507fffffffffffffffffffffffffffffffffffffffffffffffffffffffffffffffff820361229457612293612139565b5b600182019050919050565b60008190508160005260206000209050919050565b60006020601f8301049050919050565b600082821b905092915050565b6000600883026123017fffffffffffffffffffffffffffffffffffffffffffffffffffffffffffffffff826122c4565b61230b86836122c4565b95508019841693508086168417925050509392505050565b6000819050919050565b600061234861234361233e846116d3565b612323565b6116d3565b9050919050565b6000819050919050565b6123628361232d565b61237661236e8261234f565b8484546122d1565b825550505050565b600090565b61238b61237e565b612396818484612359565b505050565b5b818110156123ba576123af600082612383565b60018101905061239c565b5050565b601f8211156123ff576123d08161229f565b6123d9846122b4565b810160208510156123e8578190505b6123fc6123f4856122b4565b83018261239b565b50505b505050565b600082821c905092915050565b600061242260001984600802612404565b1980831691505092915050565b600061243b8383612411565b9150826002028217905092915050565b612454826117b5565b67ffffffffffffffff81111561246d5761246c6119ef565b5b6124778254612108565b6124828282856123be565b600060209050601f8311600181146124b557600084156124a3578287015190505b6124ad858261242f565b865550612515565b601f1984166124c38661229f565b60005b828110156124eb578489015182556001820191506020850194506020810190506124c6565b868310156125085784890151612504601f891682612411565b8355505b6001600288020188555050505b505050505050565b600060e0820190508181036000830152612537818a61180c565b9050818103602083015261254b818961180c565b9050818103604083015261255f818861180c565b905061256e6060830187611874565b61257b6080830186611874565b61258860a0830185611874565b61259560c0830184611874565b98975050505050505050565b7f4f776e61626c653a206e6577206f776e657220697320746865207a65726f206160008201527f6464726573730000000000000000000000000000000000000000000000000000602082015250565b60006125fd6026836117c0565b9150612608826125a1565b604082019050919050565b6000602082019050818103600083015261262c816125f0565b9050919050565b7f4f776e61626c653a2063616c6c6572206973206e6f7420746865206f776e6572600082015250565b60006126696020836117c0565b915061267482612633565b602082019050919050565b600060208201905081810360008301526126988161265c565b9050919050565b7f5265656e7472616e637947756172643a207265656e7472616e742063616c6c00600082015250565b60006126d5601f836117c0565b91506126e08261269f565b602082019050919050565b60006020820190508181036000830152612704816126c8565b905091905056fea264697066735822122046b1aebfc75ea91ab45493699eaf34378f04079d27c09b87a90309a6f1f02f2d64736f6c63430008120033",
  "linkReferences": {},
  "deployedLinkReferences": {}
}