{
  "_format": "hh-sol-artifact-1",
  "contractName": "CampaignManager",
  "sourceName": "contracts/CampaignManager.sol",
  "abi": [
    {
      "inputs": [
        {
          "internalType": "address",
          "name": "_backendAdmin",
          "type": "address"
        }
      ],
      "stateMutability": "nonpayable",
      "type": "constructor"
    },
    {
      "inputs": [],
      "name": "CampaignDoesNotExist",
      "type": "error"
    },
    {
      "inputs": [
        {
          "internalType": "address",
          "name": "participant",
          "type": "address"
        },
        {
          "internalType": "uint256",
          "name": "amount",
          "type": "uint256"
        }
      ],
      "name": "FailedToSendRewards",
      "type": "error"
    },
    {
      "inputs": [],
      "name": "NoRewardToClaim",
      "type": "error"
    },
    {
      "inputs": [],
      "name": "NotEnoughRewardsLeft",
      "type": "error"
    },
    {
      "inputs": [],
      "name": "OnlyBackendAdmin",
      "type": "error"
    },
    {
      "inputs": [],
      "name": "OnlyCampaignOwner",
      "type": "error"
    },
    {
      "inputs": [],
      "name": "ZeroAmount",
      "type": "error"
    },
    {
      "anonymous": false,
      "inputs": [
        {
          "indexed": true,
          "internalType": "uint256",
          "name": "campaignId",
          "type": "uint256"
        },
        {
          "indexed": true,
          "internalType": "address",
          "name": "owner",
          "type": "address"
        },
        {
          "indexed": false,
          "internalType": "string",
          "name": "name",
          "type": "string"
        },
        {
          "indexed": false,
          "internalType": "string",
          "name": "description",
          "type": "string"
        },
        {
          "indexed": false,
          "internalType": "string",
          "name": "tweetString",
          "type": "string"
        },
        {
          "indexed": false,
          "internalType": "uint256",
          "name": "tokensPerLike",
          "type": "uint256"
        },
        {
          "indexed": false,
          "internalType": "uint256",
          "name": "tokensPerRetweet",
          "type": "uint256"
        },
        {
          "indexed": false,
          "internalType": "uint256",
          "name": "rewardsLeft",
          "type": "uint256"
        }
      ],
      "name": "CampaignCreated",
      "type": "event"
    },
    {
      "anonymous": false,
      "inputs": [
        {
          "indexed": true,
          "internalType": "address",
          "name": "previousOwner",
          "type": "address"
        },
        {
          "indexed": true,
          "internalType": "address",
          "name": "newOwner",
          "type": "address"
        }
      ],
      "name": "OwnershipTransferred",
      "type": "event"
    },
    {
      "anonymous": false,
      "inputs": [
        {
          "indexed": true,
          "internalType": "uint256",
          "name": "campaignId",
          "type": "uint256"
        },
        {
          "indexed": true,
          "internalType": "address",
          "name": "wallet",
          "type": "address"
        },
        {
          "indexed": false,
          "internalType": "uint256",
          "name": "tweetId",
          "type": "uint256"
        },
        {
          "indexed": false,
          "internalType": "uint256",
          "name": "tokensRewarded",
          "type": "uint256"
        },
        {
          "indexed": false,
          "internalType": "uint256",
          "name": "likesRewarded",
          "type": "uint256"
        },
        {
          "indexed": false,
          "internalType": "uint256",
          "name": "retweetsRewarded",
          "type": "uint256"
        }
      ],
      "name": "RewardClaimed",
      "type": "event"
    },
    {
      "inputs": [],
      "name": "backendAdmin",
      "outputs": [
        {
          "internalType": "address",
          "name": "",
          "type": "address"
        }
      ],
      "stateMutability": "view",
      "type": "function"
    },
    {
      "inputs": [
        {
          "components": [
            {
              "internalType": "uint256",
              "name": "likes",
              "type": "uint256"
            },
            {
              "internalType": "uint256",
              "name": "retweets",
              "type": "uint256"
            }
          ],
          "internalType": "struct CampaignManager.TweetInfo",
          "name": "_lastTweet",
          "type": "tuple"
        },
        {
          "components": [
            {
              "internalType": "uint256",
              "name": "likes",
              "type": "uint256"
            },
            {
              "internalType": "uint256",
              "name": "retweets",
              "type": "uint256"
            }
          ],
          "internalType": "struct CampaignManager.TweetInfo",
          "name": "_currentTweet",
          "type": "tuple"
        },
        {
          "components": [
            {
              "internalType": "uint256",
              "name": "tokensPerLike",
              "type": "uint256"
            },
            {
              "internalType": "uint256",
              "name": "tokensPerRetweet",
              "type": "uint256"
            }
          ],
          "internalType": "struct CampaignManager.TweetRewardStats",
          "name": "_tweetRewardStats",
          "type": "tuple"
        }
      ],
      "name": "calculateRewards",
      "outputs": [
        {
          "internalType": "uint256",
          "name": "tokensRewarded",
          "type": "uint256"
        },
        {
          "internalType": "uint256",
          "name": "likesRewarded",
          "type": "uint256"
        },
        {
          "internalType": "uint256",
          "name": "retweetsRewarded",
          "type": "uint256"
        }
      ],
      "stateMutability": "pure",
      "type": "function"
    },
    {
      "inputs": [],
      "name": "campaignCount",
      "outputs": [
        {
          "internalType": "uint256",
          "name": "",
          "type": "uint256"
        }
      ],
      "stateMutability": "view",
      "type": "function"
    },
    {
      "inputs": [
        {
          "internalType": "uint256",
          "name": "",
          "type": "uint256"
        }
      ],
      "name": "campaigns",
      "outputs": [
        {
          "internalType": "address",
          "name": "owner",
          "type": "address"
        },
        {
          "internalType": "string",
          "name": "name",
          "type": "string"
        },
        {
          "internalType": "string",
          "name": "description",
          "type": "string"
        },
        {
          "internalType": "string",
          "name": "tweetString",
          "type": "string"
        },
        {
          "components": [
            {
              "internalType": "uint256",
              "name": "tokensPerLike",
              "type": "uint256"
            },
            {
              "internalType": "uint256",
              "name": "tokensPerRetweet",
              "type": "uint256"
            }
          ],
          "internalType": "struct CampaignManager.TweetRewardStats",
          "name": "tweetRewardStats",
          "type": "tuple"
        },
        {
          "internalType": "uint256",
          "name": "rewardsLeft",
          "type": "uint256"
        },
        {
          "internalType": "uint256",
          "name": "totalRewardsGiven",
          "type": "uint256"
        },
        {
          "components": [
            {
              "internalType": "enum CampaignManager.RewardType",
              "name": "rewardType",
              "type": "uint8"
            },
            {
              "internalType": "address",
              "name": "tokenAddress",
              "type": "address"
            }
          ],
          "internalType": "struct CampaignManager.RewardToken",
          "name": "rewardToken",
          "type": "tuple"
        }
      ],
      "stateMutability": "view",
      "type": "function"
    },
    {
      "inputs": [
        {
          "internalType": "address",
          "name": "participant",
          "type": "address"
        },
        {
          "internalType": "uint256",
          "name": "_campaignId",
          "type": "uint256"
        },
        {
          "internalType": "uint256",
          "name": "_tweetId",
          "type": "uint256"
        },
        {
          "components": [
            {
              "internalType": "uint256",
              "name": "likes",
              "type": "uint256"
            },
            {
              "internalType": "uint256",
              "name": "retweets",
              "type": "uint256"
            }
          ],
          "internalType": "struct CampaignManager.TweetInfo",
          "name": "_currentTweetInfo",
          "type": "tuple"
        }
      ],
      "name": "claimRewardNativeTo",
      "outputs": [],
      "stateMutability": "nonpayable",
      "type": "function"
    },
    {
      "inputs": [
        {
          "internalType": "string",
          "name": "_name",
          "type": "string"
        },
        {
          "internalType": "string",
          "name": "_description",
          "type": "string"
        },
        {
          "internalType": "string",
          "name": "_tweetString",
          "type": "string"
        },
        {
          "internalType": "uint256",
          "name": "_tokensPerLike",
          "type": "uint256"
        },
        {
          "internalType": "uint256",
          "name": "_tokensPerRetweet",
          "type": "uint256"
        }
      ],
      "name": "createCampaignNative",
      "outputs": [
        {
          "internalType": "uint256",
          "name": "",
          "type": "uint256"
        }
      ],
      "stateMutability": "payable",
      "type": "function"
    },
    {
      "inputs": [
        {
          "internalType": "uint256",
          "name": "_campaignId",
          "type": "uint256"
        }
      ],
      "name": "getCampaignInfo",
      "outputs": [
        {
          "internalType": "string",
          "name": "",
          "type": "string"
        },
        {
          "internalType": "string",
          "name": "",
          "type": "string"
        },
        {
          "internalType": "string",
          "name": "",
          "type": "string"
        },
        {
          "internalType": "uint256",
          "name": "",
          "type": "uint256"
        },
        {
          "internalType": "uint256",
          "name": "",
          "type": "uint256"
        },
        {
          "internalType": "uint256",
          "name": "",
          "type": "uint256"
        }
      ],
      "stateMutability": "view",
      "type": "function"
    },
    {
      "inputs": [],
      "name": "owner",
      "outputs": [
        {
          "internalType": "address",
          "name": "",
          "type": "address"
        }
      ],
      "stateMutability": "view",
      "type": "function"
    },
    {
      "inputs": [],
      "name": "renounceOwnership",
      "outputs": [],
      "stateMutability": "nonpayable",
      "type": "function"
    },
    {
      "inputs": [
        {
          "internalType": "address",
          "name": "newOwner",
          "type": "address"
        }
      ],
      "name": "transferOwnership",
      "outputs": [],
      "stateMutability": "nonpayable",
      "type": "function"
    },
    {
      "inputs": [],
      "name": "withdraw",
      "outputs": [],
      "stateMutability": "nonpayable",
      "type": "function"
    },
    {
      "inputs": [
        {
          "internalType": "uint256",
          "name": "_campaignId",
          "type": "uint256"
        }
      ],
      "name": "withdrawCampaignFunds",
      "outputs": [],
      "stateMutability": "nonpayable",
      "type": "function"
    }
  ],
  "bytecode": "0x60806040523480156200001157600080fd5b5060405162002387380380620023878339818101604052810190620000379190620001dc565b620000576200004b620000a660201b60201c565b620000ae60201b60201c565b6001808190555080600460006101000a81548173ffffffffffffffffffffffffffffffffffffffff021916908373ffffffffffffffffffffffffffffffffffffffff160217905550506200020e565b600033905090565b60008060009054906101000a900473ffffffffffffffffffffffffffffffffffffffff169050816000806101000a81548173ffffffffffffffffffffffffffffffffffffffff021916908373ffffffffffffffffffffffffffffffffffffffff1602179055508173ffffffffffffffffffffffffffffffffffffffff168173ffffffffffffffffffffffffffffffffffffffff167f8be0079c531659141344cd1fd0a4f28419497f9722a3daafe3b4186f6b6457e060405160405180910390a35050565b600080fd5b600073ffffffffffffffffffffffffffffffffffffffff82169050919050565b6000620001a48262000177565b9050919050565b620001b68162000197565b8114620001c257600080fd5b50565b600081519050620001d681620001ab565b92915050565b600060208284031215620001f557620001f462000172565b5b60006200020584828501620001c5565b91505092915050565b612169806200021e6000396000f3fe6080604052600436106100a75760003560e01c80637274e30d116100645780637274e30d146101a05780638da5cb5b146101cb578063a949c74e146101f6578063d070e40c14610235578063e38e2b8214610260578063f2fde38b146102a2576100a7565b806311c1caaf146100ac57806314169e2a146100dc578063141961bc146101055780633ccfd60b14610149578063427f9bfb14610160578063715018a614610189575b600080fd5b6100c660048036038101906100c19190611529565b6102cb565b6040516100d39190611607565b60405180910390f35b3480156100e857600080fd5b5061010360048036038101906100fe9190611622565b61050a565b005b34801561011157600080fd5b5061012c60048036038101906101279190611622565b610699565b604051610140989796959493929190611802565b60405180910390f35b34801561015557600080fd5b5061015e610952565b005b34801561016c57600080fd5b5061018760048036038101906101829190611917565b610a1b565b005b34801561019557600080fd5b5061019e610d90565b005b3480156101ac57600080fd5b506101b5610da4565b6040516101c29190611607565b60405180910390f35b3480156101d757600080fd5b506101e0610daa565b6040516101ed919061197e565b60405180910390f35b34801561020257600080fd5b5061021d600480360381019061021891906119e9565b610dd3565b60405161022c93929190611a3c565b60405180910390f35b34801561024157600080fd5b5061024a610ec0565b604051610257919061197e565b60405180910390f35b34801561026c57600080fd5b5061028760048036038101906102829190611622565b610ee6565b60405161029996959493929190611a73565b60405180910390f35b3480156102ae57600080fd5b506102c960048036038101906102c49190611ae9565b611174565b005b60006102d56111f7565b3460008103610310576040517f1f2a200500000000000000000000000000000000000000000000000000000000815260040160405180910390fd5b60003490506003600081548092919061032890611b45565b91905055503360026000600354815260200190815260200160002060000160006101000a81548173ffffffffffffffffffffffffffffffffffffffff021916908373ffffffffffffffffffffffffffffffffffffffff1602179055508760026000600354815260200190815260200160002060010190816103a99190611d99565b508660026000600354815260200190815260200160002060020190816103cf9190611d99565b508560026000600354815260200190815260200160002060030190816103f59190611d99565b50846002600060035481526020019081526020016000206004016000018190555083600260006003548152602001908152602001600020600401600101819055508060026000600354815260200190815260200160002060060181905550600060026000600354815260200190815260200160002060080160000160006101000a81548160ff021916908360018111156104925761049161174d565b5b02179055503373ffffffffffffffffffffffffffffffffffffffff166003547f769b387080c6632151ef5a2693f50e6d482856489f7cf2b167318ea21dcf9fd28a8a8a8a8a886040516104ea96959493929190611a73565b60405180910390a360035492505050610501611246565b95945050505050565b806002600082815260200190815260200160002060000160009054906101000a900473ffffffffffffffffffffffffffffffffffffffff1673ffffffffffffffffffffffffffffffffffffffff163373ffffffffffffffffffffffffffffffffffffffff16146105a6576040517f694a8e2200000000000000000000000000000000000000000000000000000000815260040160405180910390fd5b816003548111156105e3576040517f9b35ed3b00000000000000000000000000000000000000000000000000000000815260040160405180910390fd5b60003373ffffffffffffffffffffffffffffffffffffffff164760405161060990611e9c565b60006040518083038185875af1925050503d8060008114610646576040519150601f19603f3d011682016040523d82523d6000602084013e61064b565b606091505b50509050806106935733476040517f864e4ff400000000000000000000000000000000000000000000000000000000815260040161068a929190611eb1565b60405180910390fd5b50505050565b60026020528060005260406000206000915090508060000160009054906101000a900473ffffffffffffffffffffffffffffffffffffffff16908060010180546106e290611bbc565b80601f016020809104026020016040519081016040528092919081815260200182805461070e90611bbc565b801561075b5780601f106107305761010080835404028352916020019161075b565b820191906000526020600020905b81548152906001019060200180831161073e57829003601f168201915b50505050509080600201805461077090611bbc565b80601f016020809104026020016040519081016040528092919081815260200182805461079c90611bbc565b80156107e95780601f106107be576101008083540402835291602001916107e9565b820191906000526020600020905b8154815290600101906020018083116107cc57829003601f168201915b5050505050908060030180546107fe90611bbc565b80601f016020809104026020016040519081016040528092919081815260200182805461082a90611bbc565b80156108775780601f1061084c57610100808354040283529160200191610877565b820191906000526020600020905b81548152906001019060200180831161085a57829003601f168201915b505050505090806004016040518060400160405290816000820154815260200160018201548152505090806006015490806007015490806008016040518060400160405290816000820160009054906101000a900460ff1660018111156108e1576108e061174d565b5b60018111156108f3576108f261174d565b5b81526020016000820160019054906101000a900473ffffffffffffffffffffffffffffffffffffffff1673ffffffffffffffffffffffffffffffffffffffff1673ffffffffffffffffffffffffffffffffffffffff1681525050905088565b61095a61124f565b6000610964610daa565b73ffffffffffffffffffffffffffffffffffffffff164760405161098790611e9c565b60006040518083038185875af1925050503d80600081146109c4576040519150601f19603f3d011682016040523d82523d6000602084013e6109c9565b606091505b5050905080610a18576109da610daa565b476040517f864e4ff4000000000000000000000000000000000000000000000000000000008152600401610a0f929190611eb1565b60405180910390fd5b50565b610a236111f7565b600460009054906101000a900473ffffffffffffffffffffffffffffffffffffffff1673ffffffffffffffffffffffffffffffffffffffff163373ffffffffffffffffffffffffffffffffffffffff1614610aaa576040517f58239da100000000000000000000000000000000000000000000000000000000815260040160405180910390fd5b82600354811115610ae7576040517f9b35ed3b00000000000000000000000000000000000000000000000000000000815260040160405180910390fd5b60006002600086815260200190815260200160002090506000806000610b6384600a01600089815260200190815260200160002060405180604001604052908160008201548152602001600182015481525050878660040160405180604001604052908160008201548152602001600182015481525050610dd3565b9250925092508360060154831115610ba7576040517f056a69e100000000000000000000000000000000000000000000000000000000815260040160405180910390fd5b82846006016000828254610bbb9190611eda565b9250508190555082846007016000828254610bd69190611f0e565b92505081905550856000015184600a01600089815260200190815260200160002060000181905550856020015184600a01600089815260200190815260200160002060010181905550828460090160008b73ffffffffffffffffffffffffffffffffffffffff1673ffffffffffffffffffffffffffffffffffffffff1681526020019081526020016000206000828254610c709190611f0e565b9250508190555060008973ffffffffffffffffffffffffffffffffffffffff1684604051610c9d90611e9c565b60006040518083038185875af1925050503d8060008114610cda576040519150601f19603f3d011682016040523d82523d6000602084013e610cdf565b606091505b5050905080610d275789846040517f864e4ff4000000000000000000000000000000000000000000000000000000008152600401610d1e929190611eb1565b60405180910390fd5b8973ffffffffffffffffffffffffffffffffffffffff16897f1cafd5d808f4a393e0f07cc5e01faee87efa08214cc3f1af8b85b16165f34d638a878787604051610d749493929190611f42565b60405180910390a3505050505050610d8a611246565b50505050565b610d9861124f565b610da260006112cd565b565b60035481565b60008060009054906101000a900473ffffffffffffffffffffffffffffffffffffffff16905090565b6000806000808660000151905060008760200151905060008760000151905060008860200151905081841015610e12578382610e0f9190611eda565b95505b80831015610e29578281610e269190611eda565b94505b600086148015610e395750600085145b15610e70576040517f5aa9184d00000000000000000000000000000000000000000000000000000000815260040160405180910390fd5b6000861115610e8c57876000015186610e899190611f87565b96505b6000851115610eb357876020015185610ea59190611f87565b87610eb09190611f0e565b96505b5050505093509350939050565b600460009054906101000a900473ffffffffffffffffffffffffffffffffffffffff1681565b6060806060600080600086600354811115610f2d576040517f9b35ed3b00000000000000000000000000000000000000000000000000000000815260040160405180910390fd5b60026000898152602001908152602001600020600101600260008a8152602001908152602001600020600201600260008b8152602001908152602001600020600301600260008c815260200190815260200160002060040160000154600260008d815260200190815260200160002060040160010154600260008e815260200190815260200160002060060154858054610fc690611bbc565b80601f0160208091040260200160405190810160405280929190818152602001828054610ff290611bbc565b801561103f5780601f106110145761010080835404028352916020019161103f565b820191906000526020600020905b81548152906001019060200180831161102257829003601f168201915b5050505050955084805461105290611bbc565b80601f016020809104026020016040519081016040528092919081815260200182805461107e90611bbc565b80156110cb5780601f106110a0576101008083540402835291602001916110cb565b820191906000526020600020905b8154815290600101906020018083116110ae57829003601f168201915b505050505094508380546110de90611bbc565b80601f016020809104026020016040519081016040528092919081815260200182805461110a90611bbc565b80156111575780601f1061112c57610100808354040283529160200191611157565b820191906000526020600020905b81548152906001019060200180831161113a57829003601f168201915b505050505093509650965096509650965096505091939550919395565b61117c61124f565b600073ffffffffffffffffffffffffffffffffffffffff168173ffffffffffffffffffffffffffffffffffffffff16036111eb576040517f08c379a00000000000000000000000000000000000000000000000000000000081526004016111e29061203b565b60405180910390fd5b6111f4816112cd565b50565b60026001540361123c576040517f08c379a0000000000000000000000000000000000000000000000000000000008152600401611233906120a7565b60405180910390fd5b6002600181905550565b60018081905550565b611257611391565b73ffffffffffffffffffffffffffffffffffffffff16611275610daa565b73ffffffffffffffffffffffffffffffffffffffff16146112cb576040517f08c379a00000000000000000000000000000000000000000000000000000000081526004016112c290612113565b60405180910390fd5b565b60008060009054906101000a900473ffffffffffffffffffffffffffffffffffffffff169050816000806101000a81548173ffffffffffffffffffffffffffffffffffffffff021916908373ffffffffffffffffffffffffffffffffffffffff1602179055508173ffffffffffffffffffffffffffffffffffffffff168173ffffffffffffffffffffffffffffffffffffffff167f8be0079c531659141344cd1fd0a4f28419497f9722a3daafe3b4186f6b6457e060405160405180910390a35050565b600033905090565b6000604051905090565b600080fd5b600080fd5b600080fd5b600080fd5b6000601f19601f8301169050919050565b7f4e487b7100000000000000000000000000000000000000000000000000000000600052604160045260246000fd5b611400826113b7565b810181811067ffffffffffffffff8211171561141f5761141e6113c8565b5b80604052505050565b6000611432611399565b905061143e82826113f7565b919050565b600067ffffffffffffffff82111561145e5761145d6113c8565b5b611467826113b7565b9050602081019050919050565b82818337600083830152505050565b600061149661149184611443565b611428565b9050828152602081018484840111156114b2576114b16113b2565b5b6114bd848285611474565b509392505050565b600082601f8301126114da576114d96113ad565b5b81356114ea848260208601611483565b91505092915050565b6000819050919050565b611506816114f3565b811461151157600080fd5b50565b600081359050611523816114fd565b92915050565b600080600080600060a08688031215611545576115446113a3565b5b600086013567ffffffffffffffff811115611563576115626113a8565b5b61156f888289016114c5565b955050602086013567ffffffffffffffff8111156115905761158f6113a8565b5b61159c888289016114c5565b945050604086013567ffffffffffffffff8111156115bd576115bc6113a8565b5b6115c9888289016114c5565b93505060606115da88828901611514565b92505060806115eb88828901611514565b9150509295509295909350565b611601816114f3565b82525050565b600060208201905061161c60008301846115f8565b92915050565b600060208284031215611638576116376113a3565b5b600061164684828501611514565b91505092915050565b600073ffffffffffffffffffffffffffffffffffffffff82169050919050565b600061167a8261164f565b9050919050565b61168a8161166f565b82525050565b600081519050919050565b600082825260208201905092915050565b60005b838110156116ca5780820151818401526020810190506116af565b60008484015250505050565b60006116e182611690565b6116eb818561169b565b93506116fb8185602086016116ac565b611704816113b7565b840191505092915050565b611718816114f3565b82525050565b604082016000820151611734600085018261170f565b506020820151611747602085018261170f565b50505050565b7f4e487b7100000000000000000000000000000000000000000000000000000000600052602160045260246000fd5b6002811061178d5761178c61174d565b5b50565b600081905061179e8261177c565b919050565b60006117ae82611790565b9050919050565b6117be816117a3565b82525050565b6117cd8161166f565b82525050565b6040820160008201516117e960008501826117b5565b5060208201516117fc60208501826117c4565b50505050565b600061014082019050611818600083018b611681565b818103602083015261182a818a6116d6565b9050818103604083015261183e81896116d6565b9050818103606083015261185281886116d6565b9050611861608083018761171e565b61186e60c08301866115f8565b61187b60e08301856115f8565b6118896101008301846117d3565b9998505050505050505050565b61189f8161166f565b81146118aa57600080fd5b50565b6000813590506118bc81611896565b92915050565b600080fd5b6000604082840312156118dd576118dc6118c2565b5b6118e76040611428565b905060006118f784828501611514565b600083015250602061190b84828501611514565b60208301525092915050565b60008060008060a08587031215611931576119306113a3565b5b600061193f878288016118ad565b945050602061195087828801611514565b935050604061196187828801611514565b9250506060611972878288016118c7565b91505092959194509250565b60006020820190506119936000830184611681565b92915050565b6000604082840312156119af576119ae6118c2565b5b6119b96040611428565b905060006119c984828501611514565b60008301525060206119dd84828501611514565b60208301525092915050565b600080600060c08486031215611a0257611a016113a3565b5b6000611a10868287016118c7565b9350506040611a21868287016118c7565b9250506080611a3286828701611999565b9150509250925092565b6000606082019050611a5160008301866115f8565b611a5e60208301856115f8565b611a6b60408301846115f8565b949350505050565b600060c0820190508181036000830152611a8d81896116d6565b90508181036020830152611aa181886116d6565b90508181036040830152611ab581876116d6565b9050611ac460608301866115f8565b611ad160808301856115f8565b611ade60a08301846115f8565b979650505050505050565b600060208284031215611aff57611afe6113a3565b5b6000611b0d848285016118ad565b91505092915050565b7f4e487b7100000000000000000000000000000000000000000000000000000000600052601160045260246000fd5b6000611b50826114f3565b91507fffffffffffffffffffffffffffffffffffffffffffffffffffffffffffffffff8203611b8257611b81611b16565b5b600182019050919050565b7f4e487b7100000000000000000000000000000000000000000000000000000000600052602260045260246000fd5b60006002820490506001821680611bd457607f821691505b602082108103611be757611be6611b8d565b5b50919050565b60008190508160005260206000209050919050565b60006020601f8301049050919050565b600082821b905092915050565b600060088302611c4f7fffffffffffffffffffffffffffffffffffffffffffffffffffffffffffffffff82611c12565b611c598683611c12565b95508019841693508086168417925050509392505050565b6000819050919050565b6000611c96611c91611c8c846114f3565b611c71565b6114f3565b9050919050565b6000819050919050565b611cb083611c7b565b611cc4611cbc82611c9d565b848454611c1f565b825550505050565b600090565b611cd9611ccc565b611ce4818484611ca7565b505050565b5b81811015611d0857611cfd600082611cd1565b600181019050611cea565b5050565b601f821115611d4d57611d1e81611bed565b611d2784611c02565b81016020851015611d36578190505b611d4a611d4285611c02565b830182611ce9565b50505b505050565b600082821c905092915050565b6000611d7060001984600802611d52565b1980831691505092915050565b6000611d898383611d5f565b9150826002028217905092915050565b611da282611690565b67ffffffffffffffff811115611dbb57611dba6113c8565b5b611dc58254611bbc565b611dd0828285611d0c565b600060209050601f831160018114611e035760008415611df1578287015190505b611dfb8582611d7d565b865550611e63565b601f198416611e1186611bed565b60005b82811015611e3957848901518255600182019150602085019450602081019050611e14565b86831015611e565784890151611e52601f891682611d5f565b8355505b6001600288020188555050505b505050505050565b600081905092915050565b50565b6000611e86600083611e6b565b9150611e9182611e76565b600082019050919050565b6000611ea782611e79565b9150819050919050565b6000604082019050611ec66000830185611681565b611ed360208301846115f8565b9392505050565b6000611ee5826114f3565b9150611ef0836114f3565b9250828203905081811115611f0857611f07611b16565b5b92915050565b6000611f19826114f3565b9150611f24836114f3565b9250828201905080821115611f3c57611f3b611b16565b5b92915050565b6000608082019050611f5760008301876115f8565b611f6460208301866115f8565b611f7160408301856115f8565b611f7e60608301846115f8565b95945050505050565b6000611f92826114f3565b9150611f9d836114f3565b9250828202611fab816114f3565b91508282048414831517611fc257611fc1611b16565b5b5092915050565b7f4f776e61626c653a206e6577206f776e657220697320746865207a65726f206160008201527f6464726573730000000000000000000000000000000000000000000000000000602082015250565b600061202560268361169b565b915061203082611fc9565b604082019050919050565b6000602082019050818103600083015261205481612018565b9050919050565b7f5265656e7472616e637947756172643a207265656e7472616e742063616c6c00600082015250565b6000612091601f8361169b565b915061209c8261205b565b602082019050919050565b600060208201905081810360008301526120c081612084565b9050919050565b7f4f776e61626c653a2063616c6c6572206973206e6f7420746865206f776e6572600082015250565b60006120fd60208361169b565b9150612108826120c7565b602082019050919050565b6000602082019050818103600083015261212c816120f0565b905091905056fea2646970667358221220cb846a4c5f39c0b256361ca5f4faed293dc3047d77ba524f4fe1a39980431abc64736f6c63430008120033",
  "linkReferences": {},
  "deployedLinkReferences": {}
}