{
  "_format": "hh-sol-artifact-1",
  "contractName": "CampaignManager",
  "sourceName": "contracts/CampaignManager.sol",
  "abi": [
    {
      "inputs": [
        {
          "internalType": "address",
          "name": "_backendAdmin",
          "type": "address"
        }
      ],
      "stateMutability": "nonpayable",
      "type": "constructor"
    },
    {
      "inputs": [],
      "name": "CampaignDoesNotExist",
      "type": "error"
    },
    {
      "inputs": [
        {
          "internalType": "address",
          "name": "participant",
          "type": "address"
        },
        {
          "internalType": "uint256",
          "name": "amount",
          "type": "uint256"
        }
      ],
      "name": "FailedToSendRewards",
      "type": "error"
    },
    {
      "inputs": [],
      "name": "NoRewardToClaim",
      "type": "error"
    },
    {
      "inputs": [],
      "name": "NotEnoughRewardsLeft",
      "type": "error"
    },
    {
      "inputs": [],
      "name": "OnlyBackendAdmin",
      "type": "error"
    },
    {
      "inputs": [],
      "name": "OnlyCampaignOwner",
      "type": "error"
    },
    {
      "inputs": [],
      "name": "ZeroAmount",
      "type": "error"
    },
    {
      "anonymous": false,
      "inputs": [
        {
          "indexed": true,
          "internalType": "uint256",
          "name": "campaignId",
          "type": "uint256"
        },
        {
          "indexed": true,
          "internalType": "address",
          "name": "owner",
          "type": "address"
        },
        {
          "indexed": false,
          "internalType": "string",
          "name": "name",
          "type": "string"
        },
        {
          "indexed": false,
          "internalType": "string",
          "name": "description",
          "type": "string"
        },
        {
          "indexed": false,
          "internalType": "string",
          "name": "tweetString",
          "type": "string"
        },
        {
          "indexed": false,
          "internalType": "uint256",
          "name": "tokensPerLike",
          "type": "uint256"
        },
        {
          "indexed": false,
          "internalType": "uint256",
          "name": "tokensPerRetweet",
          "type": "uint256"
        },
        {
          "indexed": false,
          "internalType": "uint256",
          "name": "rewardsLeft",
          "type": "uint256"
        }
      ],
      "name": "CampaignCreated",
      "type": "event"
    },
    {
      "anonymous": false,
      "inputs": [
        {
          "indexed": true,
          "internalType": "address",
          "name": "previousOwner",
          "type": "address"
        },
        {
          "indexed": true,
          "internalType": "address",
          "name": "newOwner",
          "type": "address"
        }
      ],
      "name": "OwnershipTransferred",
      "type": "event"
    },
    {
      "anonymous": false,
      "inputs": [
        {
          "indexed": true,
          "internalType": "uint256",
          "name": "campaignId",
          "type": "uint256"
        },
        {
          "indexed": true,
          "internalType": "address",
          "name": "wallet",
          "type": "address"
        },
        {
          "indexed": false,
          "internalType": "uint256",
          "name": "tweetId",
          "type": "uint256"
        },
        {
          "indexed": false,
          "internalType": "uint256",
          "name": "tokensRewarded",
          "type": "uint256"
        },
        {
          "indexed": false,
          "internalType": "uint256",
          "name": "likesRewarded",
          "type": "uint256"
        },
        {
          "indexed": false,
          "internalType": "uint256",
          "name": "retweetsRewarded",
          "type": "uint256"
        }
      ],
      "name": "RewardClaimed",
      "type": "event"
    },
    {
      "inputs": [],
      "name": "backendAdmin",
      "outputs": [
        {
          "internalType": "address",
          "name": "",
          "type": "address"
        }
      ],
      "stateMutability": "view",
      "type": "function"
    },
    {
      "inputs": [
        {
          "components": [
            {
              "internalType": "uint256",
              "name": "likes",
              "type": "uint256"
            },
            {
              "internalType": "uint256",
              "name": "retweets",
              "type": "uint256"
            }
          ],
          "internalType": "struct CampaignManager.TweetInfo",
          "name": "_lastTweet",
          "type": "tuple"
        },
        {
          "components": [
            {
              "internalType": "uint256",
              "name": "likes",
              "type": "uint256"
            },
            {
              "internalType": "uint256",
              "name": "retweets",
              "type": "uint256"
            }
          ],
          "internalType": "struct CampaignManager.TweetInfo",
          "name": "_currentTweet",
          "type": "tuple"
        },
        {
          "components": [
            {
              "internalType": "uint256",
              "name": "tokensPerLike",
              "type": "uint256"
            },
            {
              "internalType": "uint256",
              "name": "tokensPerRetweet",
              "type": "uint256"
            }
          ],
          "internalType": "struct CampaignManager.TweetRewardStats",
          "name": "_tweetRewardStats",
          "type": "tuple"
        }
      ],
      "name": "calculateRewards",
      "outputs": [
        {
          "internalType": "uint256",
          "name": "tokensRewarded",
          "type": "uint256"
        },
        {
          "internalType": "uint256",
          "name": "likesRewarded",
          "type": "uint256"
        },
        {
          "internalType": "uint256",
          "name": "retweetsRewarded",
          "type": "uint256"
        }
      ],
      "stateMutability": "pure",
      "type": "function"
    },
    {
      "inputs": [],
      "name": "campaignCount",
      "outputs": [
        {
          "internalType": "uint256",
          "name": "",
          "type": "uint256"
        }
      ],
      "stateMutability": "view",
      "type": "function"
    },
    {
      "inputs": [
        {
          "internalType": "uint256",
          "name": "",
          "type": "uint256"
        }
      ],
      "name": "campaigns",
      "outputs": [
        {
          "internalType": "address",
          "name": "owner",
          "type": "address"
        },
        {
          "internalType": "string",
          "name": "name",
          "type": "string"
        },
        {
          "internalType": "string",
          "name": "description",
          "type": "string"
        },
        {
          "internalType": "string",
          "name": "tweetString",
          "type": "string"
        },
        {
          "components": [
            {
              "internalType": "uint256",
              "name": "tokensPerLike",
              "type": "uint256"
            },
            {
              "internalType": "uint256",
              "name": "tokensPerRetweet",
              "type": "uint256"
            }
          ],
          "internalType": "struct CampaignManager.TweetRewardStats",
          "name": "tweetRewardStats",
          "type": "tuple"
        },
        {
          "internalType": "uint256",
          "name": "rewardsLeft",
          "type": "uint256"
        },
        {
          "internalType": "uint256",
          "name": "totalRewardsGiven",
          "type": "uint256"
        },
        {
          "components": [
            {
              "internalType": "enum CampaignManager.RewardType",
              "name": "rewardType",
              "type": "uint8"
            },
            {
              "internalType": "address",
              "name": "tokenAddress",
              "type": "address"
            }
          ],
          "internalType": "struct CampaignManager.RewardToken",
          "name": "rewardToken",
          "type": "tuple"
        }
      ],
      "stateMutability": "view",
      "type": "function"
    },
    {
      "inputs": [
        {
          "internalType": "address",
          "name": "participant",
          "type": "address"
        },
        {
          "internalType": "uint256",
          "name": "_campaignId",
          "type": "uint256"
        },
        {
          "internalType": "uint256",
          "name": "_tweetId",
          "type": "uint256"
        },
        {
          "components": [
            {
              "internalType": "uint256",
              "name": "likes",
              "type": "uint256"
            },
            {
              "internalType": "uint256",
              "name": "retweets",
              "type": "uint256"
            }
          ],
          "internalType": "struct CampaignManager.TweetInfo",
          "name": "_currentTweetInfo",
          "type": "tuple"
        }
      ],
      "name": "claimRewardNativeTo",
      "outputs": [],
      "stateMutability": "nonpayable",
      "type": "function"
    },
    {
      "inputs": [
        {
          "internalType": "string",
          "name": "_name",
          "type": "string"
        },
        {
          "internalType": "string",
          "name": "_description",
          "type": "string"
        },
        {
          "internalType": "string",
          "name": "_tweetString",
          "type": "string"
        },
        {
          "internalType": "uint256",
          "name": "_tokensPerLike",
          "type": "uint256"
        },
        {
          "internalType": "uint256",
          "name": "_tokensPerRetweet",
          "type": "uint256"
        }
      ],
      "name": "createCampaignNative",
      "outputs": [
        {
          "internalType": "uint256",
          "name": "",
          "type": "uint256"
        }
      ],
      "stateMutability": "payable",
      "type": "function"
    },
    {
      "inputs": [
        {
          "internalType": "uint256",
          "name": "_campaignId",
          "type": "uint256"
        }
      ],
      "name": "getCampaignInfo",
      "outputs": [
        {
          "internalType": "string",
          "name": "",
          "type": "string"
        },
        {
          "internalType": "string",
          "name": "",
          "type": "string"
        },
        {
          "internalType": "string",
          "name": "",
          "type": "string"
        },
        {
          "internalType": "uint256",
          "name": "",
          "type": "uint256"
        },
        {
          "internalType": "uint256",
          "name": "",
          "type": "uint256"
        },
        {
          "internalType": "uint256",
          "name": "",
          "type": "uint256"
        }
      ],
      "stateMutability": "view",
      "type": "function"
    },
    {
      "inputs": [],
      "name": "owner",
      "outputs": [
        {
          "internalType": "address",
          "name": "",
          "type": "address"
        }
      ],
      "stateMutability": "view",
      "type": "function"
    },
    {
      "inputs": [],
      "name": "renounceOwnership",
      "outputs": [],
      "stateMutability": "nonpayable",
      "type": "function"
    },
    {
      "inputs": [
        {
          "internalType": "address",
          "name": "newOwner",
          "type": "address"
        }
      ],
      "name": "transferOwnership",
      "outputs": [],
      "stateMutability": "nonpayable",
      "type": "function"
    },
    {
      "inputs": [],
      "name": "withdraw",
      "outputs": [],
      "stateMutability": "nonpayable",
      "type": "function"
    },
    {
      "inputs": [
        {
          "internalType": "uint256",
          "name": "_campaignId",
          "type": "uint256"
        }
      ],
      "name": "withdrawCampaignFunds",
      "outputs": [],
      "stateMutability": "nonpayable",
      "type": "function"
    }
  ],
  "bytecode": "0x60806040523480156200001157600080fd5b5060405162002370380380620023708339818101604052810190620000379190620001dc565b620000576200004b620000a660201b60201c565b620000ae60201b60201c565b6001808190555080600460006101000a81548173ffffffffffffffffffffffffffffffffffffffff021916908373ffffffffffffffffffffffffffffffffffffffff160217905550506200020e565b600033905090565b60008060009054906101000a900473ffffffffffffffffffffffffffffffffffffffff169050816000806101000a81548173ffffffffffffffffffffffffffffffffffffffff021916908373ffffffffffffffffffffffffffffffffffffffff1602179055508173ffffffffffffffffffffffffffffffffffffffff168173ffffffffffffffffffffffffffffffffffffffff167f8be0079c531659141344cd1fd0a4f28419497f9722a3daafe3b4186f6b6457e060405160405180910390a35050565b600080fd5b600073ffffffffffffffffffffffffffffffffffffffff82169050919050565b6000620001a48262000177565b9050919050565b620001b68162000197565b8114620001c257600080fd5b50565b600081519050620001d681620001ab565b92915050565b600060208284031215620001f557620001f462000172565b5b60006200020584828501620001c5565b91505092915050565b612152806200021e6000396000f3fe6080604052600436106100a75760003560e01c80637274e30d116100645780637274e30d146101a05780638da5cb5b146101cb578063a949c74e146101f6578063d070e40c14610235578063e38e2b8214610260578063f2fde38b146102a2576100a7565b806311c1caaf146100ac57806314169e2a146100dc578063141961bc146101055780633ccfd60b14610149578063427f9bfb14610160578063715018a614610189575b600080fd5b6100c660048036038101906100c19190611512565b6102cb565b6040516100d391906115f0565b60405180910390f35b3480156100e857600080fd5b5061010360048036038101906100fe919061160b565b61050a565b005b34801561011157600080fd5b5061012c6004803603810190610127919061160b565b610699565b6040516101409897969594939291906117eb565b60405180910390f35b34801561015557600080fd5b5061015e610952565b005b34801561016c57600080fd5b5061018760048036038101906101829190611900565b610a1b565b005b34801561019557600080fd5b5061019e610d90565b005b3480156101ac57600080fd5b506101b5610da4565b6040516101c291906115f0565b60405180910390f35b3480156101d757600080fd5b506101e0610daa565b6040516101ed9190611967565b60405180910390f35b34801561020257600080fd5b5061021d600480360381019061021891906119d2565b610dd3565b60405161022c93929190611a25565b60405180910390f35b34801561024157600080fd5b5061024a610ea9565b6040516102579190611967565b60405180910390f35b34801561026c57600080fd5b506102876004803603810190610282919061160b565b610ecf565b60405161029996959493929190611a5c565b60405180910390f35b3480156102ae57600080fd5b506102c960048036038101906102c49190611ad2565b61115d565b005b60006102d56111e0565b3460008103610310576040517f1f2a200500000000000000000000000000000000000000000000000000000000815260040160405180910390fd5b60003490506003600081548092919061032890611b2e565b91905055503360026000600354815260200190815260200160002060000160006101000a81548173ffffffffffffffffffffffffffffffffffffffff021916908373ffffffffffffffffffffffffffffffffffffffff1602179055508760026000600354815260200190815260200160002060010190816103a99190611d82565b508660026000600354815260200190815260200160002060020190816103cf9190611d82565b508560026000600354815260200190815260200160002060030190816103f59190611d82565b50846002600060035481526020019081526020016000206004016000018190555083600260006003548152602001908152602001600020600401600101819055508060026000600354815260200190815260200160002060060181905550600060026000600354815260200190815260200160002060080160000160006101000a81548160ff0219169083600181111561049257610491611736565b5b02179055503373ffffffffffffffffffffffffffffffffffffffff166003547f769b387080c6632151ef5a2693f50e6d482856489f7cf2b167318ea21dcf9fd28a8a8a8a8a886040516104ea96959493929190611a5c565b60405180910390a36003549250505061050161122f565b95945050505050565b806002600082815260200190815260200160002060000160009054906101000a900473ffffffffffffffffffffffffffffffffffffffff1673ffffffffffffffffffffffffffffffffffffffff163373ffffffffffffffffffffffffffffffffffffffff16146105a6576040517f694a8e2200000000000000000000000000000000000000000000000000000000815260040160405180910390fd5b816003548111156105e3576040517f9b35ed3b00000000000000000000000000000000000000000000000000000000815260040160405180910390fd5b60003373ffffffffffffffffffffffffffffffffffffffff164760405161060990611e85565b60006040518083038185875af1925050503d8060008114610646576040519150601f19603f3d011682016040523d82523d6000602084013e61064b565b606091505b50509050806106935733476040517f864e4ff400000000000000000000000000000000000000000000000000000000815260040161068a929190611e9a565b60405180910390fd5b50505050565b60026020528060005260406000206000915090508060000160009054906101000a900473ffffffffffffffffffffffffffffffffffffffff16908060010180546106e290611ba5565b80601f016020809104026020016040519081016040528092919081815260200182805461070e90611ba5565b801561075b5780601f106107305761010080835404028352916020019161075b565b820191906000526020600020905b81548152906001019060200180831161073e57829003601f168201915b50505050509080600201805461077090611ba5565b80601f016020809104026020016040519081016040528092919081815260200182805461079c90611ba5565b80156107e95780601f106107be576101008083540402835291602001916107e9565b820191906000526020600020905b8154815290600101906020018083116107cc57829003601f168201915b5050505050908060030180546107fe90611ba5565b80601f016020809104026020016040519081016040528092919081815260200182805461082a90611ba5565b80156108775780601f1061084c57610100808354040283529160200191610877565b820191906000526020600020905b81548152906001019060200180831161085a57829003601f168201915b505050505090806004016040518060400160405290816000820154815260200160018201548152505090806006015490806007015490806008016040518060400160405290816000820160009054906101000a900460ff1660018111156108e1576108e0611736565b5b60018111156108f3576108f2611736565b5b81526020016000820160019054906101000a900473ffffffffffffffffffffffffffffffffffffffff1673ffffffffffffffffffffffffffffffffffffffff1673ffffffffffffffffffffffffffffffffffffffff1681525050905088565b61095a611238565b6000610964610daa565b73ffffffffffffffffffffffffffffffffffffffff164760405161098790611e85565b60006040518083038185875af1925050503d80600081146109c4576040519150601f19603f3d011682016040523d82523d6000602084013e6109c9565b606091505b5050905080610a18576109da610daa565b476040517f864e4ff4000000000000000000000000000000000000000000000000000000008152600401610a0f929190611e9a565b60405180910390fd5b50565b610a236111e0565b600460009054906101000a900473ffffffffffffffffffffffffffffffffffffffff1673ffffffffffffffffffffffffffffffffffffffff163373ffffffffffffffffffffffffffffffffffffffff1614610aaa576040517f58239da100000000000000000000000000000000000000000000000000000000815260040160405180910390fd5b82600354811115610ae7576040517f9b35ed3b00000000000000000000000000000000000000000000000000000000815260040160405180910390fd5b60006002600086815260200190815260200160002090506000806000610b6384600a01600089815260200190815260200160002060405180604001604052908160008201548152602001600182015481525050878660040160405180604001604052908160008201548152602001600182015481525050610dd3565b9250925092508360060154831115610ba7576040517f056a69e100000000000000000000000000000000000000000000000000000000815260040160405180910390fd5b82846006016000828254610bbb9190611ec3565b9250508190555082846007016000828254610bd69190611ef7565b92505081905550856000015184600a01600089815260200190815260200160002060000181905550856020015184600a01600089815260200190815260200160002060010181905550828460090160008b73ffffffffffffffffffffffffffffffffffffffff1673ffffffffffffffffffffffffffffffffffffffff1681526020019081526020016000206000828254610c709190611ef7565b9250508190555060008973ffffffffffffffffffffffffffffffffffffffff1684604051610c9d90611e85565b60006040518083038185875af1925050503d8060008114610cda576040519150601f19603f3d011682016040523d82523d6000602084013e610cdf565b606091505b5050905080610d275789846040517f864e4ff4000000000000000000000000000000000000000000000000000000008152600401610d1e929190611e9a565b60405180910390fd5b8973ffffffffffffffffffffffffffffffffffffffff16897f1cafd5d808f4a393e0f07cc5e01faee87efa08214cc3f1af8b85b16165f34d638a878787604051610d749493929190611f2b565b60405180910390a3505050505050610d8a61122f565b50505050565b610d98611238565b610da260006112b6565b565b60035481565b60008060009054906101000a900473ffffffffffffffffffffffffffffffffffffffff16905090565b6000806000808660000151905060008760200151905060008760000151905060008860200151905081841015610e12578382610e0f9190611ec3565b95505b80831015610e29578281610e269190611ec3565b94505b600086148015610e395750600085145b15610e70576040517f5aa9184d00000000000000000000000000000000000000000000000000000000815260040160405180910390fd5b876020015185610e809190611f70565b886000015187610e909190611f70565b610e9a9190611ef7565b96505050505093509350939050565b600460009054906101000a900473ffffffffffffffffffffffffffffffffffffffff1681565b6060806060600080600086600354811115610f16576040517f9b35ed3b00000000000000000000000000000000000000000000000000000000815260040160405180910390fd5b60026000898152602001908152602001600020600101600260008a8152602001908152602001600020600201600260008b8152602001908152602001600020600301600260008c815260200190815260200160002060040160000154600260008d815260200190815260200160002060040160010154600260008e815260200190815260200160002060060154858054610faf90611ba5565b80601f0160208091040260200160405190810160405280929190818152602001828054610fdb90611ba5565b80156110285780601f10610ffd57610100808354040283529160200191611028565b820191906000526020600020905b81548152906001019060200180831161100b57829003601f168201915b5050505050955084805461103b90611ba5565b80601f016020809104026020016040519081016040528092919081815260200182805461106790611ba5565b80156110b45780601f10611089576101008083540402835291602001916110b4565b820191906000526020600020905b81548152906001019060200180831161109757829003601f168201915b505050505094508380546110c790611ba5565b80601f01602080910402602001604051908101604052809291908181526020018280546110f390611ba5565b80156111405780601f1061111557610100808354040283529160200191611140565b820191906000526020600020905b81548152906001019060200180831161112357829003601f168201915b505050505093509650965096509650965096505091939550919395565b611165611238565b600073ffffffffffffffffffffffffffffffffffffffff168173ffffffffffffffffffffffffffffffffffffffff16036111d4576040517f08c379a00000000000000000000000000000000000000000000000000000000081526004016111cb90612024565b60405180910390fd5b6111dd816112b6565b50565b600260015403611225576040517f08c379a000000000000000000000000000000000000000000000000000000000815260040161121c90612090565b60405180910390fd5b6002600181905550565b60018081905550565b61124061137a565b73ffffffffffffffffffffffffffffffffffffffff1661125e610daa565b73ffffffffffffffffffffffffffffffffffffffff16146112b4576040517f08c379a00000000000000000000000000000000000000000000000000000000081526004016112ab906120fc565b60405180910390fd5b565b60008060009054906101000a900473ffffffffffffffffffffffffffffffffffffffff169050816000806101000a81548173ffffffffffffffffffffffffffffffffffffffff021916908373ffffffffffffffffffffffffffffffffffffffff1602179055508173ffffffffffffffffffffffffffffffffffffffff168173ffffffffffffffffffffffffffffffffffffffff167f8be0079c531659141344cd1fd0a4f28419497f9722a3daafe3b4186f6b6457e060405160405180910390a35050565b600033905090565b6000604051905090565b600080fd5b600080fd5b600080fd5b600080fd5b6000601f19601f8301169050919050565b7f4e487b7100000000000000000000000000000000000000000000000000000000600052604160045260246000fd5b6113e9826113a0565b810181811067ffffffffffffffff82111715611408576114076113b1565b5b80604052505050565b600061141b611382565b905061142782826113e0565b919050565b600067ffffffffffffffff821115611447576114466113b1565b5b611450826113a0565b9050602081019050919050565b82818337600083830152505050565b600061147f61147a8461142c565b611411565b90508281526020810184848401111561149b5761149a61139b565b5b6114a684828561145d565b509392505050565b600082601f8301126114c3576114c2611396565b5b81356114d384826020860161146c565b91505092915050565b6000819050919050565b6114ef816114dc565b81146114fa57600080fd5b50565b60008135905061150c816114e6565b92915050565b600080600080600060a0868803121561152e5761152d61138c565b5b600086013567ffffffffffffffff81111561154c5761154b611391565b5b611558888289016114ae565b955050602086013567ffffffffffffffff81111561157957611578611391565b5b611585888289016114ae565b945050604086013567ffffffffffffffff8111156115a6576115a5611391565b5b6115b2888289016114ae565b93505060606115c3888289016114fd565b92505060806115d4888289016114fd565b9150509295509295909350565b6115ea816114dc565b82525050565b600060208201905061160560008301846115e1565b92915050565b6000602082840312156116215761162061138c565b5b600061162f848285016114fd565b91505092915050565b600073ffffffffffffffffffffffffffffffffffffffff82169050919050565b600061166382611638565b9050919050565b61167381611658565b82525050565b600081519050919050565b600082825260208201905092915050565b60005b838110156116b3578082015181840152602081019050611698565b60008484015250505050565b60006116ca82611679565b6116d48185611684565b93506116e4818560208601611695565b6116ed816113a0565b840191505092915050565b611701816114dc565b82525050565b60408201600082015161171d60008501826116f8565b50602082015161173060208501826116f8565b50505050565b7f4e487b7100000000000000000000000000000000000000000000000000000000600052602160045260246000fd5b6002811061177657611775611736565b5b50565b600081905061178782611765565b919050565b600061179782611779565b9050919050565b6117a78161178c565b82525050565b6117b681611658565b82525050565b6040820160008201516117d2600085018261179e565b5060208201516117e560208501826117ad565b50505050565b600061014082019050611801600083018b61166a565b8181036020830152611813818a6116bf565b9050818103604083015261182781896116bf565b9050818103606083015261183b81886116bf565b905061184a6080830187611707565b61185760c08301866115e1565b61186460e08301856115e1565b6118726101008301846117bc565b9998505050505050505050565b61188881611658565b811461189357600080fd5b50565b6000813590506118a58161187f565b92915050565b600080fd5b6000604082840312156118c6576118c56118ab565b5b6118d06040611411565b905060006118e0848285016114fd565b60008301525060206118f4848285016114fd565b60208301525092915050565b60008060008060a0858703121561191a5761191961138c565b5b600061192887828801611896565b9450506020611939878288016114fd565b935050604061194a878288016114fd565b925050606061195b878288016118b0565b91505092959194509250565b600060208201905061197c600083018461166a565b92915050565b600060408284031215611998576119976118ab565b5b6119a26040611411565b905060006119b2848285016114fd565b60008301525060206119c6848285016114fd565b60208301525092915050565b600080600060c084860312156119eb576119ea61138c565b5b60006119f9868287016118b0565b9350506040611a0a868287016118b0565b9250506080611a1b86828701611982565b9150509250925092565b6000606082019050611a3a60008301866115e1565b611a4760208301856115e1565b611a5460408301846115e1565b949350505050565b600060c0820190508181036000830152611a7681896116bf565b90508181036020830152611a8a81886116bf565b90508181036040830152611a9e81876116bf565b9050611aad60608301866115e1565b611aba60808301856115e1565b611ac760a08301846115e1565b979650505050505050565b600060208284031215611ae857611ae761138c565b5b6000611af684828501611896565b91505092915050565b7f4e487b7100000000000000000000000000000000000000000000000000000000600052601160045260246000fd5b6000611b39826114dc565b91507fffffffffffffffffffffffffffffffffffffffffffffffffffffffffffffffff8203611b6b57611b6a611aff565b5b600182019050919050565b7f4e487b7100000000000000000000000000000000000000000000000000000000600052602260045260246000fd5b60006002820490506001821680611bbd57607f821691505b602082108103611bd057611bcf611b76565b5b50919050565b60008190508160005260206000209050919050565b60006020601f8301049050919050565b600082821b905092915050565b600060088302611c387fffffffffffffffffffffffffffffffffffffffffffffffffffffffffffffffff82611bfb565b611c428683611bfb565b95508019841693508086168417925050509392505050565b6000819050919050565b6000611c7f611c7a611c75846114dc565b611c5a565b6114dc565b9050919050565b6000819050919050565b611c9983611c64565b611cad611ca582611c86565b848454611c08565b825550505050565b600090565b611cc2611cb5565b611ccd818484611c90565b505050565b5b81811015611cf157611ce6600082611cba565b600181019050611cd3565b5050565b601f821115611d3657611d0781611bd6565b611d1084611beb565b81016020851015611d1f578190505b611d33611d2b85611beb565b830182611cd2565b50505b505050565b600082821c905092915050565b6000611d5960001984600802611d3b565b1980831691505092915050565b6000611d728383611d48565b9150826002028217905092915050565b611d8b82611679565b67ffffffffffffffff811115611da457611da36113b1565b5b611dae8254611ba5565b611db9828285611cf5565b600060209050601f831160018114611dec5760008415611dda578287015190505b611de48582611d66565b865550611e4c565b601f198416611dfa86611bd6565b60005b82811015611e2257848901518255600182019150602085019450602081019050611dfd565b86831015611e3f5784890151611e3b601f891682611d48565b8355505b6001600288020188555050505b505050505050565b600081905092915050565b50565b6000611e6f600083611e54565b9150611e7a82611e5f565b600082019050919050565b6000611e9082611e62565b9150819050919050565b6000604082019050611eaf600083018561166a565b611ebc60208301846115e1565b9392505050565b6000611ece826114dc565b9150611ed9836114dc565b9250828203905081811115611ef157611ef0611aff565b5b92915050565b6000611f02826114dc565b9150611f0d836114dc565b9250828201905080821115611f2557611f24611aff565b5b92915050565b6000608082019050611f4060008301876115e1565b611f4d60208301866115e1565b611f5a60408301856115e1565b611f6760608301846115e1565b95945050505050565b6000611f7b826114dc565b9150611f86836114dc565b9250828202611f94816114dc565b91508282048414831517611fab57611faa611aff565b5b5092915050565b7f4f776e61626c653a206e6577206f776e657220697320746865207a65726f206160008201527f6464726573730000000000000000000000000000000000000000000000000000602082015250565b600061200e602683611684565b915061201982611fb2565b604082019050919050565b6000602082019050818103600083015261203d81612001565b9050919050565b7f5265656e7472616e637947756172643a207265656e7472616e742063616c6c00600082015250565b600061207a601f83611684565b915061208582612044565b602082019050919050565b600060208201905081810360008301526120a98161206d565b9050919050565b7f4f776e61626c653a2063616c6c6572206973206e6f7420746865206f776e6572600082015250565b60006120e6602083611684565b91506120f1826120b0565b602082019050919050565b60006020820190508181036000830152612115816120d9565b905091905056fea2646970667358221220615bf03e50eb9237efa77a8e9fbff89e413427c5610cc7be202d185e3f30461364736f6c63430008120033",
  "linkReferences": {},
  "deployedLinkReferences": {}
}