{
  "_format": "hh-sol-artifact-1",
  "contractName": "CampaignManager",
  "sourceName": "contracts/CampaignManager.sol",
  "abi": [
    {
      "inputs": [
        {
          "internalType": "address",
          "name": "_backendAdmin",
          "type": "address"
        }
      ],
      "stateMutability": "nonpayable",
      "type": "constructor"
    },
    {
      "inputs": [],
      "name": "CampaignDoesNotExist",
      "type": "error"
    },
    {
      "inputs": [
        {
          "internalType": "address",
          "name": "participant",
          "type": "address"
        },
        {
          "internalType": "uint256",
          "name": "amount",
          "type": "uint256"
        }
      ],
      "name": "FailedToSendRewards",
      "type": "error"
    },
    {
      "inputs": [],
      "name": "NoRewardToClaim",
      "type": "error"
    },
    {
      "inputs": [],
      "name": "NotEnoughRewardsLeft",
      "type": "error"
    },
    {
      "inputs": [],
      "name": "OnlyBackendAdmin",
      "type": "error"
    },
    {
      "inputs": [],
      "name": "ZeroAmount",
      "type": "error"
    },
    {
      "anonymous": false,
      "inputs": [
        {
          "indexed": true,
          "internalType": "uint256",
          "name": "campaignId",
          "type": "uint256"
        },
        {
          "indexed": true,
          "internalType": "address",
          "name": "owner",
          "type": "address"
        },
        {
          "indexed": false,
          "internalType": "string",
          "name": "name",
          "type": "string"
        },
        {
          "indexed": false,
          "internalType": "string",
          "name": "description",
          "type": "string"
        },
        {
          "indexed": false,
          "internalType": "string",
          "name": "tweetString",
          "type": "string"
        },
        {
          "indexed": false,
          "internalType": "uint256",
          "name": "tokensPerLike",
          "type": "uint256"
        },
        {
          "indexed": false,
          "internalType": "uint256",
          "name": "tokensPerRetweet",
          "type": "uint256"
        },
        {
          "indexed": false,
          "internalType": "uint256",
          "name": "rewardsLeft",
          "type": "uint256"
        }
      ],
      "name": "CampaignCreated",
      "type": "event"
    },
    {
      "anonymous": false,
      "inputs": [
        {
          "indexed": true,
          "internalType": "address",
          "name": "previousOwner",
          "type": "address"
        },
        {
          "indexed": true,
          "internalType": "address",
          "name": "newOwner",
          "type": "address"
        }
      ],
      "name": "OwnershipTransferred",
      "type": "event"
    },
    {
      "anonymous": false,
      "inputs": [
        {
          "indexed": true,
          "internalType": "uint256",
          "name": "campaignId",
          "type": "uint256"
        },
        {
          "indexed": true,
          "internalType": "address",
          "name": "wallet",
          "type": "address"
        },
        {
          "indexed": false,
          "internalType": "uint256",
          "name": "tweetId",
          "type": "uint256"
        },
        {
          "indexed": false,
          "internalType": "uint256",
          "name": "tokensRewarded",
          "type": "uint256"
        },
        {
          "indexed": false,
          "internalType": "uint256",
          "name": "likesRewarded",
          "type": "uint256"
        },
        {
          "indexed": false,
          "internalType": "uint256",
          "name": "retweetsRewarded",
          "type": "uint256"
        }
      ],
      "name": "RewardClaimed",
      "type": "event"
    },
    {
      "inputs": [],
      "name": "backendAdmin",
      "outputs": [
        {
          "internalType": "address",
          "name": "",
          "type": "address"
        }
      ],
      "stateMutability": "view",
      "type": "function"
    },
    {
      "inputs": [
        {
          "components": [
            {
              "internalType": "uint256",
              "name": "likes",
              "type": "uint256"
            },
            {
              "internalType": "uint256",
              "name": "retweets",
              "type": "uint256"
            }
          ],
          "internalType": "struct CampaignManager.TweetInfo",
          "name": "_lastTweet",
          "type": "tuple"
        },
        {
          "components": [
            {
              "internalType": "uint256",
              "name": "likes",
              "type": "uint256"
            },
            {
              "internalType": "uint256",
              "name": "retweets",
              "type": "uint256"
            }
          ],
          "internalType": "struct CampaignManager.TweetInfo",
          "name": "_currentTweet",
          "type": "tuple"
        },
        {
          "components": [
            {
              "internalType": "uint256",
              "name": "tokensPerLike",
              "type": "uint256"
            },
            {
              "internalType": "uint256",
              "name": "tokensPerRetweet",
              "type": "uint256"
            }
          ],
          "internalType": "struct CampaignManager.TweetRewardStats",
          "name": "_tweetRewardStats",
          "type": "tuple"
        }
      ],
      "name": "calculateRewards",
      "outputs": [
        {
          "internalType": "uint256",
          "name": "tokensRewarded",
          "type": "uint256"
        },
        {
          "internalType": "uint256",
          "name": "likesRewarded",
          "type": "uint256"
        },
        {
          "internalType": "uint256",
          "name": "retweetsRewarded",
          "type": "uint256"
        }
      ],
      "stateMutability": "pure",
      "type": "function"
    },
    {
      "inputs": [],
      "name": "campaignCount",
      "outputs": [
        {
          "internalType": "uint256",
          "name": "",
          "type": "uint256"
        }
      ],
      "stateMutability": "view",
      "type": "function"
    },
    {
      "inputs": [
        {
          "internalType": "uint256",
          "name": "",
          "type": "uint256"
        }
      ],
      "name": "campaigns",
      "outputs": [
        {
          "internalType": "address",
          "name": "owner",
          "type": "address"
        },
        {
          "internalType": "string",
          "name": "name",
          "type": "string"
        },
        {
          "internalType": "string",
          "name": "description",
          "type": "string"
        },
        {
          "internalType": "string",
          "name": "tweetString",
          "type": "string"
        },
        {
          "components": [
            {
              "internalType": "uint256",
              "name": "tokensPerLike",
              "type": "uint256"
            },
            {
              "internalType": "uint256",
              "name": "tokensPerRetweet",
              "type": "uint256"
            }
          ],
          "internalType": "struct CampaignManager.TweetRewardStats",
          "name": "tweetRewardStats",
          "type": "tuple"
        },
        {
          "internalType": "uint256",
          "name": "rewardsLeft",
          "type": "uint256"
        },
        {
          "internalType": "uint256",
          "name": "totalRewardsGiven",
          "type": "uint256"
        },
        {
          "components": [
            {
              "internalType": "enum CampaignManager.RewardType",
              "name": "rewardType",
              "type": "uint8"
            },
            {
              "internalType": "address",
              "name": "tokenAddress",
              "type": "address"
            }
          ],
          "internalType": "struct CampaignManager.RewardToken",
          "name": "rewardToken",
          "type": "tuple"
        }
      ],
      "stateMutability": "view",
      "type": "function"
    },
    {
      "inputs": [
        {
          "internalType": "address",
          "name": "participant",
          "type": "address"
        },
        {
          "internalType": "uint256",
          "name": "_campaignId",
          "type": "uint256"
        },
        {
          "internalType": "uint256",
          "name": "_tweetId",
          "type": "uint256"
        },
        {
          "components": [
            {
              "internalType": "uint256",
              "name": "likes",
              "type": "uint256"
            },
            {
              "internalType": "uint256",
              "name": "retweets",
              "type": "uint256"
            }
          ],
          "internalType": "struct CampaignManager.TweetInfo",
          "name": "_currentTweetInfo",
          "type": "tuple"
        }
      ],
      "name": "claimRewardNativeTo",
      "outputs": [],
      "stateMutability": "nonpayable",
      "type": "function"
    },
    {
      "inputs": [
        {
          "internalType": "string",
          "name": "_name",
          "type": "string"
        },
        {
          "internalType": "string",
          "name": "_description",
          "type": "string"
        },
        {
          "internalType": "string",
          "name": "_tweetString",
          "type": "string"
        },
        {
          "internalType": "uint256",
          "name": "_tokensPerLike",
          "type": "uint256"
        },
        {
          "internalType": "uint256",
          "name": "_tokensPerRetweet",
          "type": "uint256"
        }
      ],
      "name": "createCampaignNative",
      "outputs": [
        {
          "internalType": "uint256",
          "name": "",
          "type": "uint256"
        }
      ],
      "stateMutability": "payable",
      "type": "function"
    },
    {
      "inputs": [
        {
          "internalType": "uint256",
          "name": "_campaignId",
          "type": "uint256"
        }
      ],
      "name": "getCampaignInfo",
      "outputs": [
        {
          "internalType": "string",
          "name": "",
          "type": "string"
        },
        {
          "internalType": "string",
          "name": "",
          "type": "string"
        },
        {
          "internalType": "string",
          "name": "",
          "type": "string"
        },
        {
          "internalType": "uint256",
          "name": "",
          "type": "uint256"
        },
        {
          "internalType": "uint256",
          "name": "",
          "type": "uint256"
        },
        {
          "internalType": "uint256",
          "name": "",
          "type": "uint256"
        }
      ],
      "stateMutability": "view",
      "type": "function"
    },
    {
      "inputs": [],
      "name": "owner",
      "outputs": [
        {
          "internalType": "address",
          "name": "",
          "type": "address"
        }
      ],
      "stateMutability": "view",
      "type": "function"
    },
    {
      "inputs": [],
      "name": "renounceOwnership",
      "outputs": [],
      "stateMutability": "nonpayable",
      "type": "function"
    },
    {
      "inputs": [
        {
          "internalType": "address",
          "name": "newOwner",
          "type": "address"
        }
      ],
      "name": "transferOwnership",
      "outputs": [],
      "stateMutability": "nonpayable",
      "type": "function"
    }
  ],
  "bytecode": "0x60806040523480156200001157600080fd5b50604051620020ab380380620020ab8339818101604052810190620000379190620001dc565b620000576200004b620000a660201b60201c565b620000ae60201b60201c565b6001808190555080600460006101000a81548173ffffffffffffffffffffffffffffffffffffffff021916908373ffffffffffffffffffffffffffffffffffffffff160217905550506200020e565b600033905090565b60008060009054906101000a900473ffffffffffffffffffffffffffffffffffffffff169050816000806101000a81548173ffffffffffffffffffffffffffffffffffffffff021916908373ffffffffffffffffffffffffffffffffffffffff1602179055508173ffffffffffffffffffffffffffffffffffffffff168173ffffffffffffffffffffffffffffffffffffffff167f8be0079c531659141344cd1fd0a4f28419497f9722a3daafe3b4186f6b6457e060405160405180910390a35050565b600080fd5b600073ffffffffffffffffffffffffffffffffffffffff82169050919050565b6000620001a48262000177565b9050919050565b620001b68162000197565b8114620001c257600080fd5b50565b600081519050620001d681620001ab565b92915050565b600060208284031215620001f557620001f462000172565b5b60006200020584828501620001c5565b91505092915050565b611e8d806200021e6000396000f3fe6080604052600436106100915760003560e01c80638da5cb5b116100595780638da5cb5b14610175578063a949c74e146101a0578063d070e40c146101df578063e38e2b821461020a578063f2fde38b1461024c57610091565b806311c1caaf14610096578063141961bc146100c6578063427f9bfb1461010a578063715018a6146101335780637274e30d1461014a575b600080fd5b6100b060048036038101906100ab919061124d565b610275565b6040516100bd919061132b565b60405180910390f35b3480156100d257600080fd5b506100ed60048036038101906100e89190611346565b6104b4565b604051610101989796959493929190611526565b60405180910390f35b34801561011657600080fd5b50610131600480360381019061012c919061163b565b61076d565b005b34801561013f57600080fd5b50610148610acc565b005b34801561015657600080fd5b5061015f610ae0565b60405161016c919061132b565b60405180910390f35b34801561018157600080fd5b5061018a610ae6565b60405161019791906116a2565b60405180910390f35b3480156101ac57600080fd5b506101c760048036038101906101c2919061170d565b610b0f565b6040516101d693929190611760565b60405180910390f35b3480156101eb57600080fd5b506101f4610be5565b60405161020191906116a2565b60405180910390f35b34801561021657600080fd5b50610231600480360381019061022c9190611346565b610c0b565b60405161024396959493929190611797565b60405180910390f35b34801561025857600080fd5b50610273600480360381019061026e919061180d565b610e98565b005b600061027f610f1b565b34600081036102ba576040517f1f2a200500000000000000000000000000000000000000000000000000000000815260040160405180910390fd5b60003490503360026000600354815260200190815260200160002060000160006101000a81548173ffffffffffffffffffffffffffffffffffffffff021916908373ffffffffffffffffffffffffffffffffffffffff16021790555087600260006003548152602001908152602001600020600101908161033b9190611a46565b508660026000600354815260200190815260200160002060020190816103619190611a46565b508560026000600354815260200190815260200160002060030190816103879190611a46565b50846002600060035481526020019081526020016000206004016000018190555083600260006003548152602001908152602001600020600401600101819055508060026000600354815260200190815260200160002060060181905550600060026000600354815260200190815260200160002060080160000160006101000a81548160ff0219169083600181111561042457610423611471565b5b02179055506003600081548092919061043c90611b47565b91905055503373ffffffffffffffffffffffffffffffffffffffff166003547f769b387080c6632151ef5a2693f50e6d482856489f7cf2b167318ea21dcf9fd28a8a8a8a8a8860405161049496959493929190611797565b60405180910390a3600354925050506104ab610f6a565b95945050505050565b60026020528060005260406000206000915090508060000160009054906101000a900473ffffffffffffffffffffffffffffffffffffffff16908060010180546104fd90611869565b80601f016020809104026020016040519081016040528092919081815260200182805461052990611869565b80156105765780601f1061054b57610100808354040283529160200191610576565b820191906000526020600020905b81548152906001019060200180831161055957829003601f168201915b50505050509080600201805461058b90611869565b80601f01602080910402602001604051908101604052809291908181526020018280546105b790611869565b80156106045780601f106105d957610100808354040283529160200191610604565b820191906000526020600020905b8154815290600101906020018083116105e757829003601f168201915b50505050509080600301805461061990611869565b80601f016020809104026020016040519081016040528092919081815260200182805461064590611869565b80156106925780601f1061066757610100808354040283529160200191610692565b820191906000526020600020905b81548152906001019060200180831161067557829003601f168201915b505050505090806004016040518060400160405290816000820154815260200160018201548152505090806006015490806007015490806008016040518060400160405290816000820160009054906101000a900460ff1660018111156106fc576106fb611471565b5b600181111561070e5761070d611471565b5b81526020016000820160019054906101000a900473ffffffffffffffffffffffffffffffffffffffff1673ffffffffffffffffffffffffffffffffffffffff1673ffffffffffffffffffffffffffffffffffffffff1681525050905088565b610775610f1b565b600460009054906101000a900473ffffffffffffffffffffffffffffffffffffffff1673ffffffffffffffffffffffffffffffffffffffff163373ffffffffffffffffffffffffffffffffffffffff16146107fc576040517f58239da100000000000000000000000000000000000000000000000000000000815260040160405180910390fd5b826003548110610838576040517f9b35ed3b00000000000000000000000000000000000000000000000000000000815260040160405180910390fd5b600060026000868152602001908152602001600020905060008060006108b484600a01600089815260200190815260200160002060405180604001604052908160008201548152602001600182015481525050878660040160405180604001604052908160008201548152602001600182015481525050610b0f565b92509250925083600601548311156108f8576040517f056a69e100000000000000000000000000000000000000000000000000000000815260040160405180910390fd5b8284600601600082825461090c9190611b8f565b92505081905550828460070160008282546109279190611bc3565b925050819055508584600a0160008981526020019081526020016000206000820151816000015560208201518160010155905050828460090160008b73ffffffffffffffffffffffffffffffffffffffff1673ffffffffffffffffffffffffffffffffffffffff16815260200190815260200160002060008282546109ac9190611bc3565b9250508190555060008973ffffffffffffffffffffffffffffffffffffffff16846040516109d990611c28565b60006040518083038185875af1925050503d8060008114610a16576040519150601f19603f3d011682016040523d82523d6000602084013e610a1b565b606091505b5050905080610a635789846040517f864e4ff4000000000000000000000000000000000000000000000000000000008152600401610a5a929190611c3d565b60405180910390fd5b8973ffffffffffffffffffffffffffffffffffffffff16897f1cafd5d808f4a393e0f07cc5e01faee87efa08214cc3f1af8b85b16165f34d638a878787604051610ab09493929190611c66565b60405180910390a3505050505050610ac6610f6a565b50505050565b610ad4610f73565b610ade6000610ff1565b565b60035481565b60008060009054906101000a900473ffffffffffffffffffffffffffffffffffffffff16905090565b6000806000808660000151905060008760200151905060008760000151905060008860200151905081841015610b4e578382610b4b9190611b8f565b95505b80831015610b65578281610b629190611b8f565b94505b600086148015610b755750600085145b15610bac576040517f5aa9184d00000000000000000000000000000000000000000000000000000000815260040160405180910390fd5b876020015185610bbc9190611cab565b886000015187610bcc9190611cab565b610bd69190611bc3565b96505050505093509350939050565b600460009054906101000a900473ffffffffffffffffffffffffffffffffffffffff1681565b60608060606000806000866003548110610c51576040517f9b35ed3b00000000000000000000000000000000000000000000000000000000815260040160405180910390fd5b60026000898152602001908152602001600020600101600260008a8152602001908152602001600020600201600260008b8152602001908152602001600020600301600260008c815260200190815260200160002060040160000154600260008d815260200190815260200160002060040160010154600260008e815260200190815260200160002060060154858054610cea90611869565b80601f0160208091040260200160405190810160405280929190818152602001828054610d1690611869565b8015610d635780601f10610d3857610100808354040283529160200191610d63565b820191906000526020600020905b815481529060010190602001808311610d4657829003601f168201915b50505050509550848054610d7690611869565b80601f0160208091040260200160405190810160405280929190818152602001828054610da290611869565b8015610def5780601f10610dc457610100808354040283529160200191610def565b820191906000526020600020905b815481529060010190602001808311610dd257829003601f168201915b50505050509450838054610e0290611869565b80601f0160208091040260200160405190810160405280929190818152602001828054610e2e90611869565b8015610e7b5780601f10610e5057610100808354040283529160200191610e7b565b820191906000526020600020905b815481529060010190602001808311610e5e57829003601f168201915b505050505093509650965096509650965096505091939550919395565b610ea0610f73565b600073ffffffffffffffffffffffffffffffffffffffff168173ffffffffffffffffffffffffffffffffffffffff1603610f0f576040517f08c379a0000000000000000000000000000000000000000000000000000000008152600401610f0690611d5f565b60405180910390fd5b610f1881610ff1565b50565b600260015403610f60576040517f08c379a0000000000000000000000000000000000000000000000000000000008152600401610f5790611dcb565b60405180910390fd5b6002600181905550565b60018081905550565b610f7b6110b5565b73ffffffffffffffffffffffffffffffffffffffff16610f99610ae6565b73ffffffffffffffffffffffffffffffffffffffff1614610fef576040517f08c379a0000000000000000000000000000000000000000000000000000000008152600401610fe690611e37565b60405180910390fd5b565b60008060009054906101000a900473ffffffffffffffffffffffffffffffffffffffff169050816000806101000a81548173ffffffffffffffffffffffffffffffffffffffff021916908373ffffffffffffffffffffffffffffffffffffffff1602179055508173ffffffffffffffffffffffffffffffffffffffff168173ffffffffffffffffffffffffffffffffffffffff167f8be0079c531659141344cd1fd0a4f28419497f9722a3daafe3b4186f6b6457e060405160405180910390a35050565b600033905090565b6000604051905090565b600080fd5b600080fd5b600080fd5b600080fd5b6000601f19601f8301169050919050565b7f4e487b7100000000000000000000000000000000000000000000000000000000600052604160045260246000fd5b611124826110db565b810181811067ffffffffffffffff82111715611143576111426110ec565b5b80604052505050565b60006111566110bd565b9050611162828261111b565b919050565b600067ffffffffffffffff821115611182576111816110ec565b5b61118b826110db565b9050602081019050919050565b82818337600083830152505050565b60006111ba6111b584611167565b61114c565b9050828152602081018484840111156111d6576111d56110d6565b5b6111e1848285611198565b509392505050565b600082601f8301126111fe576111fd6110d1565b5b813561120e8482602086016111a7565b91505092915050565b6000819050919050565b61122a81611217565b811461123557600080fd5b50565b60008135905061124781611221565b92915050565b600080600080600060a08688031215611269576112686110c7565b5b600086013567ffffffffffffffff811115611287576112866110cc565b5b611293888289016111e9565b955050602086013567ffffffffffffffff8111156112b4576112b36110cc565b5b6112c0888289016111e9565b945050604086013567ffffffffffffffff8111156112e1576112e06110cc565b5b6112ed888289016111e9565b93505060606112fe88828901611238565b925050608061130f88828901611238565b9150509295509295909350565b61132581611217565b82525050565b6000602082019050611340600083018461131c565b92915050565b60006020828403121561135c5761135b6110c7565b5b600061136a84828501611238565b91505092915050565b600073ffffffffffffffffffffffffffffffffffffffff82169050919050565b600061139e82611373565b9050919050565b6113ae81611393565b82525050565b600081519050919050565b600082825260208201905092915050565b60005b838110156113ee5780820151818401526020810190506113d3565b60008484015250505050565b6000611405826113b4565b61140f81856113bf565b935061141f8185602086016113d0565b611428816110db565b840191505092915050565b61143c81611217565b82525050565b6040820160008201516114586000850182611433565b50602082015161146b6020850182611433565b50505050565b7f4e487b7100000000000000000000000000000000000000000000000000000000600052602160045260246000fd5b600281106114b1576114b0611471565b5b50565b60008190506114c2826114a0565b919050565b60006114d2826114b4565b9050919050565b6114e2816114c7565b82525050565b6114f181611393565b82525050565b60408201600082015161150d60008501826114d9565b50602082015161152060208501826114e8565b50505050565b60006101408201905061153c600083018b6113a5565b818103602083015261154e818a6113fa565b9050818103604083015261156281896113fa565b9050818103606083015261157681886113fa565b90506115856080830187611442565b61159260c083018661131c565b61159f60e083018561131c565b6115ad6101008301846114f7565b9998505050505050505050565b6115c381611393565b81146115ce57600080fd5b50565b6000813590506115e0816115ba565b92915050565b600080fd5b600060408284031215611601576116006115e6565b5b61160b604061114c565b9050600061161b84828501611238565b600083015250602061162f84828501611238565b60208301525092915050565b60008060008060a08587031215611655576116546110c7565b5b6000611663878288016115d1565b945050602061167487828801611238565b935050604061168587828801611238565b9250506060611696878288016115eb565b91505092959194509250565b60006020820190506116b760008301846113a5565b92915050565b6000604082840312156116d3576116d26115e6565b5b6116dd604061114c565b905060006116ed84828501611238565b600083015250602061170184828501611238565b60208301525092915050565b600080600060c08486031215611726576117256110c7565b5b6000611734868287016115eb565b9350506040611745868287016115eb565b9250506080611756868287016116bd565b9150509250925092565b6000606082019050611775600083018661131c565b611782602083018561131c565b61178f604083018461131c565b949350505050565b600060c08201905081810360008301526117b181896113fa565b905081810360208301526117c581886113fa565b905081810360408301526117d981876113fa565b90506117e8606083018661131c565b6117f5608083018561131c565b61180260a083018461131c565b979650505050505050565b600060208284031215611823576118226110c7565b5b6000611831848285016115d1565b91505092915050565b7f4e487b7100000000000000000000000000000000000000000000000000000000600052602260045260246000fd5b6000600282049050600182168061188157607f821691505b6020821081036118945761189361183a565b5b50919050565b60008190508160005260206000209050919050565b60006020601f8301049050919050565b600082821b905092915050565b6000600883026118fc7fffffffffffffffffffffffffffffffffffffffffffffffffffffffffffffffff826118bf565b61190686836118bf565b95508019841693508086168417925050509392505050565b6000819050919050565b600061194361193e61193984611217565b61191e565b611217565b9050919050565b6000819050919050565b61195d83611928565b6119716119698261194a565b8484546118cc565b825550505050565b600090565b611986611979565b611991818484611954565b505050565b5b818110156119b5576119aa60008261197e565b600181019050611997565b5050565b601f8211156119fa576119cb8161189a565b6119d4846118af565b810160208510156119e3578190505b6119f76119ef856118af565b830182611996565b50505b505050565b600082821c905092915050565b6000611a1d600019846008026119ff565b1980831691505092915050565b6000611a368383611a0c565b9150826002028217905092915050565b611a4f826113b4565b67ffffffffffffffff811115611a6857611a676110ec565b5b611a728254611869565b611a7d8282856119b9565b600060209050601f831160018114611ab05760008415611a9e578287015190505b611aa88582611a2a565b865550611b10565b601f198416611abe8661189a565b60005b82811015611ae657848901518255600182019150602085019450602081019050611ac1565b86831015611b035784890151611aff601f891682611a0c565b8355505b6001600288020188555050505b505050505050565b7f4e487b7100000000000000000000000000000000000000000000000000000000600052601160045260246000fd5b6000611b5282611217565b91507fffffffffffffffffffffffffffffffffffffffffffffffffffffffffffffffff8203611b8457611b83611b18565b5b600182019050919050565b6000611b9a82611217565b9150611ba583611217565b9250828203905081811115611bbd57611bbc611b18565b5b92915050565b6000611bce82611217565b9150611bd983611217565b9250828201905080821115611bf157611bf0611b18565b5b92915050565b600081905092915050565b50565b6000611c12600083611bf7565b9150611c1d82611c02565b600082019050919050565b6000611c3382611c05565b9150819050919050565b6000604082019050611c5260008301856113a5565b611c5f602083018461131c565b9392505050565b6000608082019050611c7b600083018761131c565b611c88602083018661131c565b611c95604083018561131c565b611ca2606083018461131c565b95945050505050565b6000611cb682611217565b9150611cc183611217565b9250828202611ccf81611217565b91508282048414831517611ce657611ce5611b18565b5b5092915050565b7f4f776e61626c653a206e6577206f776e657220697320746865207a65726f206160008201527f6464726573730000000000000000000000000000000000000000000000000000602082015250565b6000611d496026836113bf565b9150611d5482611ced565b604082019050919050565b60006020820190508181036000830152611d7881611d3c565b9050919050565b7f5265656e7472616e637947756172643a207265656e7472616e742063616c6c00600082015250565b6000611db5601f836113bf565b9150611dc082611d7f565b602082019050919050565b60006020820190508181036000830152611de481611da8565b9050919050565b7f4f776e61626c653a2063616c6c6572206973206e6f7420746865206f776e6572600082015250565b6000611e216020836113bf565b9150611e2c82611deb565b602082019050919050565b60006020820190508181036000830152611e5081611e14565b905091905056fea2646970667358221220559c47644d02ad5b34c6f389426cb8d7cdaaab4c687cfdab1baf9e330b78127a64736f6c63430008120033",
  "linkReferences": {},
  "deployedLinkReferences": {}
}